S0120000537061726B4E6F6465382E7372656353
S1130000D02D00203D1D00002D1D00002D1D0000E1
S113001000000000000000000000000000000000DC
S11300200000000000000000000000002D1D000082
S113003000000000000000002D1D00002D1D000028
S11300402D1D00002D1D00002D1D00002D1D000084
S1130050B12500002D1D00002D1D000051390000A8
S11300602D1D00002D1D00002D1D00002D1D000064
S11300702D1D00002D1D00002D1D00002D1D000054
S11300802D1D00002D1D00002D1D00002D1D000044
S11300902D1D000000000000000000002D1D0000C8
S11300A02D1D00002D1D00002D1D0000E125000068
S11300B00000000010B5064C2378002B07D1054B37
S11300C0002B02D0044800E000BF0123237010BDC0
S11300D0180200200000000090650000084B10B5D5
S11300E0002B03D00749084800E000BF0748036815
S11300F0002B00D110BD064B002BFBD09847F9E72D
S1130100000000001C0200209065000090650000C3
S11301100000000070B5002304E00021204AD154FF
S11301200133DBB23F2BF8D91D4BCD221A701D4A87
S11301301288110A59709A701B4A1288110AD970D0
S11301401A711A4A12785A71194A1288110A997145
S1130150DA71184A12781A72174A12785A72174AC0
S113016012789A72164A1278DA7200230C2207E087
S1130170511C1448C45C0A4884540133DBB2CAB22B
S11301800B2BF5D9064D104B1B78AB540F4C2000AC
S11301900F4B98474022290020000E4B984770BD12
S11301A084020020EC030020760400207902002061
S11301B07C02002072040020E00300207B02002067
S11301C078020020C40200208004002000060300FE
S11301D03D2000006120000010B5234C4022210086
S11301E02248234B98472378CD2B00D010BD1E4BBB
S11301F05A78120299780A431E490A80DA78120260
S113020019790A431C490A8059791C4A11709A7950
S11302101202D9790A431A490A801A7A511E8A416C
S113022018490A705A7A511E8A4117490A709A7AF3
S1130230511E8A4115490A70DB7A5A1E9341144AA9
S1130240137000230C2207E0511C0748805C114AFC
S1130250D0540133DBB2CAB20B2BF5D9024B9A5CF2
S11302600D4B1A70C2E7C04684020020000603004A
S1130270FD1F0000EC03002076040020790200201A
S11302807C02002072040020E00300207B02002096
S113029078020020C40200208004002010B51F4B07
S11302A09847F0221E4B1A80FA22D2001D4B1A8066
S11302B002221D4B1A701D4A1D4B1A800F221D4B22
S11302C01A8002321C4B1A8019321C4B1A80183ABD
S11302D01B4B1A80113A1B4B1A7000221A4B1A70CE
S11302E01A4B1A701A4B1A701A4B1A705A70BD2195
S11302F099700239D9700239197102395971023968
S113030099710239D9711A725A729A72DA72063272
S1130310114B1A70114B984710BDC046C91F0000FD
S1130320EC0300207604002079020020B5C8FFFF0A
S11303307C0200207404002070040020600200206D
S1130340E203002072040020E00300207B0200206E
S113035078020020C402002080040020D90100009B
S113036030B585B0144B1C880F2294431C80134B6A
S11303701B78134A12781349097813480078134DEF
S11303802D780295124D2D880195E408E4B200946D
S1130390104CA047104B1988104B18786422104B4E
S11303A09847104B1978104B1878104B9847104801
S11303B0104B984705B030BDEC03002074040020B6
S11303C0E203002060020020700400207B02002071
S11303D07C020020792D00007604002079020020A0
S11303E0F12B0000E0030020720400200D35000012
S11303F0C4020020212E000010B500230E4A136011
S11304000E4A13600E4A13600E4A136005E0990009
S113041000200D4A88500133DBB21E2BF7D900238C
S11304200A4A13700A4A13700A4A13600A4A13608C
S11304300A4B984710BDC046D4020020E8030020B0
S113044080020020D802002064030020E002002083
S1130450E4030020DC020020D00200205514000038
S1130460F8B5CE46474680B59D4B9847002800D145
S1130470A5E09C4B9847002800D194E09A489B4BF8
S113048098479B4B19689B48984CA0479A4B1978FE
S11304909A48A0479A4B19689A48A0479A4B1968FA
S11304A09A48A0479A4D29689A48A0479A4E3168BD
S11304B09A48A0479A4F39689A48A04731682B68F0
S11304C0C818994EB04701009848A047984B18881F
S11304D02B6858433968B04701009648A047964BAB
S11304E098461B6899466427180078432968B047E2
S11304F0020049469148A04743465B689946180064
S113050078432968B047020049468D48A0474346CE
S11305109B689946180078432968B0470200494609
S11305208848A0474346DB68994618007843296801
S1130530B047020049468448A04743461B69994690
S1130540180078432968B047020049467F48A0470D
S113055043465B699946180078432968B04702000E
S113056049467B48A04743469B699946180078430F
S11305702968B047020049467648A0474346DB69EC
S11305809846180078432968B047020041467248EB
S1130590A047724B54221A7004325A70383A9A7037
S11305A00024032321E06E4B9847002803D06D48B4
S11305B04E4B984765E76C484C4B984761E76B4B4B
S11305C0984700280BD1664B9847002803D0684809
S11305D0464B984755E76748444B984751E7664868
S11305E0424B98474DE70134E4B2A1B2504A128815
S11305F0D20891421ED2614A12681219117809096F
S11306005F4D685C5549C854581C80B216780F2257
S11306103240AA5C0A549A1C92B2202088540333B4
S11306209BB2372BDFD908000022CA542F4B9847BE
S11306300023D8E753482D4B9847484B52221A7051
S113064006325A70383A9A700024032301E00134C8
S1130650E4B2A1B2364A1288D20891421ED24A4A62
S11306601268121911780909454D685C3B49C85450
S1130670581C80B216780F223240AA5C0A549A1C85
S113068092B22020885403339BB2372BDFD9080061
S11306900022CA54154B98470023D8E73948134C15
S11306A0A0473A4D29783A48A0473A4E31783A481B
S11306B0A0473A4B19883A48A04731782B78CB1A8F
S11306C0D90FC91849103748A047374B1B78002B5E
S11306D003D10CBC90469946F8BD344B9847F8E7D3
S11306E04D350000593500002C59000069260000E2
S11306F0D0020020B85900003A0B0020CC59000069
S1130700DC020020E0590000D4020020F45900006B
S1130710E80300200C5A000080020020285A000040
S1130720D8020020445A000005410000585A000035
S1130730EC0300206C5A000064030020805A00007F
S1130740245B0000A05A0000C05A0000E05A0000D8
S1130750005B0000205B0000445B00007C0500207F
S1130760013500004459000064590000293000009C
S11307708459000098590000AC590000300B002047
S11307801C590000FC5D0000280B0020E002002042
S1130790645B0000E4030020785B0000220B00206F
S11307A08C5B0000A45B000078020020B114000000
S11307B010B584B00B4B1B680B4A12680B490968CF
S11307C00B48008803900B48007802900A48007890
S11307D001900A480068009009480A4CA04704B0F8
S11307E010BDC04680020020E8030020D40200208F
S11307F0220B0020E4030020E0020020D8020020A5
S1130800BC5B00006926000010B50E4B1B78002B62
S113081004D10D4B1B78002B08D00DE00B4B9847EF
S11308200AE00B4A1268D3540133DBB28342F8D393
S113083001000020074B9847074A136801331360EF
S113084010BDC046780200207B020020E1180000A1
S1130850300B0020552E0000D4020020F8B504000F
S1130860314B1F78002F1FD0304B984707000026CC
S1130870002F54D02E4A1368013313602D4A136895
S11308809B1913601D2E00D91E262B49B6007358E0
S11308905A1C7250294B1A78294B1A70294B1A7812
S11308A0294B1A703800F8BD01000020274B9847E7
S11308B0002500260AE0012215E049B200292BDBBD
S11308C0B318D9B20135EDB201270E00A542CFD23B
S11308D01F4B1B68595D1F4B1B78002BF2D16940DD
S11308E0CB07E8D400228B0701D50132D2B24B07E3
S11308F001D50132D2B20B0701D50132D2B2CB06F7
S113090001D50132D2B28B0601D50132D2B24B06E7
S1130910D3D50132D2B2D0E70132D2B2D0E70E4AF7
S1130920136801331360BDE77802002079160000D4
S1130930E8030020D802002064030020360B0020C6
S1130940E0020020240B0020E40300208D2E000090
S1130950280B00207B0200208002002010B5044BED
S11309601B78002B00D110BD024B9847FBE7C04613
S11309707802002085170000024A136801331360CF
S11309807047C046DC02002010B5074B1B78002BD3
S113099006D1064B9847064B9847064B984710BD1F
S11309A0054B9847F5E7C04678020020A1150000E2
S11309B0C52E0000F90300007D15000010B5054B9D
S11309C09847054B1B78002B00D110BD034B98476B
S11309D0FBE7C0468534000078020020951500002E
S11309E010B5084B9847084B9847084B9847084B55
S11309F01B78002B02D1074B984710BD064B984734
S1130A00F9E7C046E52A00009D02000061030000EA
S1130A107802002089090000E115000010B51C4B84
S1130A2004221A701B4A1268110C5970110A997029
S1130A30DA70194A11781971184A12785A71511AD0
S1130A40CA0F521852109A71154A1268110AD971B4
S1130A501A72002309210CE09800124A8458220AD1
S1130A600B4842544A1C92B28454023189B2013375
S1130A70DBB21E2BF0D90C4B1A68130A04484354FA
S1130A804B1C9BB2C254023189B2084B984710BD2B
S1130A90F0030020D8020020E0020020E40300203C
S1130AA0D40200206403002080020020E13C000006
S1130AB010B50348052303700121024B984710BD6C
S1130AC0F0030020E13C000070B50322244B1A70AF
S1130AD0244B1B78002B39D0234B1B78002B3BD0A5
S1130AE00325AD00214B1B78002B02D001231D43AD
S1130AF0EDB21F4B1B78002B02D020231D43EDB217
S1130B001C4B9847002803D080235B421D43EDB261
S1130B10134C65700025A570E57025716571164B41
S1130B201B88DB08A371154B19881548154B98478A
S1130B3083B21B0AE371C0B220726372A072E572C1
S1130B4025730D212000104B984770BD064B1B7870
S1130B50002B03D00025C4E70225C2E70125C0E726
S1130B60F003002072040020E0030020780200203B
S1130B707B02002065350000EC0300207604002091
S1130B801027000019420000E13C000010B5204B82
S1130B905B78990803220A40012A25D0002A1CD038
S1130BA0022A27D0032A2CD0012210001840194908
S1130BB008705B091340184A1370154B9A79D200D8
S1130BC016490A80D9791B7A19431548154B984759
S1130BD0154B1880154B984710BD0021144A11700D
S1130BE00131144A1170DFE7002211490A701149DA
S1130BF00A70D9E701210E4A117000210D4A1170C3
S1130C00D2E701220A490A700A490A70CCE7C046B1
S1130C10E4020020780200207B020020EC03002084
S1130C201027000019420000760400206103000030
S1130C3072040020E003002010B5214B9847010006
S1130C40204C2000204B98472378472B2ED00DD9D9
S1130C50722B22D017D9772B1AD07E2B2DD11B4B78
S1130C601B78002B1FD01A4B984706E02B2B17D06C
S1130C7004D8053BDBB2022B1FD810BD2D2B1CD191
S1130C80144B9847F9E7692B17D1134B9847F4E7AE
S1130C90124B9847104B9847EFE7114B9847ECE7F6
S1130CA0104B9847E9E7104B9847E6E700220F4BB3
S1130CB01A700F480F4B9847DFE7074B9847DCE75C
S1130CC041260000E4020020953C00007802002048
S1130CD0B10A0000BD090000C90A00008D0B000024
S1130CE0F9030000890900001D0A0000000000202B
S1130CF0D45B000069260000F0B5DE4657464E4638
S1130D004546E0B58FB0D34B9847002800D152E355
S1130D10D14B1B78002B02D0D04B9847F3E7D04B34
S1130D2098470A38C3B2742B00D940E39800CD4BDE
S1130D301B589F460122C84B1A70E4E7CA48CB4BA4
S1130D409847CB4B1B78002B57D0CA4B1988CA48FD
S1130D50C64CA047C94B1988C948A047C94B197844
S1130D60C948A047C94B1988C948A047C94B198825
S1130D70C948A047C94B1988C948A047C94B198815
S1130D80C948A047C94B1988C948A047C94B197815
S1130D90C948A047C94B1978C948A047C94B197815
S1130DA0C948A047C94B1978C948A047C948017820
S1130DB0427883780B93C5780679477983799C4682
S1130DC0C3799846037A9946437A9A46837AC07AD5
S1130DD008900793534606934B4605934346049362
S1130DE0634603930297019600950B9BBA48A0476C
S1130DF0BA4B1978BA48A04785E7BA489B4B98473D
S1130E00A3E7B94B98477EE7B848984CA047012020
S1130E10B74B9847964B1870B648A04773E7B64B44
S1130E20984770E7B54B984781B2944B1980944822
S1130E308E4B9847B24B9847B24B9847B24B984762
S1130E4061E7B24B98475EE7AC4B9847A34B1870E9
S1130E5059E7AA4B98470723984381B2854B1980D9
S1130E608548824B9847A64B9847A64B9847A64B74
S1130E70984748E7A24B9847A04B98472E2502ABCA
S1130E809C46654428800120A14EB0470100A1483A
S1130E90764CA0470020B04701009F48A04728880F
S1130EA09E4B9847020029889D48A0472BE79D4800
S1130EB06E4B9847944B984725E79B486B4B984754
S1130EC08F4B98471FE78E4B9847624B98470028F3
S1130ED0FBD0634B9847954A1070302808D03128CE
S1130EE00AD07A4B1B78002B0AD1874B98470AE724
S1130EF00022764B1A70F4E70122744B1A70F0E763
S1130F008B4B9847F1E77E4B9847524B9847002804
S1130F10FBD0534B9847854A107031281AD00CD90E
S1130F20322820D0332812D18248504B98470322CC
S1130F30544B1A70734B984709E0302807D17E4808
S1130F404A4B984700224F4B1A706E4B98476E4B92
S1130F509847D8E67948454B98470122494B1A707F
S1130F60684B9847F3E77648404B98470222454B35
S1130F701A70644B9847EAE772483C4B9847724BA7
S1130F809847C0E65E4B98474E4C23780122534065
S1130F9023705C4B984721786C48344B9847B2E6F1
S1130FA0574B98472E4EB047604C2070B047607046
S1130FB02E2502AB9C4665442A0065492000654BFA
S1130FC0994698472B881B02304F3B80B0472070CE
S1130FD0B04760702A005E492000C8473B882A88D1
S1130FE013433B80474B9847474B98478BE6444B0A
S1130FF098471B4DA8474D4C2070A84760702E257C
S113100002AB9C4665442A0051492000514B984745
S11310102A88204B1A803B4B98473B4B984772E6F3
S1131020374B98470E4DA847404C2070A847607036
S11310302E2502AB9C4665442A0045492000454BB9
S113104098472A88154B1A802E4B98472E4B984761
S113105059E6C0462D26000000000020390C00008F
S11310604D26000044570000E45B000069260000A0
S11310707A020020EC030020045C000076040020C7
S11310801C5C000079020020345C00007C0200201B
S11310904C5C000074040020645C000070040020B8
S11310A0805C0000600200209C5C0000E2030020E1
S11310B0B85C000072040020D45C0000E00300204F
S11310C0EC5C00007B020020005D00007802002040
S11310D0145D0000C4020020245D00008004002090
S11310E0705D0000F45B000019210000845D0000C5
S11310F065270000945D0000B1070000A5260000EC
S1131100BD090000610300008909000025210000D9
S1131110A52900009C5D0000B85D0000512A000074
S1131120D45D0000F05D0000005E00007C0500203E
S1131130E1150000385E0000105E00001C5E000037
S1131140285E0000445E0000F9030000045D000016
S11311505C5E0000F94500009A4B98479A4DA847F9
S11311609A4C2070A84760702E2502AB9C466544BB
S11311702A0097492000974B98472A88964B1A8053
S1131180964B9847964B9847BDE58E4B98478E4DA6
S1131190A8478E4C2070A84760702E2502AB9C4651
S11311A065442A008A4920008A4B98472A888D4B37
S11311B01A808A4B98478A4B9847A4E58A488B4BF8
S11311C09847804B98470122894B1A707E4B984769
S11311D07E4B1870302807D00122864B1A707F4B43
S11311E098477F4B98478EE50022824B1A70F6E7AA
S11311F081487E4B9847814B984784E5714B9847CB
S1131200182172487E4B984700240FE060006F4B12
S1131210C0182E2502AB9C4665442A006C496D4BD0
S113122098472A88774B1A550134E4B20B2CEDD930
S11312306A4B98476A4B984765E573486B4B9847E8
S1131240724B98475FE57248684B98475D4B9847E7
S1131250704B9847614B9847614B984753E56E48EC
S1131260624B9847584B9847584C20706B4B9847A3
S11312702378312B1AD00CD9322B20D0332B12D116
S11312804D20674CA0470B20A0476648574B984712
S113129009E0302B07D14D20614CA0470820A0471E
S11312A06148524B9847614B98472CE54D205C4C64
S11312B0A0470920A0475E484C4B9847F3E74D20D0
S11312C0574CA0470A20A0475A48484B9847EAE79A
S11312D03C4B98475848454B98470023444A137061
S11312E0444A13703D4B9847544B98473C4B98479E
S11312F009E5344B984752483C4B984700223C4BF5
S11313001A7001323B4B1A70344B98474B4B984739
S1131310334B9847F7E42D4B9A785A701A703F4B29
S113132098472A4B1B785D2B3ED0284B5B785D2B6E
S11313303AD0444B98470028FBD0234B9847234B83
S113134018705D28EDD03F4B98470028FBD01E4B0A
S113135098471E4B58702E2702AA944667443A00B9
S11313601B4918001B4B984738782D4B98470600AB
S113137085B23B8819090F221A402D090F203040ED
S1131380314C9200A218526889006118496802968B
S11313908000201840680190AD00641960680090D6
S11313A02A48124CA047BCE7204B9847ABE4284896
S11313B00E4B9847A7E40FB03CBC90469946A24612
S11313C0AB46F0BDBD0900004D2600007C050020A1
S11313D05C5E0000F945000060020020610300002B
S11313E089090000E2030020645E00006926000011
S11313F072040020E0030020785E00006104000015
S1131400953C0000C4020020885E00001501000025
S1131410985E0000D9010000A85E00003921000098
S113142055210000D05E0000B85E0000F9210000E4
S1131430C05E0000C85E0000D85E0000F903000032
S1131440E45E00002D26000000000020F05E000095
S11314500C5F000000230B4A13600B4A13600B4A15
S113146013600B4A13600B4A13600B4A13600B4A58
S113147013600B4AD3770B4AD3770B4AD3770B4AC3
S1131480D3777047780400207C04002044050020B2
S1131490D404002088040020840400209404002044
S11314A0200500209C040020F8040020D80400201B
S11314B010B582B0244B1B68244A12682449096879
S11314C02448254CA047254B1B68254A126825490A
S11314D009682548006800902448A047244B1968EF
S11314E04B688A68934210D0C968481E834207D06B
S11314F0501E83420AD0934205D2891A591805E036
S1131500002A03D0F4E7991A00E00021194B1A6865
S113151053689068984214D0D268541EA3420AD0EB
S1131520441EA34202D0984208D81A1A12480A4B01
S1131530984702B010BD0028F2D1F7E7121A9A18A2
S1131540F4E70022F2E7C04694040020840400205B
S113155088040020B8600000692600007804002098
S1131560440500207C040020D4040020EC6000002A
S11315708C040020980400203861000010B5034B4F
S113158098470022024B1A7010BDC046E540000087
S1131590BC04002010B5014B984710BDF540000075
S11315A00122084B1A700023074A1370074A13706C
S11315B0074A1370074A1370074A1370074A1370D7
S11315C07047C046D0040020BD0400204805002018
S11315D040050020BC0400209004002018050020D1
S11315E070B51E4B9847802080011D4B9847051EFF
S11315F02BD010201A4B9847041E22D005600023DC
S11316004360836080235B01C360164B1C608020B1
S11316108001134B9847051E1DD01020104B98478E
S1131620041E14D0056000234360836080235B01A3
S1131630C3600D4B1C6000220C4B1A700C4B984776
S113164070BD28000B4B9847DFE70024DDE7280036
S1131650084B9847EDE70024EBE7C04659400000EB
S113166039440000980400208C0400201D0500204B
S1131670A11500004D44000010B504000022324BB7
S11316801A70002808D1314A13680133136000220C
S11316902F4B1A70002010BD042100202D4B9847B9
S11316A02B4B1C702C4B1A6853782C49C95C9278CC
S11316B0914208D02A4A1368013313600022224B56
S11316C01A700120E7E7012214001C4025490C7020
S11316D059081140244801701B091340234A137010
S11316E003D1234B187800281DD1224B1B78002BE3
S11316F001D0002C03D1002B08D1002C06D10121EC
S1131700114A1170012253401A4A13701A4B1B6874
S1131710002B10D00C4B187800280CD0174A1368F3
S113172001331360B7E70E4A1368013313600022D4
S1131730054B1A70AFE7124A136801331360002295
S1131740014B1A700120A6E7180500207804002038
S1131750BC0400208D2E0000280B0020905F0000A8
S1131760D404002048050020BD0400201E050020EC
S1131770390B0020400500208C0400207C0400204C
S113178044050020F0B5C64600B5474B1C78002C34
S113179002D104BC9046F0BD21000420434B98477D
S11317A0434B1B78002BF4D1424B1B78002BF0D019
S11317B080229200404B1A60404B19684B688A683B
S11317C09A4210D0C868451EAB4207D0551EAB42A2
S11317D00AD09A4205D9801A181805E0002A03D0C5
S11317E0F4E7981A00E00020354DA84202D90025FC
S11317F0344805709A4210D0C868451EAB4207D0E1
S1131800551EAB420AD09A4205D9801A181805E031
S1131810002A03D0F4E7981A00E000202A4A9042F4
S113182002D80120274A1070264A1278002A1ED0B6
S11318309AB280267601B61AB6B2063C6510AAB2F0
S1131840964219D308685B00C018204B196804310C
S11318501F4A22401F4B9847184B1C682804000C51
S113186063689C466044E1681B4B98476160802232
S113187092001A4B1A608CE708685B00C018134B7F
S113188098461B68191D74002200124FB8470B4B71
S11318901B68186843461B68211D59182A04120C3A
S11318A0921B5200B847D7E7BC0400208D2E0000DD
S11318B01E05002018050020944400418C040020DB
S11318C0380F000090040020FF070000280B0020C0
S11318D0FEFF0100614400001142000098440041F1
S11318E0F0B5D6464F464646C0B50400674B1B7854
S11318F0002B03D0664A1278002A05D0002B29D188
S1131900634B1978002905D0614A137801214B40B3
S1131910137001215E4B1B78002B1DD100225D4BFF
S11319201B78002B02D002231A43D2B2002920D004
S1131930594B1D686B68AE68B34214D0E868451E05
S1131940AB420BD0751EAB420ED0B34209D2801B02
S1131950181809E00021DDE70122E0E7002E03D09A
S1131960F0E7981B00E00020844253D901204B4B40
S113197018704A4B1B78002B02D010231A43D2B2A2
S1131980474BFF201D682870186842704548825CE8
S1131990186882701B680022DA703F4B1B68002BAA
S11319A03CD000293AD0404A1368013313603B4BC2
S11319B01B78002B50D1802292003C4B1A60364B8E
S11319C01F68BB689AB280267601B61AB6B2A21F07
S11319D05510A9B28E4241D33149086804303968A0
S11319E05B00C918324B1A40324B98472A4B1E6889
S11319F02804000CB3689C466044F1682E4B984759
S1131A00B160802292002D4B1A60210000202C4BE3
S1131A1098470BE00020214B1870AAE7294A136865
S1131A200133136021000020254B98471CBC9046CD
S1131A309946A246F0BD1A4A12687F21D154013357
S1131A40DBB2A342F7D3204A1368013313602100A9
S1131A5000201B4B9847E9E70423F2E7104A126879
S1131A609146101D5B003A68D11873009A461A001B
S1131A70104B984698475346181D484439682A0421
S1131A80120C921B5200C047B0E7C046BD040020B0
S1131A90D004002040050020980400201C050020EC
S1131AA0300B0020905F0000880400209444004123
S1131AB0FEFF01006144000011420000984400410F
S1131AC0552E0000840400209404002070B5050005
S1131AD03F4C207801303F4B19783F4B9847C9B2AF
S1131AE021704A003D4BD5523D4B1B68002B18D04A
S1131AF0002916D1394A10885A68D96801398A42AE
S1131B0032D0996801398A4233D00021002908D1A2
S1131B105200196888525A6801325A60D9688A4258
S1131B2029D0304B1B68002B4DD0294A1278002A4B
S1131B3049D159689A68914220D0002000281FD0CA
S1131B40002429490C7028490978002934D0002838
S1131B5036D151001868095A01329A60D868824215
S1131B602FD100229A602CE099680029C9D1012163
S1131B70CCE70121CAE700225A60D2E70120DDE761
S1131B80914210D0DC68651EA94207D0551EA942B7
S1131B900AD0914205D2A41A0C1905E0002A03D0F8
S1131BA0F4E78C1A00E00024802109018C42CAD990
S1131BB001240D490C70C6E77F220C4B1A8002E009
S1131BC07F210A4B1980094B18880304184370BD00
S1131BD05402002080040020E5430000C0040020DB
S1131BE0980400208C040020910400201A05002091
S1131BF0094B1B689B0E3F2B09D0084A10688005CF
S1131C00800D074A904204D09B0218437047203B42
S1131C10F3E70448F8E7C0462460800028608000A9
S1131C20FF030000FF010000024BDB68DB06FBD56D
S1131C307047C046000800400F2318401202074BAB
S1131C401A400243064B9A600902F82252011140DD
S1131C5008438021490208435860704700FFFF0091
S1131C60000C0040C222D2000C4B9A600C494A6816
S1131C701E239A431A3B13434B600A4A9369082173
S1131C800B4393610122084B1A70074B1B78DB0747
S1131C90FBD4064A044B5A807047C04600080040F3
S1131CA00040004100040040000C004013400000CC
S1131CB0F8B506000D00164B9847164C6E23A38208
S1131CC0012205212800144FB8472D02F0231B01DF
S1131CD01D408023DB011D43104B5D800223A38440
S1131CE00F4DA8470F4B9847A062A8470E4BE362DD
S1131CF0A8470623A384A8478623A3840122072197
S1131D003000B847054B5B78DB09FBD1F8BDC04612
S1131D10651C000000080040391C0000000C004055
S1131D20291C0000F11B0000B9053F1CEFF30583DB
S1131D30014A1360FAE7C04644000020F8B5234A7C
S1131D40234B9A4209D0224B204A03E011681960C0
S1131D50043304321F498B42F8D31F4B02E00022A4
S1131D601A6004331D4A9342F9D31D4AFF211D4BC7
S1131D708B439360FD3990235B001B4AD1501B4A6F
S1131D80D3780325AB4302242343D370D3780C27A1
S1131D90BB4308263343D370154B987B30229043C2
S1131DA0202210439873997BB943314399739A7BEA
S1131DB0AA4322439A730F4A516880230B4353600A
S1131DC00D4B98470D4B9847FEE7C04690650000C1
S1131DD0000000201802002018020020D00D00206E
S1131DE000ED00E0000000000070004100500041E0
S1131DF00048004100400041F14300000527000075
S1131E000300064A1268002A04D0044A1068C31862
S1131E10136070470249014A1160F6E7340200205A
S1131E20D02D0020F0B5C64600B51B4B1A6A202100
S1131E300A431A62DA6910390A43DA61174B1A88BD
S1131E400225AA431A800F391980154A5A63154A84
S1131E509A63154A1A80002404703F269C55402238
S1131E609F5CAF439F5401279F540778313A9046B3
S1131E7017409F551F69027891408F431F610B499A
S1131E805964017842460A409A554D229D54846112
S1131E9004BC9046F0BDC046000400400048004128
S1131EA06802002038020020020F000000048000B5
S1131EB0038801221343038003880622934303808B
S1131EC0038812329343038003880C4A134003802F
S1131ED002888023DB00134303800388084A1340ED
S1131EE003800388074A134003800388DB04DB0C68
S1131EF00380054B83600023C3607047FFFCFFFF32
S1131F00FFF7FFFFFFEFFFFF280C00428369002B60
S1131F1002D1816104E0DB68DA68002AFBD1D96070
S1131F207047000010B5040093B280694380A36930
S1131F3052185A6023781B0106481818A169102208
S1131F40054B9847054940228B5C02200343DBB2D2
S1131F508B5410BD68020020614400000048004119
S1131F6070B5064C2000064B9847064D2800064BDA
S1131F70984729002000054B984770BD6005002054
S1131F80251E000050050020B11E00000D1F00009A
S1131F9010B50A0001000248024B984710BDC04624
S1131FA060050020251F0000064B5B6ADB07FBD59C
S1131FB0044B4E215A5C022002435A540021402211
S1131FC099547047004800410A4AD36904210B43DD
S1131FD0D3612022FF32084B1A83074B1B7DDB079A
S1131FE0FBD5054A5368DB061B0F5B0053609368FF
S1131FF093687047000400400040004130B50E4B28
S11320001B7DDB07FBD52024FF340B4B1C834008CE
S1132010002302E002339BB2200093420BD2441C03
S11320204000008880B2C854551EAB42F2DA5D1CF1
S1132030000A4855EEE730BD00400041064B1B7DC9
S1132040DB07FBD5044B2022FF321A8380084000B3
S1132050D861024A1A8070470040004102A5FFFF80
S113206070B5124B1B7DDB07FBD5114C0F4B1C804D
S11320700E4B1B7DDB07FBD52024FF340B4B1C834D
S11320804008002304E045002C8002339BB2013059
S1132090934209D2CD5CACB2561EB342F3DACC18EB
S11320A0647824022C43EEE770BDC0460040004132
S11320B044A5FFFF0122044B1A70044B0F32C021C8
S11320C049005A501A607047140A002000E100E0E9
S11320D00022054B1A70054B1032C02149005A509A
S11320E00139FF395A507047140A002000E100E01A
S11320F0024B1A68024B5A607047C0465061000098
S1132100000C0040034B1B6808201840431E9841F4
S1132110C0B27047204400410822014B1A60704746
S11321209C440041024B5A68024B5A607047C046B7
S113213050610000000C004010218023034AD1505C
S113214080225200024B1A607047C04600E100E052
S113215094440041064B1B7EDB07FBD5044B98627D
S1132160034B1B7E5B07FBD5014B986AC0B27047DB
S1132170000C004210B50C4B1B7EDB07FBD50B4B50
S113218098470B4B9847084B1B7EDB07FBD5064B48
S11321901B7E5B07FBD5044B9A6A5A8B04210A43C6
S11321A05A839A6A9B6A10BD000C0042911F00007A
S11321B0A91F000010B50F4B1B7EDB07FBD50022C7
S11321C00C4B9A620BE00B4B1B7E5B07FBD5094B58
S11321D000249C629B6A037001300132D2B24B1E10
S11321E09A42F0DB034B1B7E5B07FBD5014B9B6ADA
S11321F0037010BD000C004280225200044B1A6090
S1132200044B1B78002B02D0F03A034B1A60704742
S113221098440041140A002000E100E004230B4A22
S113222013600B4A136000220A4B1A8208E0102143
S1132230084B9973074B9B7BDB06FBD5013292B2AB
S11322400A2AF4D1063A044B1A60704788440041C4
S1132250944400410030004298440041F8B5CE4611
S1132260474680B572B6B54A116A08230B43136218
S1132270B34AB44B5A80B34B5B78DB09FBD1B24A07
S1132280B24B916819608021890259600121197348
S1132290D168AF4A9162196802220A431A60AB4BB3
S11322A0DB699B07FBD4AB4B9847AB4D80235B00AA
S11322B02B60AA4A1360A1498A69042413002343AA
S11322C08B61A74AA04B188A9082988A10821E7E3E
S11322D04420165480204001D0640026A14F976406
S11322E0984ADF6997601F6A5760022797605F6AA0
S11322F057609F6A964B9F620B6A184308629A4B19
S113230053809A4BA92252011A801E82A0225200A5
S11323101A831A8802210A4392B21A8094488021AF
S113232049030160934A116080210905016011602D
S1132330802109042960904A11602C6014601E8277
S1132340002208E01021894B9973884B9B7BDB06A4
S1132350FBD5013292B2894B9A42F3D104227F4BCE
S11323601A607D4980239B000B60834A136080239D
S11323701B010B60136008230B601360714E804ACD
S113238072806E4DA96940220A43AA617D4A506851
S1132390010019435160D1680B43D3607A48016846
S11323A07A4B1940A023DB010B4303601378022707
S11323B03B431370644BDB6A654CA362744B9847D0
S11323C0744BC62080001A581202120A8021C905D3
S11323D00A431A50C12189005A581202120AC02015
S11323E0000602435A50C522920094469A58FF2090
S11323F0814682433F38024360461A505A58484641
S113240082437F3802435A5062B64C22A35C0120B7
S11324100343A3543623E15C3D3A9143E154E25C27
S11324203A43D2B2E2544D21625C02436254E25C0C
S11324303E390A40E254E25C20210A43D2B2E2541B
S11324402B6A102213432B62534B7380F032534B8D
S11324505A60524BDB69002BFBD122224F4BDA60CE
S11324604E4BDB69002BFBD14D4A4C4B1A604B4B56
S1132470DB69002BFBD1494A538B10210B439BB2E0
S11324805383464BDB69002BFBD1314B47215A5C0C
S1132490012422435A5433201A5C0F2738390A4046
S11324A01A541A5C60252A43D2B21A5415301A5CA5
S11324B022431A5434269A5DBA439A559A5D0620EB
S11324C0844660460243D2B29A554A201A5C22439B
S11324D01A5435229E5CBE439E54985C6646304333
S11324E0C0B298544B26985D04439C55985C0140B7
S11324F09954995C2943C9B29954104A116A8023AA
S11325005B030B431362274B274A5A60274A1A621C
S1132510013A5A62198A802252000A431A821D4AD9
S113252080210905802011504A381870C0235B00AF
S1132530D15011600CBC90469946F8BD000400408F
S113254015400000000C004050610000000C0042E7
S113255000440041611F0000884400419844004148
S113256000080040E10400001C4600000030004266
S1132570084400411844004194440041DC05000033
S1132580054000000018004018180040FF8FFFFFAE
S1132590D120000000E100E01642000000100042DB
S11325A01600300000500042A71100008105000011
S11325B010B58024A400064B1C60064B9847064BBC
S11325C01C60064A116920230B43136110BDC046E9
S11325D098440041853000009444004100180040B4
S11325E010B5802212010C4B1A600C4B9B8A9B077E
S11325F0FBD50A4B586B0A4B18600A4B9847074B9C
S11326009B8ADB05FBD5054B18639A8A9B8A80223B
S11326101201054B1A6010BD98440041005000425D
S1132620100A0020CD1A00009444004110B5034B59
S11326309847431E9841C0B210BDC0465D3C00009F
S113264010B5014B984710BD5D3C000010B582B039
S11326506B46DC1D01212000024B9847207802B014
S113266010BDC046953C00000FB410B582B004AA5A
S113267002CA0192074C2000074B98472000074BE1
S1132680984781B22000064B984702B010BC08BCA2
S113269004B018477C0500208D4600004D4600001C
S11326A0E13C000010B582B06B46D81D00230370D6
S11326B001210E4B98470E4C06E022700134012193
S11326C06B46D81D094B98476B46DA791300303BAB
S11326D0DBB2092BF1D9002323706A46054904486B
S11326E0054B9847009802B010BDC046953C0000C9
S11326F07C05002080610000F945000070477047A8
S11327007047704710B5052100200E4B98470E4BBB
S113271098470E4B5822995C012001439954592142
S11327205A5C02435A540D313C229954084B984741
S1132730084B9847084B9847084B9847084B9847CD
S1132740FCE7C046B11C00005D22000000440041CB
S1132750C5350000193C00008D380000E109000077
S1132760F90C0000F8B504007E4B98477E4B98475F
S1132770002C17D17D4B984740207D4DA847002061
S1132780A8474120A8470020A8473320A847002095
S1132790A8470500774B9847092D0CD0002C05D18C
S11327A02000F8BD7448754B9847E3E77448734BB1
S11327B098470024F4E7002C10D1002C12D16B4B65
S11327C0984740206A4DA8478020A8474120A84741
S11327D00020A84700226B4B1A8210E06A48674B1E
S11327E09847EAE76948654B9847E8E71021654B45
S11327F09973644B9B7BDB06FBD5013292B20A2AA8
S1132800F4D1634B984705004020594EB04700204F
S1132810B04700225B4B1A8208E01021594B997390
S1132820584B9B7BDB06FBD5013292B20A2AF4D1CA
S1132830574B9847070040204D4EB0470020B04703
S11328404C4B9847BD4206D3002CA9D04C484B4B67
S113285098470024A4E7002C12D1444B9847442005
S1132860434DA8470020A8474520A8470020A84773
S11328705F20A8470020A8470022424B1A820CE0A0
S113288041483E4B9847E8E710213E4B99733D4B36
S11328909B7BDB06FBD5013292B20A2AF4D11F20BE
S11328A0334DA8470020A8470500324B9847002C19
S11328B009D1EB070BD4002C00D171E730482F4B22
S11328C0984700246CE733482C4B9847F1E7002CD9
S11328D00BD1002C0DD1AB070FD4002C00D15FE736
S11328E02748264B984700245AE72748234B984704
S11328F0EFE72948214B9847EDE7002C0BD1002C3A
S11329000DD16B070FD4002C00D149E71C481B4B99
S11329109847002444E71C48184B9847EFE71F48A2
S1132920164B9847EDE7002C0BD1002C0DD12B074B
S11329300FD4002C00D133E71148104B98470024E2
S11329402EE711480D4B9847EFE715480B4B984776
S1132950EDE7002C01D1012422E70B48074B9847EF
S11329601EE7C046D12000001D22000039210000CE
S113297055210000F921000094610000692600003F
S11329809C61000000300042A4610000A8610000C6
S113299005210000B4610000C0610000CC610000AA
S11329A0D8610000F8B50400254B9847002C15D0D9
S11329B05F20244CA0472020A0470E20214CA04794
S11329C00020A0470F239843C6B21F201D4CA047E8
S11329D00020A0470307F8D5002419E05F20194C14
S11329E0A0470020A047E8E71021174B9973164B26
S11329F09B7BDB06FBD5013292B20A2AF4D11F205D
S1132A00104FB8470020B84703060ED40134E4B28F
S1132A100F2C0AD8250035434E200A4FB84728000A
S1132A20B8470022084B1A82E7E75F20054CA0470D
S1132A300420A047054B98470F202840F8BDC04606
S1132A40392100005521000000300042F921000026
S1132A5070B5FA239B005843A021C9011C4B984729
S1132A60C3B2DB43DBB20F221A401A498A5C12015B
S1132A701B09CD561543EDB2174B98475F20174CF1
S1132A80A0470020A0471F20144CA0470020A047C7
S1132A900307F8D55E20114CA0472800A0475F200B
S1132AA0A0478020A04701200C4CA0470020A0474D
S1132AB00306F8D51E20094CA0470020A0470500B6
S1132AC05F20A0470420A047054B9847280070BD0D
S1132AD005410000846100003921000055210000F7
S1132AE0F921000010B5364B98474020354CA047DB
S1132AF00020A0474120A0470020A0474C20A04729
S1132B000020A0474D20A0470820A0475020A04700
S1132B100020A0475120A0470020A0475220A047F2
S1132B20BD20A0475320A047BD20A0475420A04764
S1132B30BC20A0475520A047BC20A0475620A04752
S1132B40BB20A0475720A047BB20A0475820A04740
S1132B50BA20A0475920A047BA20A0475A20A0472E
S1132B600020A0475B20A0470020A0474E20A0479C
S1132B70F620A0475C20A0471B20A0477120A04757
S1132B800220A0477620A0478020A0477720A047B6
S1132B900520A0470C4B984700230C4A13700C4A9D
S1132BA013700C4A137001210B4A11700B490C4A23
S1132BB011600C490C4A11600C4A137010BDC046D8
S1132BC03921000055210000F9210000340B0020B8
S1132BD03B0B0020200B00202D0B0020180A0020A6
S1132BE0280B0020A00A0020300B0020390B002005
S1132BF070B50D0016003B4B1870012853D0002807
S1132C0057D0022851D0032851D0032853D002288A
S1132C105AD029003448354B9847354B1880324AEE
S1132C207243D20D334B1A80334B98472D4B1B788C
S1132C30002B51D1314B1C704420314CA0472F4BF9
S1132C401878A0474720A047294E3078A04746204F
S1132C50A0473088000AA0474B20A0472020A04767
S1132C606D20A047234E3078A0476C20A0473088C1
S1132C70000AA0474920A047FF20A0474020A047C2
S1132C800020A0474120A0470020A0471D4B9847A3
S1132C9029001D48154B984780B2002800D1013007
S1132CA01A4B984770BD0024AFE74024ADE7C02419
S1132CB0ABE70400A9E72900802000020B4B9847EA
S1132CC020380B4B1880AAE7290080200002074B0C
S1132CD09847074B1880A2E738231C43074B1C7006
S1132CE0AAE7C0469C0A002000803801194200006F
S1132CF03C0B0020980A002039210000350B0020ED
S1132D0055210000F921000000007102FD26000099
S1132D10F8B5134B1B78012B1BD0124B1E883618A9
S1132D2036B2114B98474720104DA847F7173B0E72
S1132D30F018FF242040C01AC0B2A8474620A84774
S1132D402000384080190012C0B2A847084B9847A9
S1132D50F8BD044B1E88074C6043361836B2E0E7D2
S1132D609C0A00203C0B0020392100005521000062
S1132D70F921000071020000F0B585B000900191C6
S1132D80029203930AAB1F780BAB1E880CAB1B7823
S1132D901E4A17701E4C23701E4B984773201E4DFD
S1132DA0A8470398A8477C20A8473800A8477D2057
S1132DB0A8473800A8477420A847300AA8477520B8
S1132DC0A847F0B2A8476920A8470098A8476A20F6
S1132DD0A8470198A8476B20A8470298A8472378DA
S1132DE0002B0DD170200C4CA0470020A04772206E
S1132DF0094CA0471A20A047084B984705B0F0BDDE
S1132E007020054CA0471020A047F0E7380B0020A5
S1132E102C0B00203921000055210000F92100006D
S1132E2070B50500084B9847D020084B98470024FC
S1132E3004E0285D054B98470134E4B20B2CF8D923
S1132E40034B984770BDC04639210000552100004E
S1132E50F921000070B505000C00074B9847FF20CE
S1132E60064B9847611BC9B205482818054B98477B
S1132E70054B984770BDC04639210000552100001C
S1132E80A00A002075210000F921000070B505009A
S1132E900C00074B9847BF20064B9847611BC9B2EB
S1132EA005482818054B9847054B984770BDC04600
S1132EB03921000055210000180A0020B521000026
S1132EC0F921000070B50122454B1A700022454BD0
S1132ED01A70454B9847454B98474420444CA047AB
S1132EE0444B1878A047444B9847444B1B78002B1D
S1132EF02FD1434B1B78002B13D0012B1BD03B4B02
S1132F0098473D4B98473E4B1B78012B50D03D4B87
S1132F1098473A4B1B78002B5ED101223A4B1A702A
S1132F2070BD324B98475F20314CA0472020A0470A
S1132F30314B9847E3E72D4B984740202C4CA04752
S1132F400020A0474120A0474020A0472A4B984793
S1132F50D5E7264B98474520254CA0470120A0479C
S1132F604020A0475820A0474120A0472020A04748
S1132F70234B1B78002B0BD0012B0FD01E4B9847F3
S1132F80224B1B78002B0FD10122214B1A70B6E77C
S1132F905F20174CA0472420A047EFE75F20144C84
S1132FA0A0471420A047E9E70022194B1A70A6E7AE
S1132FB0184D2878184B98470C4B98471F200C4CF9
S1132FC0A0470120A047FF20A04729781348144BAD
S1132FD09847094B98479AE7124B98479DE7C04694
S1132FE02E0B00209A0A0020F12000003921000055
S1132FF055210000350B0020F92100009C0A002017
S11330002D0B0020B5200000200B0020340B0020E5
S1133010210B0020380B002009080000A00A002022
S11330207521000001270000014B18787047C04645
S11330302D0B002070B50F4D28700F4B9847302092
S11330400E4CA0470020A04704002B78002B09D089
S113305070200A4DA84708239C43E0B2A847084BB8
S1133060984770BD7020054DA84708202043C0B282
S1133070A847F4E72D0B002039210000552100005A
S1133080F921000070B5C24B98470120C14DA847F3
S113309004000020A8470500BF4B9847E3071DD54F
S11330A00122BE4B1A70630628D50122BC4B1A704C
S11330B0BC4A137801214B401370BB4B1B78002B87
S11330C058D1BA4B9847B24B9847B94B1B78002B51
S11330D008D0012B0CD0B04B98474BE00022AF4BEB
S11330E01A70E0E75F20AB4CA0472420A047F2E72A
S11330F05F20A84CA0471420A047ECE718232342E4
S113310002D1AB0600D47BE10222A54B1A70A64B78
S11331101B78002B06D0A64B1B78002B36D0012B36
S113312000D1F3E0A34B1B78002B07D0A04B1B78F6
S1133130002B00D002E101209F4B98470022994BBD
S11331401A70934B98479A4B1B78002B00D1F9E0E7
S1133150012B00D1FCE0994B1B78032B00D1FDE03F
S1133160002B00D004E18C4B9847944B1B78032B25
S113317000D107E1864B98470120864CA0470020E8
S1133180A047854B98478E4B984770BD8D4B1B7855
S1133190002B5BD0012040428B4B98477C4B9847D7
S11331A003207C4CA0470020A04704007A4B98479A
S11331B02000864B98470500824B1B78002B49D092
S11331C00022834B1A70824B1B78642B0FD9794BE6
S11331D01B78002B03D07F4B1B78002B07D10122D7
S11331E0784B1A7000227A4B1A707B4B9847684BC5
S11331F098472020674EB0470020B04780B20002B5
S113320084B22120B0470020B04780B20443640850
S1133210002D2AD1604B9847002D59D0654B1B785F
S1133220002B03D06B4A1278002A51D1654A1278D8
S1133230002A2AD00021634A1170002B4CD10122AC
S1133240664B1A700120604B984745E000205E4BA6
S11332509847A3E7002803D000225D4B1A70B2E719
S11332605B4A137801331370ADE72220494EB0470F
S11332700020B0475A4B18702820B0470020B047B0
S1133280584B1870584B1C80C4E7544B1B78002BC8
S113329017D1564B9C4209D8632C0ED801204042CA
S11332A0494B984701224D4B1A7015E00120464BBB
S11332B098470122494B1A700EE00020424B984770
S11332C00AE00022454B1A7000203F4B984703E068
S11332D03C4B1B78002B12D0364B1B78002B00D1B3
S11332E020E72B4B98471F202A4CA0470120A047DA
S11332F0294B98473E4B18783E4B984712E70022DB
S1133300364B1A700020304B9847E5E700202E4BCF
S11333109847284B1B78002B0DD11D4B98471F2035
S11333201C4CA0470120A0471B4B9847304B1878F2
S1133330304B9847F6E6304B9847F3E600201E4B97
S11333409847FBE65F20134CA0472420A04702E7E0
S11333505F20104CA0471420A047FCE640200D4CF1
S1133360A0475820A0474120A0476020A047FAE684
S11333704020084CA0475820A0474120A0472020C7
S1133380A047F0E61D4B98470022074B1A70F1E660
S11333903921000055210000F9210000390B0020DB
S11333A03A0B00209A0A00202E0B0020F120000086
S11333B02D0B0020340B0020353000009C0A002027
S11333C0FF260000210B0020112D00005D080000E5
S11333D0370B00203B0B0020790900009B0A0020DA
S11333E0360B0020240B0020220B0020D502000005
S11333F0380B0020090800005D09000025210000A9
S11334006B0600D4B6E6174B1B78032B02D0002BB7
S113341000D0AFE60321144A1170002B0ED1134BD8
S11334201B78012B00D0A5E6114B98475F20114C67
S1133430A0471020A047104B98479BE60F4B984796
S113344001220F4B1A700A4B98474020094CA047A1
S11334505820A0474120A0472020A047064B98476A
S113346088E6C0469C0A00203A0B00202D0B002061
S11334703921000055210000F9210000F12000004D
S11334802E0B002010B50022154B1A70154B9847CF
S1133490154B9847154B98474520154CA0470020DD
S11334A0A0474420A0470020A0474020A047002078
S11334B0A0474120A0470020A0475F20A047042048
S11334C0A0475F20A0470320A0470A4B98470A4B18
S11334D01B78002B00D110BD0020084B9847FAE759
S11334E0200B002003270000D12000003921000018
S11334F055210000F9210000340B00203530000074
S1133500014B18787047C046210B002010B50B4BB7
S113351018700B4B197000220A4B1A70002805D141
S1133520002907D10020084B984710BD0020064B06
S11335309847FAE70120044B9847F6E7340B00203C
S11335403B0B0020210B002035300000014B187884
S11335507047C046340B0020014B18787047C046B2
S11335603B0B0020014B18787047C046200B00200D
S113357010B50F4B0F4A1A6058680F4C2040C022F8
S113358092050100114359600C49196159692140A0
S11335900A435A615969802212060A435A61084B48
S11335A010210A22FF3299540131093A995410BD6D
S11335B0880B002010080020FFFFFF8FFC0500206F
S11335C00050004170B5204AD36920210B43D361D8
S11335D01E4A1F4B5A8001221E4B1A701D4B9B78AA
S11335E0DB07FBD402221B4B1A701A4B9B789B07F8
S11335F0FBD4194B1A68510B1F230B401F2B1DD0F2
S1133600910C1F2008401F281AD0D10D07220A4010
S1133610072A17D09B010343120313430D4C238540
S11336200E4B1A7852010E4D002128000D4B98477D
S11336306562082323830C4B984770BD1A3BDFE770
S11336400238E2E7043AE5E70004004006400000DF
S1133650000C004000500041246080000C63000016
S1133660880B0020734400007135000080235B4206
S11336701843C0B2014B98727047C04600500041D5
S113368030B543B2002B15DB3F231840082A4ED92E
S1133690102A67D9202A67D9402A67D9802A67D98E
S11336A0C1339A4266D90133FF339A4264D8FB3B53
S11336B0FF3B3DE03F231840082A12D9102A2CD999
S11336C0202A2CD9402A2CD9802A2CD9C1339A42B9
S11336D02BD90133FF339A4201D9072202E0062293
S11336E000E000224401254B1B195C691207244D9C
S11336F02C4022435A610131224C08304001035DC1
S113370007220A40120170218B431900114301550D
S1133710A4466044A223037123E00122E2E70222CB
S1133720E0E70322DEE70422DCE70522DAE70023F0
S11337304401124A121954681B07114D2C402343AB
S1133740536001310F4A08304001835C0724214053
S1133750A3431943815494466044402343712F3B4F
S1133760037130BD0123E3E70223E1E70323DFE72D
S11337700423DDE70523DBE70723D9E7880B0020D3
S1133780FFFFFF8F00500041030042B2002A0CDB10
S11337903F2018400B4A08304001831840215971DA
S11337A0835C39398B43835470473F201840054A62
S11337B008304001831880211971835C10398B43D0
S11337C08354F1E700500041F0B50F4E4301F41863
S11337D06568920412090D4F3D402A436260626895
S11337E0920B95036560995108304001084A94464C
S11337F060440522C271074A9446634401221A7048
S1133800402303710020F0BD880B0020FF3F00F02F
S11338100050004109510041F0B53F2420404501CA
S1133820114E76197769DB077F007F083B4373618C
S113383077690E4B3B40736173699204920C9B0B46
S11338409B031A437261316108304001084B9C4666
S113385060440A23C371074B9C46654402232B70C2
S11338607E3343710020F0BD880B0020FF3F00F041
S1133870005000410951004143010348C018406809
S11338808004800C7047C046880B00208022044BC3
S11338901A60044A138901218B4313817047C0467F
S11338A000E100E0005000410D4B59680D4A114001
S11338B0802252030A435A605A68920B910359605A
S11338C0094A1A60094B05210822FF329954043928
S11338D00A22FF3299543F31053A99547047C04641
S11338E0880B0020FF3F00F010080020005000412A
S11338F00F4B5969802212060A435A6159690D4ACD
S11339000A405A615A69920B9203104358610A4A59
S11339101A610A4B0A210822FF32995408390A22F3
S1133920FF3299547E310622FF3299547047C046C3
S1133930880B0020FF3F00F0FC05002000500041F0
S113394030210623FF33014AD1547047005000410F
S113395070B5294A138C9BB21E00928B120710D4A7
S1133960DB070CD5244A0823FF33D45CE4B21321CB
S1133970D154E3060DD4E30712D4A30713D40124CE
S113398019E008221C4B9A831C4B98471C4B984700
S113399030E01C4A1C4B03CB03C21C4B9847EAE79C
S11339A01B4B9847E9E71B4B9847E8E7E0B21A4BF3
S11339B0984717E00134194B1B789C4218DA01230D
S11339C0A3403342F6D0230008335B010A4A9446ED
S11339D06344DD79EDB26301114A944663441D707A
S11339E0AB07E3D4EB07E5D5E0B20E4B9847E1E72C
S11339F00D4B984770BDC046005000417135000022
S1133A00913A00000808002010080020FD3D000045
S1133A103D3F0000593F0000853D00000C6300005D
S1133A2008510041093D0000093B000030B589B050
S1133A3000241CE0A1000919CD170722100028401A
S1133A404018C0106D0F4B1913405B1B0C4A825C6D
S1133A501A410C49415C0820C31A99400B001343D6
S1133A601F221340084AD25C01AB1A550134192CA9
S1133A70E0DD01A800238376044B984709B030BDEC
S1133A800CA080000DA08000E46100009D3F0000B8
S1133A907047000010B5144BDC885B782E2B02D0E5
S1133AA0124B984710BD104B9B88042B04D0052B58
S1133AB010D00E4B9847F5E7282C00D92824220073
S1133AC00B490C480C4B9847E0B20C4B98470C4BF5
S1133AD09847E7E78E2C00D98E2422000449283128
S1133AE00448054B9847EFE70808002041390000D7
S1133AF008620000FC05002061440000F138000069
S1133B00A9380000704770477047000010B50028BE
S1133B1003D0012808D0002005E001200A4CA0476A
S1133B208120A047012010BD402203210120074C21
S1133B30A047402203218120A047402204490120BC
S1133B40044B98470120EEE78937000081360000D6
S1133B50400B0020C9370000084341424841C0B22D
S1133B607047000010B5140002280CD0032811D0AF
S1133B70012801D0002010BD204B383313600029E8
S1133B8035D11130F7E71D4B4C331360002930D188
S1133B902020F0E703291CD008D801290FD013D81E
S1133BA0164B6C33136023681878E4E7052919D0A1
S1133BB013D3EE291FD1114B70331360F3E7104870
S1133BC0104B98472060EEE70F480E4B9847206053
S1133BD0E9E70E4B98472060E5E70D48094B984705
S1133BE02060E0E70B48074B98472060DBE70020A4
S1133BF0C1E70020BFE70020BDE7C046886200009F
S1133C00106300009D3F0000286300002D3A00006F
S1133C103C6300005C63000070B58020C0000C4B66
S1133C209847051E12D01020094B9847041E09D04E
S1133C3005600023436083608023DB00C360054B81
S1133C401C6070BD2800044B9847F8E70024F6E791
S1133C5039440000840B00204D4400000C4B1968CB
S1133C604B688A68934211D0C868411E8B4207D0C2
S1133C70511E8B4202D0934205D3981A80B27047EA
S1133C80002AF5D1FAE7801A1818F7E70020F5E7BB
S1133C90840B002070B500230CE0012614E01668A4
S1133CA0345D2C70946801349460D568AC4210D0B3
S1133CB001339BB28B420FD2084A1268C51894682C
S1133CC05668A642E9D00026002EE8D07F222A704A
S1133CD0EEE700249460EBE770BDC046840B00203F
S1133CE010B50A000121064B19700123010081203F
S1133CF0044CA047024B1B78002BFBD110BDC046DF
S1133D00800B00201938000070B50500194B984746
S1133D100400012D00D070BD402217490120174B2B
S1133D209847002208E09968002910D1012113E086
S1133D30012111E00132D2B29442ECD9104B1B683C
S1133D400D498D5C5868D96801398842EBD099686F
S1133D5001398842ECD000210029EBD119680D54B7
S1133D60596801315960D8688142E3D10021596012
S1133D70E0E7C04679380000400B0020C937000056
S1133D80840B0020012804D10023024A1370024A44
S1133D901370704748020020800B002070B5114B4F
S1133DA01C88402C00D9402426000F4D0F4B196865
S1133DB0220028000E4B984700232200290080206F
S1133DC00C4DA847002C09D0064A13881C1B1480EC
S1133DD0064A13689C466644166070BD064B9847B5
S1133DE0F2E7C04602080020FC0500200408002079
S1133DF06144000019380000A938000010B582B0F1
S1133E003F4B1B7860221A4276D13D4B5B780B2BDB
S1133E106FD89B003B4AD3589F463B4B00221A70F5
S1133E205A700220394B9847394B984766E0002076
S1133E30364B9847364B984760E00020334B984701
S1133E40334B98475AE02E4B5988080AC9B20023CD
S1133E50019301AA2F4B984700281AD001990029F1
S1133E6017D0274AD288904200D80200264B9942A4
S1133E7006D0294B1A80294B1960294B98473DE0FD
S1133E800021254B198001231F498020254CA04780
S1133E9034E0254B984731E0244B1A781A4B1A70BA
S1133EA001201A4B98471A4B984727E0144B9878EF
S1133EB01F4B9847002809D00020144B9847104BFB
S1133EC09A781A4B1A70124B984717E0164B98477A
S1133ED014E00B4B59889888164B9847002805D056
S1133EE000200A4B98470A4B984707E00E4B984727
S1133EF004E00D4B984701E00F4B984702B010BD0A
S1133F000808002078630000FC050020F138000058
S1133F10A9380000653B00000208002004080020C6
S1133F209D3D00001938000041390000C80D0020F3
S1133F300D3B0000593B0000953A000010B5044BBE
S1133F401B7860221A4200D110BD024B9847FBE750
S1133F5008080020073B000010B50C4B1B786022BA
S1133F601A420FD1094B5B78052B04D0062B0BD1D9
S1133F70074B984708E0054B5B887F201840054BAA
S1133F80984701E0044B984710BDC046080800203C
S1133F909D3D00006D360000053B000070B5050036
S1133FA00B4B984780B2FF2800D9FF20094A431CD5
S1133FB05B00137003235370002305E0E95C5C008D
S1133FC0044A1219518001338342F7DB014870BD62
S1133FD04D460000FC0500204000C3B20A0A01203F
S1133FE0104018431A4B187059703422194B5A62F6
S1133FF0184B1B7EDB07FBD5164B5B8B5B0711D481
S11340000022012A1CDC124B985C28231149C85455
S1134010104B1B7EDB07FBD50E4B5B8B5B0708D479
S11340200132EEE70B4A5168C0239B020B435360F5
S11340300CE0084A5168C0239B020B43536005E01F
S1134040044A5168C0239B020B4353607047C04627
S1134050500200200010004270B500221F4B1A824B
S113406008E010211D4B99731C4B9B7BDB06FBD591
S1134070013292B2642AF4D100210F20184CA047D7
S11340801825FF3529000020A04729000120A0475A
S1134090D93529000220A04729000320A047142174
S11340A00420A04706210520A04702210620A0479E
S11340B042210720A04700210820A0470022074BE7
S11340C01A8208E01021054B9973044B9B7BDB0695
S11340D0FBD5013292B20A2AF4D170BD00300042FD
S11340E0D93F000010B501210920014B984710BDAC
S11340F0D93F000010B500210920014B984710BD9D
S1134100D93F0000002243088B4274D303098B4239
S11341105FD3030A8B4244D3030B8B4228D3030C93
S11341208B420DD3FF22090212BA030C8B4202D335
S11341301212090265D0030B8B4219D300E0090A5D
S1134140C30B8B4201D3CB03C01A5241830B8B4266
S113415001D38B03C01A5241430B8B4201D34B034F
S1134160C01A5241030B8B4201D30B03C01A5241B4
S1134170C30A8B4201D3CB02C01A5241830A8B4239
S113418001D38B02C01A5241430A8B4201D34B0222
S1134190C01A5241030A8B4201D30B02C01A524186
S11341A0CDD2C3098B4201D3CB01C01A524183093A
S11341B08B4201D38B01C01A524143098B4201D374
S11341C04B01C01A524103098B4201D30B01C01A9F
S11341D05241C3088B4201D3CB00C01A5241830819
S11341E08B4201D38B00C01A524143088B4201D346
S11341F04B00C01A5241411A00D2014652411046A6
S11342007047FFE701B5002000F0F0F802BDC0469A
S11342100029F7D076E7704703460B437FD400228A
S113422043088B4274D303098B425FD3030A8B4246
S113423044D3030B8B4228D3030C8B420DD3FF22B0
S1134240090212BA030C8B4202D31212090265D07E
S1134250030B8B4219D300E0090AC30B8B4201D331
S1134260CB03C01A5241830B8B4201D38B03C01A78
S11342705241430B8B4201D34B03C01A5241030BEF
S11342808B4201D30B03C01A5241C30A8B4201D3A0
S1134290CB02C01A5241830A8B4201D38B02C01A4B
S11342A05241430A8B4201D34B02C01A5241030AC2
S11342B08B4201D30B02C01A5241CDD2C3098B42A7
S11342C001D3CB01C01A524183098B4201D38B0124
S11342D0C01A524143098B4201D34B01C01A5241C7
S11342E003098B4201D30B01C01A5241C3088B420C
S11342F001D3CB00C01A524183088B4201D38B00F7
S1134300C01A524143088B4201D34B00C01A524198
S1134310411A00D201465241104670475DE0CA0F6F
S113432000D04942031000D34042534000229C462F
S113433003098B422DD3030A8B4212D3FC22890139
S113434012BA030A8B420CD3890192118B4208D30F
S1134350890192118B4204D389013AD0921100E071
S11343608909C3098B4201D3CB01C01A5241830985
S11343708B4201D38B01C01A524143098B4201D3B2
S11343804B01C01A524103098B4201D30B01C01ADD
S11343905241C3088B4201D3CB00C01A5241830857
S11343A08B4201D38B00C01A5241D9D243088B42AD
S11343B001D34B00C01A5241411A00D20146634650
S11343C052415B10104601D34042002B00D54942B4
S11343D0704763465B1000D3404201B5002000F0F3
S11343E005F802BD0029F8D016E770477047C046AB
S11343F070B500260C4D0D4C641BA410A64209D1C7
S1134400002602F0B5F80A4D0A4C641BA410A6421B
S113441005D170BDB300EB5898470136EEE7B30001
S1134420EB5898470136F2E77C6500007C65000094
S11344307C6500008065000010B5034B010018681E
S113444000F06AF810BDC0464800002010B5034BC8
S11344500100186800F016F810BDC046480000209E
S1134460002310B59A4200D110BDCC5CC454013372
S1134470F8E703008218934200D1704719700133A2
S1134480F9E7000070B50500002910D00C1F23685F
S1134490002B00DAE418280000F004F91D4A136820
S11344A0002B05D163601460280000F0FCF870BD97
S11344B0A34209D9216860188342F3D118685B6864
S11344C041182160EEE713005A68002A01D0A24285
S11344D0F9D919685818A0420BD12068091858183E
S11344E019608242E0D110685268411819605A601C
S11344F0DAE7A04202D90C232B60D5E721686018C3
S1134500824203D1106852684118216062605C6085
S1134510CAE7C04658020020032370B5CD1C9D4352
S1134520083506000C2D1ED20C25A9421DD83000DA
S113453000F0B8F8254A14682100002919D1244C48
S11345402368002B03D1300000F044F820602900D8
S1134550300000F03FF8431C2CD10C2330003360B2
S113456000F0A1F803E0002DDFDA0C233360002013
S113457070BD0B685B1B1AD40B2B03D90B60CC18D2
S1134580256003E08C420ED163681360300000F0B4
S11345908AF8200007220B30231D9043C31AE7D06A
S11345A05A42E250E4E74B6863600C00EEE70C000B
S11345B04968C2E70323C41C9C43A042E0D0211AEB
S11345C0300000F007F8431CDAD1C6E75802002097
S11345D05C020020002370B5064C0500080023602F
S11345E0FDF70EFC431C03D12368002B00D02B6085
S11345F070BDC046CC0D00200EB4812370B59DB0B3
S113460002AC21AD9B0040CDA3810290069000F046
S11346101DF80B4B606063620023606109486363AB
S1134620A364013BE38132002B0021000068019563
S113463000F0FCF91DB070BC08BC03B01847C046BC
S11346404946000048000020002070470023C25C57
S11346500133002AFBD1581E7047000030B59BB0CF
S11346600091049108496D4602910591012182242B
S11346704942E981A4006946AC8100F077F800233F
S1134680009A13701BB030BDFFFFFF7F10B51300FD
S11346900A00010002480068FFF7E0FF10BDC046B1
S11346A04800002070477047F0B58E6885B0070059
S11346B00C00039201939E4239D890238A89DB002F
S11346C01A4234D00325096923685B1A029363698B
S11346D002985D43EB0F5D19019B6D1001331B18AC
S11346E0AB4200D91D00530532D529003800FFF72D
S11346F013FF061E09D10C233B6040230120A2892D
S113470040421343A38105B0F0BD029A2169FFF72B
S1134710A7FEA389144A1A4080231343A381029B52
S11347202661F61826606561019EED1AA560019B5D
S1134730B34200D21E0032000399206800F0B5FF96
S1134740A36800209B1BA36023689E192660DAE7F8
S11347502A00380000F0BBFF061EE0D121693800B2
S1134760FFF790FEC7E7C0467FFBFFFFF0B59FB0A1
S1134770029005938B890F0016001B0611D50B6957
S1134780002B0ED14021FFF7C7FE386038610028A6
S113479005D10C23029A013813601FB0F0BD4023E9
S11347A07B61002306AD6B6120336B761033AB76EF
S11347B034002378002B47D1A31B04930DD0A31BF3
S11347C0320039000298FFF76FFF431C00D1B5E0B7
S11347D06A69049B944663446B612378002B00D17F
S11347E0ACE00122002352426A6002A954325218FA
S11347F001342B60EB60AB601370AB65584E05223F
S11348002178300000F046FF621C002820D129687E
S1134810CB0604D5532302AE20309B1918700B0726
S113482004D553232B2002AE9B19187023782A2B0E
S113483016D000200A21099B2278303A092A55D93A
S1134840002815D0099313E0252BB5D00134B0E727
S11348500123801B8340296814000B432B60CDE7A0
S1134860059B181D1B680590002B39DB0993140068
S113487023782E2B0BD16378621C2A2B3ED1059B07
S113488002341A1D1B680592002B34DB0793354E46
S113489021780322300000F0FDFE002806D04023DA
S11348A0801B83402A68013413432B60217806223D
S11348B02D48661C297600F0EDFE002846D02B4BCF
S11348C0002B2FD12968059B0722C90528D59B18E1
S11348D09343083305936B69039A9B186B6167E7ED
S11348E05B42EB6002230B432B60C0E74B43013474
S11348F09B180120A0E701235B42C7E700231400B3
S11349000A201A006B6021783039092903D9002B59
S1134910BDD00792BBE74243013452180123F2E7AA
S11349200733D5E705AB00933A00114B29000298F1
S113493000E000BF0390039B0133CCD1BB890B98EB
S11349405B0600D429E70120404226E705AB00932B
S11349503A00074B2900029800F05CFAEAE7C046E7
S1134960A8630000AE630000B26300000000000012
S1134970A946000070B514004B1C03D101256D42FB
S1134980280070BD938920229343626BA381CEB229
S1134990CDB26368002A10D0A26B934207DA236871
S11349A0013B23601E70636801336360E8E7210004
S11349B000F00EFE0028F2D0E0E721692268002909
S11349C007D0914205D2511E0878854201D1216059
S11349D0EAE723642300443363630323A3632300CC
S11349E04633E2631E7023600123DEE710B50C003A
S11349F0496B00290ED023004433994201D0FFF7BC
S1134A0041FD0020236C60636360834202D0E36B4A
S1134A10236010BD2369012023600023A289636001
S1134A2020331343A3814042F3E70000F0B5BD4CAB
S1134A308625A544039300234893499305AB4A93E1
S1134A40BE236D0000900C0002A8B7495B0040191A
S1134A50C027C15002AB5B191500B4497F00D9517E
S1134A602B78002B00D15BE100F0F4FD08222B78B9
S1134A70C01801934378134041D1019A6E1C252A32
S1134A8000D0A8E0479345936B782A2B02D11A3BB8
S1134A904593AE1C35000A2229780B00303B092BC4
S1134AA048D9A34E0322300000F0F4FD002807D0BB
S1134AB00123801B8340459A013513430292459399
S1134AC02B786E1C672B58D8652B00D3DDE0472B61
S1134AD038D8452B00D3D8E0002B00D11DE1252B7D
S1134AE079D003234B930733469353E0499A013318
S1134AF001920132499262682360013A62606368FC
S1134B00002B0BDD00F0A6FD082123681A7880181D
S1134B1042780A42EAD16E1C3500A1E7862202AB34
S1134B2052009B18DB5921000098019398470028F4
S1134B30E8D0F0E7479B013502935343303B5918C3
S1134B404791A9E75B2B00D177E00FD8582BC8D148
S1134B50459A01928022019992000A4345921022BB
S1134B60469203226E2B14DD013212E0632B00D136
S1134B7071E0642BB5D10A22F2E7702B52D022D80F
S1134B806E2B00D16FE054D8692BAAD100230322E5
S1134B9046934B926368002B00DC78E0459B0193BD
S1134BA05B0600D48BE04B9B022B00DD9DE003AB46
S1134BB0220045A9009800F047FA012800D1AFE08F
S1134BC00228A9D125E0752BD5D0782BC0D0732B22
S1134BD087D102233DE06368002B0FDD2368019930
S1134BE01A78914200D09BE0013362682360499BAC
S1134BF0013A01930133626049938DE7862202AB47
S1134C0052009B18DB592100009802939847002812
S1134C10E4D04898002800D07BE00138A7239B000B
S1134C209D44F0BD459A0192202201990A43459280
S1134C308EE7082304224693ABE7310005A800F071
S1134C4067FB459B060001934023019A1343459358
S1134C5001234B939EE7459B01934023019A134301
S1134C6045930023F5E74599CB0600D554E7039B0C
S1134C70499AC80704D5191D03911B681A804BE78C
S1134C80191D03911B681A6046E70523E1E7862294
S1134C9002AB52009B18DB592100009801939847FE
S1134CA0002800D17AE7B4E7499A01920132499287
S1134CB06268013A6260002A0BDD0133236000F070
S1134CC0C9FC082123681A78801842780A42EBD17B
S1134CD069E7862202AB52009B18DB592100009839
S1134CE0019398470028EAD093E7042B06DC03AB32
S1134CF0220045A9009800F00BFA5EE70D4B002B4B
S1134D0000D109E703AB220045A9009800E000BFE9
S1134D1053E7A3895B0600D480E7012040427DE786
S1134D2048987BE764FDFFFF75490000ED490000EA
S1134D30AE63000000000000F7B5150001938A6817
S1134D400B6900900C00934200DA130022002B60E0
S1134D5043321278002A01D001332B6023689B066A
S1134D6002D52B6802332B60062723681F4027D007
S1134D70230043331B785A1E93412268920630D491
S1134D802200019943320098089EB047431C25D065
S1134D90062320682A68E16803400025042B03D118
S1134DA08D1AEB43DB171D40A3682269934201DD92
S1134DB09B1AED180027BD4220D1002010E00137D6
S1134DC0E3682A689B1A9F42D2DA2200012319322F
S1134DD001990098089EB047431CF0D1012040423D
S1134DE0FEBD3020E1184331087021005A1C4531C2
S1134DF00978A218433202331170C1E7220001235B
S1134E001A3201990098089EB047431CE6D0013736
S1134E10D1E70000F0B58BB006920A004332079345
S1134E20059004920A7E0C00109B6E2A00D18FE03C
S1134E3017D8632A2CD008D8002A00D199E0582A20
S1134E4054D026004236327029E0642A01D0692AFF
S1134E50F7D121681A68080623D5111D1960156851
S1134E6025E0732A00D188E008D86F2A29D0702A57
S1134E70E7D1202209680A43226003E0752A20D082
S1134E80782ADED122007821453211706C4A30E054
S1134E900E001A684236111D19601368337001231D
S1134EA079E04906D9D5111D19600023D55E002D7E
S1134EB003DA2D23049A6D421370624B0A2703937D
S1134EC02FE020681968050603D5081D18600D68D1
S1134ED005E04006F9D50D68081D1860ADB2594BC0
S1134EE0082703936F2A18D00A2716E045310A7061
S1134EF0544A03921A682168101D18601568080640
S1134F0022D5CB0702D52023194321601027002D79
S1134F1003D1202322689A432260230000224333D2
S1134F201A706368A360002B5CDB04222168914340
S1134F302160002D58D1049E002B64D02600039BD1
S1134F4042361B7833705EE04806DAD5ADB2D8E756
S1134F5009681A68080605D5111D19601368626985
S1134F601A6006E04906F7D5111D19601368A28A74
S1134F701A800023049E236154E01A68111D1960ED
S1134F80166800216268300000F084FB002801D01C
S1134F90801B6060636823610023049A137041E0FE
S1134FA02369320006990598079DA847431C43D0FE
S1134FB0236800259B070FD4099BE06898423DDADB
S1134FC018003BE022000123193206990598079E38
S1134FD0B047431C30D00135E368099A9B1A9D42BF
S1134FE0F0DBE9E7002DA9D0049E28003900FFF783
S1134FF00FF9039B013E5B5C280033703900FFF717
S113500081F8051EF1D1082F09D12368DB0706D5E5
S113501063682269934202DC3023013E3370049BAF
S11350209B1B2361079B09AA00932100069B0598FB
S1135030FFF782FE431CB3D1012040420BB0F0BD08
S1135040CA630000B9630000F7B515008A680190CF
S11350500C00002A06D18A69511E8A41012152425C
S11350600A43A2602268D20603D41A68111D19608B
S113507017680026A369002B1CD0012B08D12B68CC
S113508062691B78D35C002B14D1002E30D106E06A
S1135090022B06D0002E2BD1A369012B28D101208D
S11350A0FEBD00F0D7FA08222B681B78C01843789D
S11350B01342EFD1102223680136134203D12B6827
S11350C01B783B7001372A686B6801322A60A2683A
S11350D0013B013A6B60A260002A09D0002BC9DCB5
S11350E0C0235B00E3582900019898470028C1D0E9
S11350F010232268134006D1E2680132E260A269FB
S1135100002A00D03B70236900209E192661C7E75E
S1135110F0B50C008DB00293774B0590160009AAE8
S113512023CB23C2754B0693A369032B01D0744B85
S11351300693AE220020A3685200591E04909142A7
S113514005D95E3BFF3B04935E23FF33A36023003A
S11351501C330193D023002722681B0113432360CF
S1135160019B0393336809A81978BB0002221858DD
S113517000F090FA00282BD0012F5FD16368002B38
S113518006D1083322686360F933FF331343236085
S11351905C4B226813402360A3685A1EA260002B54
S11351A016D0039B5D1C33685A1C32601B78039A2B
S11351B0039513707368013B7360002B08DCC023F4
S11351C05B00E358310005980793984700287DD188
S11351D00137032FC6D16368002B01D10A33636002
S11351E01021002763686069C91A474BC91800F089
S11351F08FF8039DA368002B41D032686069117851
S1135200405C00283BD0302928D18020216800014F
S1135210014223D0049A0137002A03D0013A013312
S11352200492A3607368013B7360002B1EDD336836
S113523001333360A368013BA360DBE7022FABD1EA
S1135240C02180232268C90011409B009942C2D129
S1135250F13BFF3B6360F03313439CE721682B4B26
S11352600B40236013782B700135DBE7C0235B0010
S1135270E35831000598039398470028DAD023684F
S1135280DB050ED5019B9D4207D9BE23013D5B0082
S11352902978E358320005989847019B01209D42E4
S11352A027D0102223681A401CD12A706368019900
S11352B00598069EB047029B22681B68910607D595
S11352C002991A1D0A601B68186008E00027D6E7D7
S11352D0D107F5D502991A1D0A601B681880E36886
S11352E00133E3600020019BED1A2369EF19DF19F4
S11352F027610DB0F0BDC046DC630000815400009E
S1135300B1550000FFFAFFFFE8630000FFF6FFFF5E
S113531070B50B785E2B0DD04A1C00210400451C8F
S1135320FF3521700134A542FBD1002B06D1013A8F
S1135330100070BD8A1C4B780121EFE701244C401A
S11353401100C4540D784A1C2D2D07D05D2DEFD0CB
S1135350002D01D10A00EBE72B00F1E74E785D2E1A
S1135360FAD0B342F8DC02310133C4549E42FBDC70
S1135370E8E70000F0B51F000E0087B00590039128
S113538002920C98347800F061F9082200194378ED
S1135390751C13400CD12D2C0CD101332C780193A6
S11353A0B51C002F0CD0102F14D1302C0AD011E0D2
S11353B02E00E6E701932B2CF3D12C78B51CF0E7F3
S11353C0302C2FD120222B789343582B51D11027E6
S11353D06C780235019B294A39009E183000FEF78B
S11353E017FF300004913900FEF78CFE01210023E1
S11353F0494202008C46180021003039092913D88B
S11354000C00A7421CDD591C09D06346824206D316
S113541002D10499A14202DB0123784320182C789D
S11354200135E9E70A27D5E721004139192901D8CF
S1135430373CE6E721006139192901D8573CE0E7F8
S11354405A1C08D1059A23331360029B3000002BA9
S11354500BD107B0F0BD019A002A00D04042029A55
S1135460002AF6D0039A002B00D06A1E029B1A6011
S1135470EFE73024002FADD10837ABE7FFFFFF7F04
S113548013B5054C2468246A002C00D1034C009405
S1135490FFF770FF16BDC04648000020AC00002096
S11354A0F0B51F000E0087B00590039101920C988F
S11354B0347800F0CBF8082200194378751C1340A7
S11354C00CD12D2C0CD101332C780293B51C002F58
S11354D00CD0102F14D1302C0AD011E02E00E6E7A6
S11354E002932B2CF3D12C78B51CF0E7302C2FD160
S11354F020222B789343582B54D110276C780235F3
S1135500012039004042FEF7FDFD0600012039006C
S11355104042FEF77DFE0023049101210122180080
S11355208C46524221003039092913D80C00A74275
S11355301EDD002B1ADB1300864206D302D1049928
S1135540A14202DB6346784320182C780135E9E751
S11355500A27D5E721004139192901D8373CE6E764
S113556021006139192903D8573CE0E71300ECE71F
S1135570002B09DA22230120059A40421360019B83
S1135580002B0BD107B0F0BD029A002A00D0404294
S1135590019A002AF6D0039A002B00D06A1E019BC0
S11355A01A60EFE73024002FAAD10837A8E70000DB
S11355B013B5054C2468246A002C00D1034C0094D4
S11355C0FFF76EFF16BDC04648000020AC00002067
S11355D00B00F7B54D6B44330C009D421CD1802663
S11355E0F6003100FEF798FF002802D10120404266
S11355F0FEBD23006063A66346331A78104BC25481
S1135600230045331A780F4BC2542A780E4BC254E8
S1135610C01820600020EBE78E6B290073001A008D
S1135620019300F054F8051EE0D087190100320000
S11356303800FEF715FF019B27606563A363E9E764
S1135640FF030000FE030000FD030000EC300068CF
S113565070470000044B1B681B6A002B00D1034BEE
S1135660EC3318687047C04648000020AC000020A6
S113567082B0002900D101A9101E06D0002B06D04B
S113568013780B601078431E984102B070470220D3
S11356904042FAE7C9B28218904201D10020704713
S11356A003788B42FBD00130F6E710B5884202D96B
S11356B08B18984208D300239A4207D0CC5CC45478
S11356C00133F9E78B5C8354013AFBD210BDF8B582
S11356D007000D001600002905D11100FEF71CFF7C
S11356E004002000F8BD002A03D1FEF7CBFE3400ED
S11356F0F7E700F01EF82C008642F2D9310038009A
S1135700FEF70AFF041EECD029003200FEF7A8FEC3
S113571029003800FEF7B6FEE3E70B1E04D0FF2A8B
S113572004D98A2303608B3B180070470A70012355
S1135730FAE70B1F1B68181F002B01DA0B58C0185F
S113574070470000060D0000AE130000AE13000009
S1135750AE130000AE130000AE130000AE13000041
S1135760AE130000AE130000AE130000AE13000031
S1135770AE130000AE130000AE130000AE13000021
S1135780AE130000AE130000AE130000AE13000011
S1135790AE130000AE130000AE130000AE13000001
S11357A0AE130000AE130000AE130000AE130000F1
S11357B0AE130000AE130000AE130000AE130000E1
S11357C0AE130000AE130000AE0E0000AE130000D6
S11357D0BA0E0000AE130000AE130000AE130000BA
S11357E0AE130000AE130000AE130000AE130000B1
S11357F0AE130000AE130000AE130000AE130000A1
S1135800AE130000AE130000AE13000046120000F9
S1135810AE1300003A120000080E0000AE130000A0
S1135820AE130000BC110000AE130000480E0000CF
S1135830AE130000AE130000340D0000AE130000E0
S1135840AE130000420E0000AE130000020E000072
S1135850AE130000AE130000AE130000EE0F000004
S1135860AE130000D0120000A00F0000F2120000DE
S1135870AE130000AE130000AE13000020100000B1
S1135880581100008A11000016130000AE13000026
S1135890AE130000AE130000AE130000AE13000000
S11358A0C60E0000AE130000740E0000AE1300001C
S11358B0AE130000AE130000AE130000AE130000E0
S11358C03C0D0000AE130000AE130000240E0000D7
S11358D0FC110000AE130000AE130000060F000020
S11358E0AE130000780F0000F0110000AE130000AA
S11358F0AE1300005E120000520E0000840F000080
S1135900AE130000AE130000AE130000AE1300008F
S1135910AE1300001E0E00000006030030313233C7
S1135920343536373839616263646566426964695F
S113593072656374696F6E616C204D617374657216
S11359400A0000004269646972656374696F6E617C
S11359506C20536C6176653A205363616E6E696E98
S1135960670A00004269646972656374696F6E61F5
S11359706C20536C6176653A204C6F636B65640AE6
S1135980000000005258204D6F64653A2073636133
S11359906E6E696E670A00005258204D6F64653A56
S11359A0206C6F636B65640A000000005458204D3E
S11359B06F64650A00000000737461744578636560
S11359C07074696F6E203D2025640A0073706172E3
S11359D06B4C617374496E74203D2025640A000089
S11359E0737461744C696E6B4C6F7374203D202525
S11359F0640A00007374617453656E645061636B70
S1135A00657473203D2025640A000000737461747A
S1135A1052656365697665645061636B6574732070
S1135A203D2025640A000000737461744D6973732A
S1135A30696E675061636B657473203D2025640A49
S1135A4000000000737461744E756D4572726F725C
S1135A5073203D2025640A003D3E20504552203DE0
S1135A60203120696E2025640A0000003D3E20425A
S1135A704552203D203120696E2025640A00000033
S1135A8030206572726F72733A20256420706163EE
S1135A906B657473202825642525290A00000000FD
S1135AA032206572726F72733A20256420706163CC
S1135AB06B657473202825642525290A00000000DD
S1135AC0332D34206572726F72733A20256420700E
S1135AD061636B657473202825642525290A0000F9
S1135AE0352D38206572726F72733A2025642070E8
S1135AF061636B657473202825642525290A0000D9
S1135B00392D3135206572726F72733A2025642005
S1135B107061636B657473202825642525290A0048
S1135B2031362D3331206572726F72733A202564D9
S1135B30207061636B657473202825642525290A08
S1135B40000000003E3D3332206572726F72733A7A
S1135B50202564207061636B657473202825642597
S1135B6025290A00737461744C6173745253534948
S1135B703A2025640A000000737461744C617374E4
S1135B804E5353493A2025640A000000737461742B
S1135B904C61737452585761697465643A20256482
S1135BA00A0000006C6173744C696E6B4D6172671E
S1135BB0696E3A2025642064420A00002564202589
S1135BC06420256420256420256420256420256420
S1135BD00A000000566572626F7365206D6F64651C
S1135BE00A0000003D3D4576616C204B69743D3DE3
S1135BF00A00000042495354206661696C65640AD6
S1135C00000000006C696E6B5061636B65745369CE
S1135C107A65203D2025640A000000006C696E6BE3
S1135C205061636B657452617465203D2025640A7C
S1135C30000000006C696E6B536C6565704D6F6499
S1135C4065203D207025640A000000006C696E6BBD
S1135C5053796E63576F7264203D20307825303459
S1135C6068780A006C696E6B507265616D626C6570
S1135C7053697A65203D20307825303268780A00EF
S1135C806C696E6B4D696E4E6F694C766C203D206D
S1135C90307825303268780A000000006C696E6B39
S1135CA04D696E50756C416D70203D203078253003
S1135CB03268780A000000006C696E6B4D696E539F
S1135CC06967537472203D20307825303268780A31
S1135CD0000000006C696E6B4269646972656374EC
S1135CE0696F6E616C203D2025640A006C696E6BDF
