S01700004445564943455F4558414D504C45332E73726563BF
S113000048280020F5410000F1410000F1410000C2
S113001000000000000000000000000000000000DC
S1130020000000000000000000000000F14100009A
S11300300000000000000000F1410000F141000058
S1130040F1410000F1410000F141000045020000CF
S1130050651A0000F1410000F1410000193A000066
S1130060F1410000F1410000F1410000F1410000C4
S1130070F1410000F1410000F1410000F1410000B4
S1130080F1410000F141000069010000F14100006C
S1130090F1410000F1410000F1410000F141000094
S11300A0F1410000F1410000F1410000F141000084
S11300B00000000010B5064C2378002B07D1054B37
S11300C0002B02D0044800E000BF0123237010BDC0
S11300D00401002000000000C4610000084B10B5BA
S11300E0002B03D00749084800E000BF0748036815
S11300F0002B00D110BD064B002BFBD09847F9E72D
S11301000000000008010020C4610000C461000078
S1130110000000008022D205014B5A617047C0469E
S1130120804400418022D205014B9A617047C04649
S1130130804400418022D205014B5A617047C04679
S1130140804400418022D205014B9A617047C04629
S11301508044004110B5024B9847024B187010BD03
S11301602D0B0000F803002070B5294B1B78002BE1
S113017046D0284B9B7BDB060CD4264B9B7BDB07B2
S113018007D5254B9847254B1860254B9847254B99
S1130190186070BD244B18781A220021234DA847FB
S11301A0204B187824220021A847214C2000214B01
S11301B09847A07806220021A847607809220021E8
S11301C0A847E378002B11D01B4A412313700C334A
S11301D053700C210020194B98470E4B9B7BDB0777
S11301E0D7D50B4B1B78002BCBD10DE0124A5023F3
S11301F01370033B53700C210020104B9847ECE71D
S1130200044B9B7BDB07C4D50D4B9847C1E7C04625
S113021000000020002C00428D470000F403002061
S11302202D48000000040020C0030020210D000020
S1130230B403002001100000FC030020F90B0000AF
S11302405501000010B5104C2378104A9B00D018BB
S11302509B58984720780130C3B223705800C018C7
S113026080000B4BC0180B4B98472378042B03D00A
S11302700122094B1A7210BD0022034B1A70044864
S1130280044B9847F4E7C046C00300202001002037
S1130290C4030020711000000014004030B50F4B5F
S11302A008249C7000225A70DA700D490D480860C9
S11302B0052098735A730438D8730B4D4D609C769F
S11302C05A76D876094C8C600A2526241D55013CA3
S11302D01A5527329854064BCB6030BDC403002016
S11302E02001002015010000250100003501000057
S11302F045010000F0B583B0374B1C78002CFDD0CD
S1130300364B9847364B98478022D205354B5A6175
S1130310354D0923AB7000236B70EB702800334B11
S11303209847334B9847FF22324B1A70AF78013706
S1130330FFB20C2F1ED82C4BDE780020FF23009335
S11303400021019411E00133DBB20C32042B08D0FC
S11303509578BD42F7D1D578B542F4D10198009390
S1130360F1E70137FFB20D2F02D0234A0B00EFE76C
S1130370002806D11C4BD8781E4B1E780025002778
S113038016E01C4B009A1A70FF2A16D1F2E70133CB
S1130390DBB20C32042B08D09178B942F7D1D17872
S11303A08142F4D025001E00F1E701370C2F02D062
S11303B0114A0023F0E7002D0AD10E4B1B78580098
S11303C0C01880000C4BC0180C4B984703B0F0BD0C
S11303D0084B1E70F1E7C04600000020B90C000075
S11303E0F10C000080440041B403002051100000CF
S11303F09D020000C0030020C4030020711000000F
S1130400024A1378013BDBB2137070473B010020B2
S113041000207047002070477047000010B500228C
S1130420104B1A700021104B1A80104BA120187029
S1130430813858705A809A801E38D8801A810C4BA3
S1130440E12252021A601971597108229A7100202E
S1130450084B9847002804D0024A13780133DBB2D2
S1130460137010BD3B010020D00100206802002061
S1130470340100202145000070B584B0464B1B7840
S1130480002B01D004B070BD444B9847002843D0E2
S1130490434B1C88434B98478442F3D0EFF31083BB
S11304A05A425341039372B6BFF35F8F00223E4B0F
S11304B01A70039D3D4B1C78E4B262003C4BD35A46
S11304C0002B30D000223B4B1A803B4B1B78002B77
S11304D048D163426341DBB2344A137001222E4B8C
S11304E01A70002D04D0304B1A70BFF35F8F62B6C0
S11304F0260063002E4A9B5A1D00403D6A1E95410A
S1130500EDB2402B37D0254B984700282ED0254BF1
S11305109847234B188031E0214B1C88274B984780
S11305208442BBD1AEE7234A1388013313801B4BAB
S11305309847002803D11F4B1B88632B08D9174BFE
S113054098470028BED01E4B1A4A12889A42B9D83E
S1130550002D00D196E70122134B1A70BFF35F8F71
S113056062B68FE762425441E4B2B7E7134B98474F
S11305700B4B188002E00022094B1A8076000C4BCA
S1130580F35AA4010F4A14190F4A009222002900B9
S113059081200E4CA04775E764020020992C0000CE
S11305A060020020AD2C0000000100205C0200204D
S11305B05802002030010020D40100209D2C0000AE
S11305C01F030000D8010020D1050000A52F000062
S11305D010B5002800D010BD074B1B785A42534178
S11305E05B00002205495852054B1A70054B1A70DE
S11305F0054B9847EFE7C0465C02002058020020F4
S1130600D4010020640200207904000010B5002009
S1130610014B984710BDC0467904000010B5064A46
S11306201378013BDBB213701078C0B2034B9847C8
S11306300022034B1A7010BD3C010020314500001C
S11306403201002010B5204B1A7853B2002B05DB81
S1130650602313400020202B14D010BD60231340CE
S11306600020202BF9D1184B5B78212B29D1164B74
S1130670DB88072BF1D1144B144A9A6007229A8124
S11306800130EAE7104B5B78202B03D0222B0FD0EC
S11306900020E2E70C4BDB880020072BDDD10A4B5E
S11306A00B4A1A61094A9A6007229A810130D4E7F9
S11306B0054B5B88012119400020064B9847012017
S11306C0CBE70020C9E7C046E8060020340100203B
S11306D0190400003D45000082B0EFF310835A4234
S11306E05341019372B6BFF35F8F00220A4B1A7015
S11306F0019A0A4B19880A4B1B785B000948185A5F
S1130700401A002A05D00122034B1A70BFF35F8FF1
S113071062B602B07047C04600010020C801002044
S1130720C4010020C001002010B5034B9847431EAC
S11307309841C0B210BDC046D906000010B584B0BF
S1130740EFF310835A425341039372B6BFF35F8FA2
S113075000221F4B1A70039B1E4A1478E4B21E4AEF
S11307601278002A07D11D4A128861001C48095AD0
S113077092B28A420AD20020002B05D00122144BE7
S11307801A70BFF35F8F62B604B010BD0021134A24
S1130790118062426241D2B20E490A7001210E4AAE
S11307A01170002B05D00122094B1A70BFF35F8F23
S11307B062B600200B4B9847A4010B4A12190B4B4D
S11307C00093402301210220094CA047DCE7C046E6
S11307D000010020C4010020CC010020C801002039
S11307E0C001002029070000400100208508000006
S11307F0A52F000070B50024154B1C70154B1C7000
S1130800154B1C70154B1C70154B00251C805C800F
S1130810144B1C800020144B9847144B1D70144B30
S11308201D70144B1C805C80134B1C800020134BE8
S11308309847002807D0064A13780133DBB21370B7
S11308401378012B00D070BD01220D4B1A70FAE70A
S11308503C01002064020020D40100205C0200203E
S1130860580200206002002079040000CC0100201E
S1130870C4010020C0010020C80100203D07000081
S11308803201002010B582B01400002810D10F4BA3
S11308901A7853425A41D2B200290BD089B252007D
S11308A00B4BD15200220B4B1A7000200A4B984775
S11308B002B010BD9201094B9A18094B00934023D2
S11308C001312000074CA047F2E7C046C4010020D4
S11308D0C0010020CC0100203D07000040010020A1
S11308E085080000A52F000010B50020014B984793
S11308F010BDC04629070000F0B5D6464F4646460F
S1130900C0B582B0274B9B79093B5A425341DBB2B5
S1130910994600239C46244B98460027234E244C9A
S113092005E08B4229D3234B1B78002B1DD0EFF31A
S113093010835A425341019372B6BFF35F8F43460B
S11309401F70019833889BB22278D2B255001A499D
S1130950695A89B20028E4D00120824612485546DB
S11309600570BFF35F8F62B6DBE70025280002B095
S11309701CBC90469946A246F0BD92010F498A18C4
S1130980D25C6546154301339BB2084A13800020AC
S11309900B4B98474B46002BE8D02B029C46002378
S11309A09946C4E73401002000010020C80100205A
S11309B0C401002032010020C001002040010020B9
S11309C03D07000010B50020014B984710BDC046FC
S11309D0F908000082B0EFF310835A4253410193A7
S11309E072B6BFF35F8F0022144B1A700199144B37
S11309F01B78DBB25800134A825A402A0BD040209D
S1130A00801A002905D001220C4B1A70BFF35F8FA6
S1130A1062B602B070470C4800780028EFD10B484A
S1130A2000780028EBD10130084A10705A42534133
S1130A30DBB2034A13700022E1E7C0460001002044
S1130A405C0200205802002064020020D40100202F
S1130A5010B5034B9847431E9841C0B210BDC04621
S1130A60D5090000F0B5DE4657464E464546E0B58A
S1130A7083B00C00224B9D79093D6B425D41EDB280
S1130A80204E214B9846214B9A4627E0EFF31083E2
S1130A905A425341019372B6BFF35F8F002342461B
S1130AA01370019B9B4653461B78DBB2184A94464D
S1130AB05F00B95A4A1C60463A529B01154AD31842
S1130AC05C545B46002B05D001220F4B1A70BFF318
S1130AD05F8F62B6002D10D0241200250020B0478D
S1130AE00028D3D10C4B1B78002BF7D103B03CBCAE
S1130AF090469946A246AB46F0BD0120F6E7C046B3
S1130B0034010020510A0000000100205C02002092
S1130B1058020020D80100203201002010B5010045
S1130B200020014B984710BD650A00000122074BC5
S1130B301A60074B1A68022313405A425341013387
S1130B400121044A1160044AD05C70479844004172
S1130B50A0440041944400412C00002010B502231D
S1130B60214A1370214A5362110001220B7E134261
S1130B70FCD01E4B5B8B5B0721D4022128231B4A2C
S1130B80D154110001220B7E1342FCD0174B5B8B16
S1130B905B071ED4154A5168C0239B020B43536064
S1130BA00022134B1A8203211A0010209073937BA6
S1130BB0DB06FCD5013989B20029F7D110BD0B4AF7
S1130BC05168C0239B020B4353604120094B984753
S1130BD0E6E7064A5168C0239B020B435360422058
S1130BE0044B9847DCE7C0469C02002000100042FA
S1130BF0003000421D0B0000F8B52B4B04241C7080
S1130C00597098701178002938D00023264C01338C
S1130C10E0188170D15C0029F9D10221234A516284
S1130C2010000139027E0A42FCD0204A528B52073E
S1130C3026D4D91C0A00002400290FDD1A4F1B49B1
S1130C40282601200425E35D8B550B7E0342FCD04E
S1130C504B8B2B421ED10134A242F4D1134A51686A
S1130C60C0239B020B435360114B00221A821032A3
S1130C709A731A00937BDB06FCD5F8BD0023CCE7FE
S1130C800A4A5168C0239B020B4353604120094B1D
S1130C909847E9E7054A5168C0239B020B43536018
S1130CA04220044B9847DFE79C02002000100042DA
S1130CB0003000421D0B000010B50B4A5423137082
S1130CC011335370083393700333D370363B13716D
S1130CD01A3B53719371D3711372233353721421DA
S1130CE00020024B984710BD08040020F90B0000B7
S1130CF010B5094A522313700A3B53700E3B93708C
S1130D001A3BD37013715371053393712021002062
S1130D10024B984710BDC0460C040020F90B00009C
S1130D20F0B583B00700019116000A4C0A210A4B62
S1130D3098470A4D0A21A847303121700A2138000A
S1130D40A84730316170220031000198044B984764
S1130D5003B0F0BD04040020E1490000AD4B0000E5
S1130D60F90B000010B50922324B1A70073A324BC6
S1130D705A621900013A0B7E1342FCD02E4B5B8B56
S1130D805B073CD4092128232B4AD15411000122AA
S1130D900B7E1342FCD0284B5B8B5B0739D4264A6D
S1130DA05168C0239B020B4353600322224B5A62B7
S1130DB01900013A0B7E1342FCD01F4B5B8B5B077F
S1130DC031D41D4B5A681D490A405A605968802223
S1130DD0D2020A435A605968C02292020A435A60F6
S1130DE02822995C164A11705A8B10210A435A839F
S1130DF01A00D369002BFCD1114B187810BD0E4A90
S1130E005168C0239B020B43536041200D4B98470C
S1130E10CBE7094A5168C0239B020B43536042202D
S1130E20084B9847C1E7044A5168C0239B020B430F
S1130E305360E1E79C02002000100042FFFFFBFF2B
S1130E40740200201D0B000010B50A22324B1A70E8
S1130E50083A324B5A621900013A0B7E1342FCD015
S1130E602E4B5B8B5B073CD40A2128232B4AD1549D
S1130E70110001220B7E1342FCD0284B5B8B5B07D5
S1130E8039D4264A5168C0239B020B435360032282
S1130E90224B5A621900013A0B7E1342FCD01F4BBD
S1130EA05B8B5B0731D41D4B5A681D490A405A605D
S1130EB059688022D2020A435A605968C0229202B9
S1130EC00A435A602822995C164A11705A8B1021E1
S1130ED00A435A831A00D369002BFCD1114B1878AA
S1130EE010BD0E4A5168C0239B020B43536041203E
S1130EF00D4B9847CBE7094A5168C0239B020B432B
S1130F0053604220084B9847C1E7044A5168C02304
S1130F109B020B435360E1E79C0200200010004257
S1130F20FFFFFBFF740200201D0B0000134A9369AE
S1130F3020210B439361124A124B5A80124B4822D0
S1130F401A805A888021C9010A435A800122DA7121
S1130F501A880821082002431A801A880638024396
S1130F601A800A4AC0235B00D150C0208000135865
S1130F701B021B0A135011607047C0460004004056
S1130F8004440000000C00400014004000E100E0B4
S1130F90C38802899A1A920643799B050179490408
S1130FA00B43817809030B431343C278002A02D10F
S1130FB0802252021343427892010078104318436E
S1130FC07047830E0A899B18CB8083011B0F4B71DA
S1130FD08302DB0E0B718B7A002B0CD103041B0FE5
S1130FE08B70C303DB0FCB7082093F231A404A7016
S1130FF0184008707047C303DB0E8B70F4E70000E1
S113100010B50100C37A002B0CD10E4A0E4B5A8046
S11310101A00937A5BB2002BFBDB0B4B18690B4B6A
S1131020984710BD084B5B885B04F6D4064A538886
S1131030C020000203435380937A5BB2002BFBDB96
S1131040EBE7C0460080FFFF00140040C30F000020
S113105010B5054B9847054A937A5BB2002BFBDB2E
S1131060024B186110BDC046910F000000140040EF
S113107010B5084A937A5BB2002BFBDB064B98470A
S1131080044A937A5BB2002BFBDB024B9861032288
S11310901A7710BD00140040910F000070B5564B34
S11310A09847002809D1554B1B78503BDAB2272AC0
S11310B010D89300524AD3589F46524B98474F4BEF
S11310C01870F0E7504B9847504B18600078303058
S11310D04F4B98470022494B1A7070BD4D4B9847AF
S11310E04D4B1860C0B21A2200214C4B9847F1E7CF
S11310F04B4B98474B4B1860C0B224220021474BFE
S11311009847E7E7484E494D494C40223100FA20C0
S11311104002A84720700528F7D0434C26004036EB
S11311203B4D20783030A8470134B442F9D1D1E79F
S113113000233D4AD3540133402BFBD1FA267602D7
S11311403C4D3B4C3000A84720700528FAD0364E61
S1131150394D374C40223100FA204002A847207014
S11311600528F7D0B6E7FA267602324D304C300027
S1131170A84720700528FAD0ACE7802212052F4B2F
S11311801A60A7E72E4C20002E4B9847A078042223
S11311900021224DA847607807220021A847207823
S11311A00A220021A847E378002B09D0264A4123CC
S11311B013700C3353700E210020244B984789E799
S11311C0214A50231370033B53700E2100201F4B00
S11311D098477FE71E4B98471E4C20701E4B98473C
S11311E01E4D28702078002200210C4CA04728783E
S11311F000220121A0476DE7E9080000C402002095
S1131200205F0000C50900005945000014040020B7
S11312101D0B00008D470000F4030020210D000089
S11312202D4800000004002024040020991D000023
S113123074040020051E0000F11C00001844004145
S11312406804002001100000FC030020F90B0000DA
S1131250650D000075040020490E000020040020E4
S11312608022D205014B9A617047C04680440041F8
S113127010B500210F20014B984710BD251A00001E
S113128010B500210F20014B984710BD451A0000EE
S11312908022D205014B5A617047C0468044004108
S11312A07047704710B5FA218900094B984789B2F5
S11312B0002904D18022D205064B5A6110BDFA23BD
S11312C05B009942FAD18022D205024B9A61F5E77C
S11312D0D94900008044004110B5114B1B681A68BD
S11312E09478D3781B022343D2180378C018904211
S11312F010D24378042B0FD08B420AD00378C01845
S1131300904205D24378042B08D08B42F6D100E0FA
S1131310002010BD0020FCE70020FAE70020F8E7D9
S1131320D402002010B5034B5B887F201840024B89
S1131330984710BDE80600207D31000070B5194BB8
S11313401B780022002B29D0174B1B681B681C79C3
S1131350844223D9154A13609A78DC782402144312
S11313601C19A3421CD20025012607E00F4A136072
S11313700FE01A789B183500A3420CD25A78042A3D
S1131380F7D19A788242F4D1DA788A42F1D1002DE9
S1131390ECD1012202E0054A13600022100070BD66
S11313A00022FBE7D0020020D4020020D802002053
S11313B0F0B5C64600B504000021134B9847051E3E
S11313C003D1280004BC9046F0BD104B1B685B6839
S11313D0A200D3589846DB689847010020000A4BC6
S11313E09847051EEDD00A4B1C680A4E0A4F05218A
S11313F02000B047041E02D08078B847F7E7434680
S11314005B689847DDE7C0463D130000D402002026
S1131410D8020020D9120000BD2C0000F8B5050048
S11314200F4B9847002819D00E4B1C680E4E0F4FD7
S113143005212000B047041E09D003794279120225
S11314401A43C1788078B8470028F1D106E0084BE8
S11314501B685B68AD00EB581B689847F8BDC04635
S11314603D130000D8020020D9120000152D000001
S1131470D402002010B5014B984710BD89320000FA
S113148070B50E4B1B78002B11D00D4B1B681B68DD
S11314901B79002B0BD000240A4E094D2000B047C5
S11314A00134E4B22B681B681B79A342F6D80022EE
S11314B0024B1A700132044B1A8070BDD002002016
S11314C0D4020020B1130000C602002070B50E4BF8
S11314D01B78002B17D00D4B1B681A681279002A51
S11314E011D00024094D06E00134E4B22B681A68D7
S11314F01279A24207D95B68A200D3581B69002B5A
S1131500F2D09847F0E770BDD0020020D40200204A
S1131510F8B5AA4B00229A811A615A611B785AB213
S1131520002A13DB60221A4200D1D6E0A34B1A78BA
S11315301F231340012B00D172E1A04B1A781F2303
S113154013400020022B00D1C8E1F8BD9B4AD28889
S11315500020002AF9D060211942E7D11F210B4055
S113156008D196494978062923D0082900D183E077
S1131570002917D0012B00D186E0022BD6D18F4B46
S11315805B780020002B00D0A4E1022AD5D18B4B3C
S113159018798B4B98478B4B1880022118008A4B83
S11315A09847FBE0022AC8D102318848864B984705
S11315B0F4E0824B5A88130A022B23D0D9B20229B1
S11315C00FD9032B34D00F2B00D080E1804B9868C7
S11315D00028B2D08378C178090219437A4B98471E
S11315E007E0012B00D072E1794B18680178764B43
S11315F09847724BDA889B89934200D8CEE06F4BB0
S11316009A81CBE0D2B2724B1B685B7C934200D8C8
S113161093E76F4B5B68D200D0588378C178090296
S11316201943694B9847654B9B6802225A70E0E75F
S1131630FF231A40012A1CD0002A15D0022A00D008
S113164074E7644C0F21644A0023E05C508001334A
S11316500232D8B28842F8D3490002315E480170A0
S113166089B2594B9847C4E704215C48564B9847C4
S1131670BFE75B4C0921E6E7012A00D05DE70121C1
S11316805848514B984789E04C4949780A2900D079
S113169073E7012A00D0C3E0524B1B78002B00D122
S11316A0BEE0464B1C79504B1D682B681B79A34246
S11316B000D8B5E0002120004C4B9847002800D109
S11316C034E76B68A400E358DB689847484B18700C
S11316D0012118003C4B984760E01F2213405FD162
S11316E0364A5278032A00D1F3E0D1B203293BD918
S11316F0052A4BD0092A53D1304BDB88002B00D06C
S11317001BE73C4B9847002800D10FE72B4B9A78F6
S11317102F4B1B685B7C9A4200DD07E7364B9847EA
S1131720264B9B782F4A1370002B37D0334A9446AC
S11317306344DB00264A5268D3182B4A13601B68A3
S11317401B79002B2AD000242D4D160000212000E7
S1131750A847002800D1E9E60134E4B233681B68E5
S11317601B79A342F2D819E0012A19D1134BDB8863
S1131770002B00D0E1E6114B5B88012B00D0DCE6A6
S1131780124A138802218B43138007E00B4BDB883A
S1131790002B00D0D1E61B4A084B1A610120D4E685
S11317A0012B31D0022B00D0C0E6044B5B78012B17
S11317B06CD0032B00D178E000208BE0E8060020F9
S11317C01D2E0000C80200209D310000C60200202A
S11317D040000020F0000020C0000020E0000020B5
S11317E0E4000020D0020020D40200203D130000B9
S11317F0CC0200208D31000081140000FFFFFF1F88
S11318001D14000025130000484A52780B2AC9D140
S1131810464BDB88002B03D1454B1B78002B27D18B
S1131820434B1B780020002B00D18EE63F4B1C79E4
S1131830404B1D682B681B79A34200D885E6002124
S113184020003D4B9847002800D176E66B68A20043
S1131850D558EB68984701002000374B984700287B
S113186000D16AE6AB689847002800D06DE664E6CC
S11318702E4B1D795C882800304B9847002800D1F6
S113188054E6E1B228002E4B984723E0274BDB882F
S1131890002B00D051E6254B5B88002B00D04CE692
S11318A0224B1879274B984714E0204BDB88002BF8
S11318B000D042E61D4B5B88002B00D03DE61B4C5C
S11318C02079214B98472079204B984702E000204B
S11318D000E00020002800D037E627E6144B1B78F0
S11318E0002B00D131E6134B1B681A681279002AC9
S11318F01AD00025104E0F4F5B68AA00D458E36835
S1131900984701002800B047002800D11DE6A368CD
S11319109847002800D018E60135EDB23B681A68F4
S11319201279AA42E8D810E600200EE6E806002064
S1131930D0020020D40200203D130000B1130000A7
S11319401D140000612F00005D2C0000312E0000EA
S11319500C4B1B68002B06D1EFF31083002B07D030
S11319600022094B1A70074A136801331360704749
S113197072B6BFF35F8F0022044B1A700132024B20
S11319801A70F0E7DC020020E002002000010020D1
S1131990084B1A68013A1A601B68002B09D1064BE0
S11319A01B78002B05D00122044B1A70BFF35F8F04
S11319B062B67047DC020020E00200200001002033
S11319C0F0B583B001AC012565700027A7702570C0
S11319D021003E20064EB0478022D205054B9A6175
S11319E02770657021000F20B04703B0F0BDC046DA
S11319F0611E0000804400411723002A01D0180012
S1131A0070478B00064A9B58002B03D0834205D0B5
S1131A101D23F4E7890088500023F0E70023EEE754
S1131A20800400201723002901D0180070470022E9
S1131A301F2800D8024A01238340D3600023F4E71F
S1131A40001800401723002901D018007047002215
S1131A501F2800D8024A0123834093600023F4E73F
S1131A600018004070B50022104B1A700023104972
S1131A701F25104E0D4C0AE00D4908E02378013370
S1131A80DBB223700F2B10D800211F2BF4D92800B0
S1131A9018400122824008691042EFD00A619B007D
S1131AA09B59002BEAD09847E8E770BD7D040020DD
S1131AB00018004080040020044A137802210B43DC
S1131AC0137053785BB2002BFBDB704700180040A7
S1131AD000B583B0124A936940210B43936101A975
S1131AE000230B7005200F4B984705200E4B984799
S1131AF00E4A137801210B43137053785BB2002B09
S1131B00FBDB0B4B19004031002204C39942FCD18A
S1131B101022084B1A60084B984703B000BDC0461A
S1131B20000400409D24000011240000001800401F
S1131B308004002000E100E0B91A000000230360E3
S1131B40436001220272427283720233C37270478D
S1131B50F0B583B005000C0001A900234B70CB70D5
S1131B6023790B70237A8B702078154B98470020CB
S1131B701F2D00D8134807222A409200E77AA37A3F
S1131B80002B01D008231F43EB089B00C31899695D
S1131B900F269640B14397403A000A439A61637A0C
S1131BA0002B06D143690122AA409343436103B049
S1131BB0F0BD42690123AB4013434361F7E7C046DC
S1131BC0612500000018004010B51E4AD3690421A5
S1131BD00B43D3611C4B2022FF321A831A7D052349
S1131BE0D20701D4180010BD03781B02C022920052
S1131BF013404178C901FF220A4013438178490008
S1131C001E220A401343C27892048021C9020A406A
S1131C10134302791204C02189020A4013430A4A79
S1131C20536093685B035B0F084908249C400C8055
S1131C3093684B8043780B71138BDB05DB0F1B011F
S1131C40D0E7C0460004004000400041E402002008
S1131C5030B50400224A1088538843438B4206D28D
S1131C608022920118201F4BCB1893420ED81E4B92
S1131C705D688022D2022A435A602022FF321A83EE
S1131C801B7DDB0703D4184B5D60052030BD452C5C
S1131C9022D8A300154AD3589F46134B1B8BDB0550
S1131CA003D5114B5D601020F0E7890849000E4B05
S1131CB0D96103E0890849000B4BD961A5200002D2
S1131CC00443094B1C80190001220B7D1342FCD0F4
S1131CD0054B5D600020D9E7034B5D601720D5E715
S1131CE0E402002000C07FFF00400041C05F00000C
S1131CF0F8B5254B1D885B886B431824834201D2B9
S1131D002000F8BD6B1E1842FAD1013C9542F7D36E
S1131D101E4B1B7D123CDB07F2D51D4C1B4B1C805C
S1131D201D0001242B7D2342FCD02024FF34174BBB
S1131D301C83002A22D0012305009D430023571E43
S1131D4009E0CE187678360234432C8002339BB2F5
S1131D5002359A4204D9CC5CBB42F2DBA4B2F4E76C
S1131D60094B1B790024002BCAD13F2AC8D8002272
S1131D7001000420074B98470400C1E7024B1B797C
S1131D800024002BF3D0BBE7E40200200040004114
S1131D9044A5FFFF511C000070B5184B1D885B88DB
S1131DA06B431824834201D2200070BD6B1E18427D
S1131DB0FAD1013C9542F7D3114B1B7D123CDB0752
S1131DC0F2D52024FF340E4B1C83002A14D00123A7
S1131DD098430023561E04E002339BB202309A4219
S1131DE008D90488A4B2CC54B342F5DACD18240A35
S1131DF06C70F1E70024D7E70024D5E7E402002063
S1131E0000400041134B1A885B88534318218342D6
S1131E1001D2080070479200013A1042F9D10E4BEA
S1131E201B7D1339DB07F4D50B4B2022FF321A83B9
S1131E3080084000D861094A1A80190001220B7DEC
S1131E401342FCD0044B198B1C200140481E8141D5
S1131E508900DEE7E40200200040004102A5FFFF04
S1131E6000B583B001AB80221A700A785A704A78A0
S1131E709A708A78DA701900014B984703B000BD54
S1131E806125000070B50C490B6A047885784078A8
S1131E900122104080014026B34303432A40D2016B
S1131EA08020834313430322224012020348034049
S1131EB013430B6270BDC04600080040FFFCFFFFE7
S1131EC0F0B5CE46474680B5194B99469B69417893
S1131ED08C4605780679C7784479807801210840D2
S1131EE0800004229343034360460840C000043248
S1131EF0934303433800084080014027BB43034316
S1131F0030000840C0018026B34303430720054046
S1131F102D02084803402B4321400903064803408F
S1131F200B434A4693610CBC90469946F0BDC046AB
S1131F3000080040FFF8FFFFFFEFFFFFF0B5DE46AB
S1131F4057464E464546E0B50100264B9B469B8AC4
S1131F50457800784242424191468878CA7894464E
S1131F600A7990464E7B0F7B8C7B8A681E494A61B6
S1131F7001214A4692009146042293434A46134360
S1131F8042460A40D20090460822934342461343F5
S1131F9062460A4012019446102293436246134358
S1131FA0084040012022934303430F40BF014020D7
S1131FB083433B430E40F601403083433343793837
S1131FC005402D02094803402B43214009030848DA
S1131FD003400B435A4693823CBC90469946A24622
S1131FE0AB46F0BD00080040EC020020FFF8FFFF04
S1131FF0FFEFFFFF10B5037A9B061B0C4289920585
S1132000920D134318494B608379C2791343428874
S11320108488224313434278D20113430B6003782C
S1132020042B11D0202B0ED1037B9B06028A134371
S1132030C28912040D490A4013430B4A9360116884
S11320400B4B0B43136010BD037B9B06028A1343A7
S1132050C289120405490A401343034A9360136872
S113206004210B431360EEE7EC0200200000FF03A1
S113207024040000082803D88000254B1B589F46E1
S1132080172044E0234A136A02210B431362002001
S11320903DE0204A936902210B439361002036E01E
S11320A01C4A138A02210B43138200202FE0194A91
S11320B0938A02210B439382002028E016490B687F
S11320C0022213430B60134B9A8419000E32CB681F
S11320D01A42FCD0104A91680E4BD96252689A6237
S11320E000229A8419001032CB681A42FCD00A4BA1
S11320F01B689BB2074A9384002008E005494422E8
S11321008B5C022003438B54002000E000207047C6
S1132110D860000000080040EC020020F0B5D6466C
S11321204F464646C0B590B0C222D200604B9A607A
S1132130604A53681E218B431A390B4353600322B0
S113214001AB1A7000245C4DE0B201A9A847013428
S1132150252CF9D10CA8002303708370802212026D
S11321608260C3700122027103738373053242706B
S11321704373524B98470520514B98474C490222D0
S1132180CB681A42FCD04A498B8A802213438B8243
S11321904C4C2368DB048A695B0E1B044A480240EA
S11321A013438B610AA80123437083700025C57013
S11321B00371063303704571444B98470420404B28
S11321C0984705AB00225D809A71DA71202119705D
S11321D05A7023689B0E3F2B68D005A8037207230F
S11321E003730333C3813A4B4381FF3B8380394BF1
S11321F00382394B984704A8002545700126867050
S11322000570364B984706202D4B99469847344B1A
S1132210984701AC6660657006239A46237026725F
S11322206672210001202F4B9846984701202E4FBB
S1132230B847666065705346237025726572210045
S11322400220C0470220B8476570657204232370DA
S11322501C336360267221000420C0470420B84761
S11322600720C84712491022CB681A42FCD0104AF2
S1132270938C80210B4393841C4A00231372537262
S11322809372D37201A901224A604B7007330B7019
S11322900A724A720020134B98470020124B984749
S11322A010B01CBC90469946A246F0BD203B94E772
S11322B000080040004000419D2400003D1F000034
S11322C07520000024608000FFFF80FFC11E000015
S11322D0FF01000080BBFFFFF51F0000851E00000A
S11322E0F122000015230000CD230000000400406B
S11322F0064A936908210B4393610122044B1A7027
S113230019000B781342FCD17047C046000400400A
S1132310000C004070B5060004000D782D02054342
S11323204B78002B02D08023DB021D434B7A002B19
S113233002D080231B031D434868012810D9431E83
S1132340184234D1022830D90223002201325B0022
S11323509842FBD812023243140080235B031D43CE
S11323600B7A002B02D080239B031D43134A53781E
S11323705BB2002BFBDB124B9847124B1E700F4ACB
S113238053785BB2002BFBDB0C4B9C601A00537838
S11323905BB2002BFBDB094A5368802149020B40E6
S11323A01D435560084B984770BD0022D2E70402D4
S11323B0344380239B021D43D2E7C046000C0040F7
S11323C051190000080C00409119000010B50400D8
S11323D00B4A53785BB2002BFBDB0A4B98470A4B42
S11323E01C70074A53785BB2002BFBDB044A51682C
S11323F080235B020B435360044B984710BDC046D7
S1132400000C004051190000040C00409119000018
S113241010B50400064B9847064B1C70064A5388B7
S11324208021C9010B435380044B984710BDC0461B
S113243051190000020C0040000C004091190000EA
S113244010B504000F4B98470F4B1C700F4A53886C
S11324501B05180F53880E490B40538053880D49B0
S11324600B40538011008022D2014B881342FCD1CF
S113247006494A8803020648024013434B80064B30
S1132480984710BD51190000020C0040000C004098
S1132490FFF0FFFFFFBFFFFF9119000010B50C789C
S11324A024020443024B9847A4B2024B5C8010BD43
S11324B041240000000C004030B5D378002B35D106
S11324C01378802B29D01B0680246402234354787C
S11324D00225AC4306D19478002C20D18024A40298
S11324E0234341605478013C012C1CD90D042D0C6C
S11324F0A024E4052C431C4384620D0CD024240640
S11325002C431C438462D478002C22D15B031CD559
S11325109378012B1ED0416117E00023D7E7C02434
S1132520E4022343DDE70D4C2340DFE741600C0464
S1132530240CA023DB05234383620C0CD0231B064D
S113254023438362D378002B03D15378013B012BBF
S113255002D930BD8161F8E78160FAE7FFFFFBFF34
S113256010B50A00C1090023002904D14309DB0185
S113257005498C4663441F242040012181401800F2
S1132580024B984710BDC04600440041B9240000E6
S11325907047000010B5054B9847054B9847054B0D
S11325A09847054B9847054B984710BD1D210000DF
S11325B0C119000091250000D11A000091250000E6
S11325C010B584B003AB00221A7003325A70013A7A
S11325D09A70013ADA70274B1B78834207D000289F
S11325E007D1244B1B78002B23D1224B187004B045
S11325F010BD03AB1B5C204AD25CFF2A00D1FEE76E
S1132600EFF3108251424A41019272B6BFF35F8FD9
S113261000211A4A1170019C1749CA5C0132CA543C
S1132620002CDED00122154B1A70BFF35F8F62B607
S1132630D7E703AAD35C104AD25C002A00D1FEE794
S1132640EFF3108251424A41029272B6BFF35F8F98
S113265000210A4A1170029C0749CA5C013ACA5413
S1132660002CC2D00122054B1A70BFF35F8F62B6F3
S1132670BBE7C0468403002078040020000100204A
S11326800F2303405B00C009181802388300181890
S11326908000014B181870470C030020F0B5D64693
S11326A04F464646C0B589468D796BB2002B26DB72
S11326B028005E4B984704000F272F40038A984652
S11326C04B461B889A46837C5B076AD4E368534471
S11326D01E00E360A3689E4200D874E0E360A37C1C
S11326E001229343A3742368002B03D0E1682A00DA
S11326F0002098471CBC90469946A246F0BD28008D
S11327004A4B984704000F272F40038A98464B46AC
S11327105E88C3689C466644C66081688E4225D044
S11327208D1BADB2424B9D4206D91D004146180097
S1132730404B98476D1AADB2A27C0023920707D58F
S1132740414628003C4B984789B24B424B41DBB28F
S11327505B00A27C02218A431343A374626892192A
S11327602B0039003548364CA047C3E7837C9B07D0
S11327700BD4837C0122934383740368002BB9D068
S11327802A00310000209847B4E7837C0222934357
S1132790837442689219002339002848284CA047C2
S11327A0A8E74368C268944663441E0041468068B3
S11327B0214B98470A007B1E9B012249591830007F
S11327C0214B984782E74A469288524500D086E7D3
S11327D09E4200D183E79B1B9DB2154B9D4216D9A7
S11327E01D0041461800134B98476B1A9BB298453D
S11327F014D9A37C04221343A3747A1E9201114BAF
S1132800D218434639000D48104CA04772E74146A0
S11328102800094B98476B1A9BB2E8E76268921943
S113282039000648094CA04764E7C04681260000E9
S1132830FF1F0000AD4B0000D949000080050020B7
S113284031390000C0040020FD5E0000853900001D
S113285010B50522054B1A70054C80212000054B4C
S1132860984700212000044B984710BD0A0300201C
S11328708005002085380000AB38000070B50E00DC
S11328800E4C062120000E4DA84704212000A84725
S1132890022120000B4B984702200B4B98473368CA
S11328A0002B04D1094B9847094B984770BD094B3D
S11328B098473368002BF7D1F4E7C0468005002021
S11328C0C5330000A5330000C12500000945000000
S11328D0FD4400001545000070B5134B9B8C9B060E
S11328E01CD41149D022CB681340D02BFBD10F4C00
S11328F0022120000E4B9847042120000D4DA847CB
S11329000D4A062120000D4B984706212000A847B8
S113291003200B4B98470B4B984770BD024910227C
S1132920CB681A42FCD0E2E7000800408005002092
S1132930C5330000A53300007D280000813300006A
S1132940C1250000C544000030B583B004001E4B0F
S1132950984780232268937201AD28001B4B984747
S113296003236B7029002000194B98471949200054
S1132970194B9847194B022200212000184DA847F3
S1132980184B002200212000A847174B01220021E8
S11329902000A847022200212000144DA84700224D
S11329A000212000A847012200212000A847216817
S11329B00B890F4A1A408023DB0013430B8100224A
S11329C00C4B1A7003B030BD81140000D1350000E7
S11329D0E135000000070020D5390000312B00004C
S11329E0E1330000612E0000352A0000313400007C
S11329F0FFF3FFFF0A03002010B50322074B1A70F0
S1132A00074C08492000084B9847084B9A68002354
S1132A1000212000064CA04710BDC0460A03002038
S1132A208005002000070020D5390000E8060020BA
S1132A303139000010B589794BB2002B06DB0E4BFF
S1132A401B78022B0FD0032B11D010BD0A4B1B781F
S1132A50012B05D0042BF8D10848094B9847F4E71B
S1132A60084B9847F1E70422034B1A70EDE703483B
S1132A70034B9847E9E7C0460A030020800500207D
S1132A8085380000F929000070B5204B1B88204AC6
S1132A909489E41AA4B2002C18D11E4A11885B1838
S1132AA09BB213801A4AD2889A4223D01A4B1B78BD
S1132AB0002B1FD1164B5B69002B23D098470028AD
S1132AC020D00022114B1A80114B9C893F2C19D91C
S1132AD00022114B1A7040240C4D2B880C4A92682A
S1132AE0D218230000210D480D4EB0472B88E4185E
S1132AF02C8070BD04220B4B1A700B4907480B4BFA
S1132B009847F6E70122044B1A70E5E70603002014
S1132B10E8060020080300200403002080050020AC
S1132B20313900000A03002000070020D5390000D5
S1132B3010B50C002C4B1B78002B07D02B4B1B69BA
S1132B40002B00D098470022274B1A702388082BAB
S1132B5002D0274B984710BD244A264B1978117090
S1132B6059785170D87800029978091851805879A9
S1132B700002197909189180D97909029B795B18A7
S1132B80D3801D4B9847002816D0184B1B787F2BF9
S1132B9015D8164BDB88002B22D00023174A13804C
S1132BA0174A13800122104B1A704023114A002146
S1132BB01448154CA047CEE70D4B9847CBE70023AC
S1132BC00E4A13800E4A13800222074B1A704023C8
S1132BD0084A00210B480C4CA0470C4B9847BAE715
S1132BE00B4B9847B7E7C0460A030020E8060020CD
S1132BF051280000000700201115000008030020E0
S1132C00060300208005002085390000892A000081
S1132C10F929000010B5024B9847024B984710BDA4
S1132C20CD140000D144000010B5074C042120004D
S1132C30064B984702212000054B98470120054B7D
S1132C409847054B984710BD80050020C533000008
S1132C50A5330000C1250000B944000010B50400EC
S1132C6001000A480A4B984720000A4B9847837C86
S1132C70DB070AD5837C0122934383740368002B0A
S1132C8003D0C16822000120984710BD80050020B0
S1132C90253800008126000000207047024B1B6885
S1132CA0188A8004400D704780050020024B1B6881
S1132CB0188A80B27047C0468005002070B582B083
S1132CC0040001AD28000D4B984720000C4B984799
S1132CD02C700023EB700B4E290030000A4B9847F0
S1132CE00F21214000223000084B98470022210088
S1132CF03000074B984702B070BDC046D135000084
S1132D005D2C000080050020E1350000093400003E
S1132D1001350000F0B583B005000F00140001AECA
S1132D203000364B98473570082C13D8002201AB7D
S1132D305A702800324B98470482032139400129F4
S1132D4038D0022943D0002303293DD1042201AB0A
S1132D50DA7032E0102C03D8012201AB5A70E8E794
S1132D60202C03D8022201AB5A70E2E7402C03D88E
S1132D70032201AB5A70DCE7802C03D8042201AB98
S1132D805A70D6E780235B009C4203D8052201AB2E
S1132D905A70CEE780239B009C4203D8062201ABE5
S1132DA05A70C6E7174A002394420DD8072201AB94
S1132DB05A70BEE7022201ABDA7001A91248134B24
S1132DC098470023002806D0180003B0F0BD032262
S1132DD001ABDA70F1E70F2129400B4C0C4B0022B8
S1132DE020000C4EB0470022290020000A4EB047B4
S1132DF0012229002000B0470123E5E7D135000076
S1132E0081260000FF03000080050020E13500005A
S1132E109D260000E13300003134000010B50100AC
S1132E200148024B984710BD800500205B38000024
S1132E3010B504000F2303400020032B00D910BD5C
S1132E4021000448044B98472000044B9847012074
S1132E50F5E7C04680050020853800005D2C0000A1
S1132E6070B5344B1B78012B0AD0022B5FD0324B48
S1132E701B69002B00D0984700222E4B1A7070BD9E
S1132E800D882D4B9B892D4A14886219934201DACF
S1132E901D1BADB2284B986800192A002849294BFC
S1132EA098476419A4B2254B1C80402D0AD0224BAC
S1132EB09C815B69002B02D09847002814D0224BD8
S1132EC09847DCE71C4BDA88204B1B881B199A4275
S1132ED0EDDD194B9B89A3420CD04023184A0021F5
S1132EE01B481C4CA047CAE70522124B1A701A4B08
S1132EF09847C4E7104B5B69002B0BD09847002818
S1132F000FD012490D4A0B8810881B180B80002320
S1132F101380E2E70522074B1A7000200E4B9847F6
S1132F20ADE70522034B1A700B4B9847A7E70B4BF1
S1132F309847A4E70A030020E806002006030020BF
S1132F4000070020FD5E0000F929000008030020AE
S1132F508005002085390000312E0000892A0000F8
S1132F6070B504000F2303400020032B00D970BD6B
S1132F702000094B9847050021000848084B984752
S1132F80AB7C0120DB07F2D5AB7C01229343AB740D
S1132F902B6898470120EAE781260000800500207D
S1132FA0AB380000F0B587B005000391029201939D
S1132FB00F2606400024032E02D9200007B0F0BDDE
S1132FC0644B9847041E00D0BDE02800624B98472C
S1132FD00700EFF310835A425341059372B6BFF3CF
S1132FE05F8F00225D4B1A70059A837CDB0708D53E
S1132FF0002AE2D00122594B1A70BFF35F8F62B6E8
S1133000DBE7837C01210B438374002A05D0012272
S1133010524B1A70BFF35F8F62B6029B7B60019BB9
S1133020BB600023FB600C9B3B600123039A1340AD
S11330305A00BB7C02218B43134304229343BB7489
S11330406BB2002B20DB019B002B6FD09CB2444B56
S11330509C425AD9398A1C001800424B9847631A7B
S11330609AB23B8A9A4257D2BA7C04210A43BA7470
S1133070721E92013C49521831003C483C4CA04716
S113308044424441E4B298E7019B002B27D09DB20F
S1133090334B9D4206D9398A1D001800314B98479D
S11330A06B1A9DB2BB7C9B0707D5398A2800314B2C
S11330B0984789B24C424C41E4B201202040400080
S11330C0BC7C02239C430443BC742B00029A310051
S11330D02648294CA04744424441E4B26DE7BB7CF6
S11330E09B0705D5BB7C02229343BB740025ECE708
S11330F0BB7C01229343BB740C9B002B25D02A007C
S1133100002100209847012457E7398A2000194BF1
S11331109847631A9AB2A4E71300029A310013483D
S1133120134CA04744424441E4B246E7BB7C01222D
S11331309343BB740C9B002B09D02A000021002070
S11331409847012439E7002437E7012435E70124AF
S113315033E7C0461D2E0000812600000001002038
S1133160FF1F0000AD4B0000C004002080050020BC
S113317085390000D949000031390000024B1B6831
S1133180802210439872704780050020024B1B6810
S1133190987A4006400E704780050020014B9860E5
S11331A099817047E806002010B5054B1A68138909
S11331B001210B4313810120024B984710BDC046E7
S11331C080050020C125000070B50320164B9847E8
S11331D0164C2268138901218B431381144A03314D
S11331E02000144EB047144A00212000B047134A6F
S11331F001212000B047124A02212000B0470421D7
S11332002000104DA84700212000A84701212000DC
S1133210A84702212000A8470B4A06212000B047F6
S113322006212000A84770BDC125000080050020AC
S1133230292C000081330000152C000049290000CE
S1133240D9280000A53300007D28000010B5002116
S11332500E20084B9847084B1B6A5B0406D4074BA7
S1133260984700210E20064B984710BD054B984700
S1133270F7E7C046451A000000440041A9310000A8
S1133280251A0000C931000070B586B0EFF3108331
S11332905A425341019372B6BFF35F8F0026294B04
S11332A01E70019D05AC2000274B9847A670274E41
S11332B0220027493000274B98473000264B984777
S11332C0264B9B8C9B0634D42449D022CB681340D4
S11332D0D02BFBD10120224B984702AC2000214B7C
S11332E098470E2302930023636023720333E3722F
S11332F0023BA37200210E201B4B984721000E2095
S11333001A4B984700220E2119481A4B984700215E
S11333100E20194B9847194B1B6A5B040FD4002DE0
S113332005D00122074B1A70BFF35F8F62B606B057
S113333070BD0A491022CB681A42FCD0CAE70C4B74
S11333409847ECE700010020E13F000080050020E1
S113335000500041F13F0000053A00000008004021
S1133360C12500003D1B0000451A0000511B000050
S11333704D320000F9190000251A000000440041F4
S113338010B50B002E339B001A50AA22520049009C
S1133390835A034C095B0B438352002010BDC04683
S11333A0106100004900064BCB5A02689383AB219D
S11333B04900425A1A43425202681383002070475C
S11333C0106100004900054BCA5AAB214900435A19
S11333D09343435203689A820020704710610000AF
S11333E010B58C00A4183434A40004196360401888
S11333F05930FF30037803498A5C1343037000207B
S113340010BDC0462061000010B58B009B183433FA
S11334109B00C31800245C6040185930FF30034BF4
S11334209A5C037893430370002010BD2061000070
S113343070B50F230B40C4186134FF3425782F4E28
S1133440B65C35432570002A29D1002B12D10325FF
S11334500A24FF3406683555032A09D149B20029E4
S113346044DB02685B01D3180A33FF3320221A704D
S1133470002070BD4CB2002C08DB5C010568AC4632
S113348064440A34FF3401252570E5E75C010568CE
S1133490AC4664440A34FF3402252570DCE7012A73
S11334A01AD1002B05D102680C210A23FF33D15411
S11334B0DEE749B2002907DB02685B01D3180A334F
S11334C0FF3304221A70D3E702685B01D3180A336E
S11334D0FF3308221A70CBE7022ABDD102685B01D0
S11334E0D3180A33FF3310221A70C1E702685B0154
S11334F0D3180A33FF3340221A70B9E72061000061
S113350070B50F230B40C4186134FF342F4DAE5CEB
S11335102578B5432570002A29D1002B12D1032523
S11335208424640006683555032A09D149B2002968
S113353044DB02685B01D3180933FF3320221A707D
S1133540002070BD4CB2002C08DB5C010568AC4661
S113355064440934FF3401252570E5E75C010568FE
S1133560AC4664440934FF3402252570DCE7012AA3
S11335701AD1002B05D102680C210933FF33D15431
S1133580DEE749B2002907DB02685B01D31809337F
S1133590FF3304221A70D3E702685B01D31809339E
S11335A0FF3308221A70CBE7022ABDD102685B01FF
S11335B0D3180933FF3310221A70C1E702685B0184
S11335C0D3180933FF3340221A70B9E72061000091
S11335D000230370437083700133C370704700008D
S11335E0F0B50C780F23234064B2CA78042A70D84B
S11335F09200894DAA589746026808335B0100215E
S11336009954002282E05C0102689446644480225A
S11336105200A55CE43A6D0778D1E432A65C7025CB
S1133620E43A2E4272D15F3DE432A5541A000832C6
S113363052010468A4182F3565710068821880202F
S113364010718A78002A1FD05801744A12185468DD
S113365080200006044354605469204350610725C8
S11336604C785A016D4B9B1858682C4024076C4EBB
S113367030402043586049785A692940090732404C
S11336800A435A61002241E05801644A1218506802
S11336904000400850605069400040085061DEE737
S11336A0002C35DB5D01026894466544802252009B
S11336B0AE5CE43A760729D180267600AA5D02271B
S11336C03A43AA55026818000830400112184020F5
S11336D05071E20F4F785D00AD182D014F4E7519F2
S11336E0686807243C4024074D4E304020436860FE
S11336F08978002900D088E05B009B181B01474AA9
S1133700D3185A68520052085A6000221000F0BDC3
S11337105D0102689446654480225200AF5C7026C5
S1133720E43A3742F2D19036AA5D20273A43AA55AB
S11337300268180008304001121880201071C8E790
S1133740002C17DB5D010268944665448022520018
S1133750AE5CE43A7607D9D180267600AA5D0327C9
S11337603A43AA5502681800083040011218402054
S11337705071AEE75D0102689446654480225200B0
S1133780AF5C7026E43A3742C0D19036AA5D302748
S11337903A43AA55026818000830400112188020E4
S11337A0107196E7002C17DB5D01026894466544AE
S11337B080225200AE5CE43A7607A7D180267600D8
S11337C0AA5D04273A43AA5502681800083040014C
S11337D01218402050717CE75D01026894466544EC
S11337E080225200AF5C7026E43A374200D08DE765
S11337F09036AA5D40273A43AA550268180008305B
S1133800400112188020107163E7696880231B0649
S11338100B436B60002279E7FC6000004007002046
S1133820FFFFFF8F0F230B4049B200290ADB083347
S11338305B010268D218402151710268D318012239
S1133840DA71704708335B010268D2188021117164
S11338500268D3180222DA71F3E70F230B4049B24E
S1133860002907DB026808335B01D3189879C00686
S1133870C00F7047026808335B01D318987980063B
S1133880C00FF6E70F230B4049B2002906DB02689C
S113389008335B01D31810225A7170470268083349
S11338A05B01D31820225A71F7E730B50F230B4080
S11338B049B200291DDB59010268521883246400AF
S11338C0145DE40614D5102582246400155502689D
S11338D052180821FF31515C890609D5E43C0821BE
S11338E0FF315454026808335B01D31801221A7162
S11338F030BD59010268521883246400145DA40683
S1133900F6D5202582246400155502685218082132
S1133910FF31515C4906EBD5C43C0821FF315454B6
S1133920026808335B01D31802221A71E0E7000031
S113393030B50C00083464010568645D6406640FE6
S11339401C25002C01D1280030BD4C010B4D2D1934
S11339502C002A616A690A4D2A40626162699B04EB
S11339609B0C920B92031343636103680831490172
S1133970591880234B710025E5E7C0464007002015
S1133980FF3F00F030B50C00083464010568645D45
S113399064071C25002C01D1280030BD0B4C4D01BF
S11339A02A51621954689B041B09094D2C40234376
S11339B0536053689B0B9B035360036808314901B0
S11339C0591840230B710025E6E7C0464007002044
S11339D0FF3F00F0094B19605A68094911408022E1
S11339E092020A435A605A68920B92035A60026820
S11339F0402182235B00D1540020704740070020FF
S1133A00FF3F00F00268137802210B431370026831
S1133A109378022BFCD07047F0B5DE4657464E46ED
S1133A204546E0B583B0C24B1F683D682B78DB097F
S1133A3014D12E8CB6B2002E00D0A9E1AE8BB6B252
S1133A40AB235B00FB5AAA225200BD5A1D403540ED
S1133A500024B84FB64B9946984684E12B8C9BB210
S1133A60002B00D1DEE0288C80B2B34B98470400D1
S1133A701F2800D9D6E0030008335B01ED18ED7967
S1133A80EDB2AB0741D0AD4A01238340116899439D
S1133A901160030008335B013A68944663440322CF
S1133AA0DA713B18AE331B78DB072ED5A44B1870A4
S1133AB03A68030008335B019B5C9B079B0F012B57
S1133AC000D181E042019F4B9B185A681201920C6D
S1133AD090B29B494A805A689204920C8A805A6830
S1133AE099490A405A60002807D16201954B9B18F6
S1133AF05B689B049B0C924A53808D4B1868A31CF3
S1133B001B01C3185B688E4998476B070ED58B4A17
S1133B100123A340116899431160854B1B681B68FE
S1133B202200083252019B180422DA712B0714D5A3
S1133B30824A0123A3401168994311607C4B1868A1
S1133B40230008335B010268944663440822DA7157
S1133B500319AE331B789B0747D4EB0614D5774A79
S1133B600123A340116899431160714B1868230025
S1133B7008335B010268944663441022DA71031926
S1133B80AE331B785B073ED4AB0600D4B0E06B4A7F
S1133B900123A340116899431160654B1868230001
S1133BA008335B010268944663442022DA710319E6
S1133BB0AE331B781B0700D49AE061490C702401D2
S1133BC00419236B984793E042015E4B9B185A6893
S1133BD09204920C5A494A805A681201920C8A80C3
S1133BE05A68920B92035A6087E755490C70620138
S1133BF0544B9B18DB891F2213404B702301C318BD
S1133C009B6A9847A9E74E490C7062014D4B9B187B
S1133C105B681B019B0C4B802301C318DB6A0021EA
S1133C209847B1E7AC8BA4B2630705D50423AB83F3
S1133C30A133FB5CDB0762D423070BD500223F4B87
S1133C401A603B4B18680823026893839D33C35C56
S1133C509B0758D4630608D5354B1868402302687F
S1133C6093836533C35CDB0650D4A30608D5304B7D
S1133C7018682023026893838533C35C1B0748D4E8
S1133C80E30608D52A4B18681023026893839533FA
S1133C90C35C5B0740D423060BD50022274B1A6074
S1133CA0234B18688023026893832533C35C9B06E7
S1133CB035D4E3050CD50022204B1A601C4B186840
S1133CC080235B00026893835B3BC35C5B0629D45F
S1133CD0A3050DD50022194B1A60154B18688023D3
S1133CE09B00026893835C3BFF3BC35C7F2B1CD827
S1133CF003B03CBC90469946A246AB46F0BD7B68F7
S1133D003800984798E783689847A3E7436998473A
S1133D10ABE703699847B3E7C3689847BBE7836990
S1133D209847C6E7C3699847D2E7036A9847DFE72D
S1133D308803002010610000F54B00009803002068
S1133D409C03002040070020FF3F00F023002E3397
S1133D509B00424612689B589E4942461068984709
S1133D600134072CC4D06300DB5B334203D04A46E2
S1133D701268126893832B42F2D0062CE6D1964B3C
S1133D801B891B09802252001340924A1360DDE70D
S1133D903C005934FF340023012294465F3291469B
S1133DA0503A92460D3A9346B8462F00B9E02A009D
S1133DB03D00474690465B01ED180823FF33EB5C5A
S1133DC05B0616D540220823FF33EA54883BFF3BA9
S1133DD042461343814A937160230B4200D187E723
S1133DE0019B1B01FB18E0331B687C493800984792
S1133DF07EE70823FF33EB5C9B06EDD520220823E6
S1133E00FF33EA54754B42469A71E5E73D00474655
S1133E10019A130008335B01ED181023EB71BB18F2
S1133E206133FF331B78DB0600D461E710005201D5
S1133E30694B9B185B689B049B0C68490B800301CE
S1133E40FB18DC331B684046984751E72A003D00C5
S1133E50474690465B01ED180823FF33EB5C9B0754
S1133E601ED502220823FF33EA545C48883BFF3BFB
S1133E70424613438371019B5A01574B9B181033DD
S1133E805B689B049B0C43808B0700D130E7019B4C
S1133E900D331B01FB185B6850493800984727E72E
S1133EA00823FF33EB5CDB07EED501220823FF3345
S1133EB0EA544A4843468371019B5B01464AD2183F
S1133EC053689B049B0C038053681B019B0C8380E9
S1133ED0DAE70822FF329A5C52076ED504200822E2
S1133EE0FF329854019842013B4B9B189B7A9B07E5
S1133EF005D5394B9B189A7A022082439A72374B24
S1133F0042469A71019B08335B013A6894466344C4
S1133F10DB79DB0751D5EBE601330134082B00D103
S1133F20E6E6DDB2019332001A4161461142F3D054
S1133F301A0008325201BA18D279D2B2217A114049
S1133F40207801404846104200D030E750461042E5
S1133F5000D05BE75846104200D077E70C201042AF
S1133F60DAD02A003D00474690465B01EB18082250
S1133F70FF329A5C1207ACD504380822FF329854F9
S1133F8001984201144B9B189B7E9B0705D5124B4D
S1133F909B189A7E022082439A7680235B42424693
S1133FA013430E4A9371019B08335B013A689446AC
S1133FB06344DB799B0700D59AE60C230B4200D1BE
S1133FC096E6019B1B01FB18D8331B680349380094
S1133FD098478DE68C0300204007002090030020C2
S1133FE000220270012343708270C3707047000086
S1133FF0F0B5CE46474680B583B004000D001600E8
S113400000236E4A13606E4A106021606D49CA69CC
S113401020200243CA6101AF7B700122BA70FB7099
S1134020063399463B7039000838674B98469847E1
S11340304B463B7039001920C047B3786A46137069
S113404069460620614B98470620614B98472B78B8
S1134050012213432B70AB78DB07FCD45D4AD37881
S113406003218B4302210B43D370D3780C218B4360
S113407008210B43D370584B1B689B03DB0E1F2B8B
S113408000D18FE02A8D9B0154490A4013432B85AC
S1134090514B1B685B02DB0E1F2B00D184E02A8D81
S11340A01F218A4313432B854B4B1B689B015B0FDA
S11340B0072B00D17AE02A8D1B0349490A40134398
S11340C02B8532782978D2017F230B4013432B7040
S11340D071782B7801220A40920004218B43134308
S11340E02B70404B6B62F378012B61D0002B06D10F
S11340F0226813890C218B4304210B4313818022F2
S1134100520000213748384B9847231D21002431A1
S1134110002204C38B42FCD12100A43100221A6086
S11341205A609A60DA6010338B42F8D10023A422DB
S1134130A3540132A3542300A6332100AE3100223C
S11341401A701A7201339942FAD12300B83321004C
S1134150D431002204C38B42FCD121005531FF31FC
S113416000221A605A609A60DA6010338B42F8D1E8
S11341700023AA225200A3520232A352230059332D
S1134180FF336134FF3400221A701A720133A342E0
S1134190FAD18022154B1A60002003B00CBC904663
S11341A09946F0BD1A3B6DE7023B78E7043B82E792
S11341B02268138908318B431381A0E798030020F8
S11341C08803002000040040612500009D240000B5
S11341D01124000000500041246080003FF8FFFFDC
S11341E0FF8FFFFF400700200F5F000000E100E0A9
S11341F0FEE70000F8B52A4A2A4B9A4211D01A0069
S1134200294B9A420DD2294A03339B1A9B08013346
S11342109B000022234822498C58845004329A423D
S1134220FAD1234A234B9A420AD2D34321495B1839
S113423003218B4304339B18002102C29342FCD117
S11342401D4AFF211D4B8B439360FD3990235B0076
S11342501B4AD1501B4AD3780325AB430224234382
S1134260D370D3780C27BB4308263343D370164B43
S1134270987B30229043202210439873997BB94352
S1134280314399739A7BAA4322439A730F4A536822
S113429080210B4353600E4B98470E4B9847FEE723
S11342A0C46100000000002004010020040000207C
S11342B0040100204408002000ED00E0000000009C
S11342C0007000410050004100480041004000419E
S11342D0B55E00000943000000B583B000226B46C0
S11342E01A70074B5B68DB061B0F69468B70CA703C
S11342F00A714A706846034B984703B000BDC04634
S113430000400041C91B0000F0B5C64600B50121BC
S11343100124504B1970BFF35F8F62B64E4B0022DD
S11343201A705A709A70DA7019714C4B98474C4B4A
S113433048215A5C22435A543422995C0F20814309
S11343409954995C0C38014399544630195C2143C3
S11343501954995C3A3801409954995C21300143CD
S11343609954404A136A10210B4313623E4A3F4B4F
S11343705A80802252003E4B5A60DA69002AFCD1EE
S113438022323B4BDA60DA69002AFCD1394A384BD5
S11343901A60DA69002AFCD1354A538B10210B4389
S11343A053831300DA69002AFCD12E4C226A80233D
S11343B05B01134323622D4B98462F4B4246538097
S11343C02E4BA9277F011F8000261E82C82292003F
S11343D01A831A8802252A4392B21A80284B9847D6
S11343E0284B9847284B9847284B9847284B984781
S11343F0284B9847226A80231B0113432362264BD0
S113440042465380254B1F801E82254A1A835A7BBD
S113441010210A435A735A7B01210A435A731A889A
S11344202A4392B21A801F4B8021C902C022520033
S11344309950C42080001A581B4C22401A5019600D
S113444080231B05194A1360194A1360194B9847B6
S1134450FEE7C046000100207804002095250000F6
S1134460004400410004004016420000000C0040DB
S113447000100042160030001C42000000300042D0
S1134480D9420000751400007546000091460000F2
S11344902D0F00005D0B00001B420000002C0042A9
S11344A04D08000000E100E0FFFF00FF0844004168
S11344B014440041F502000010B5014B984710BDAB
S11344C06112000010B5014B984710BD9112000015
S11344D010B5064B9847064B1B78002B00D110BD36
S11344E0044B9847044B9847F9E7C0469D100000D9
S11344F0A20300209D2C0000A512000010B5014B62
S1134500984710BD6112000010B5014B984710BDCB
S11345108112000010B5014B984710BD71120000C4
S11345200122024B1A7001207047C046A2030020EA
S11345300022014B1A707047A203002010B5002915
S113454002D1034B984710BD024B9847FBE7C04686
S1134550A3120000A11200008922214B5A62190003
S1134560873A0B7E1342FCD01D4B5B8B5B0730D428
S11345701B4B5A681B490A405A6028229A5C1A4B02
S11345801A70174902220B7E1342FCD02823144AC6
S1134590D25C154B5A70124902220B7E1342FCD096
S11345A00F4B59688022D2020A435A605968C022CC
S11345B092020A435A602822995C0B4A91705A8BE2
S11345C010210A435A831A00D369002BFCD10648F0
S11345D07047034A5168C0239B020B435360F6E7BC
S11345E000100042FFFFFBFFA403002070B51E4B28
S11345F0187059709A7088221C4B5A621900873AB5
S11346000B7E1342FCD0194B5B8B00205B0716D446
S1134610154E164A282501210424835D5355137E23
S11346200B42FCD0538B234213D101300328F4D125
S11346300E4A5168C0239B020B43536070BD0B4A62
S11346405168C0239B020B4353604130084B984789
S1134650F4E7064A5168C0239B020B43536042208F
S1134660034B9847EAE7C046A80300200010004225
S11346701D0B000010B51022C4210120034CA047DB
S1134680002200210020A04710BDC046ED450000D7
S11346907047000081221C4B5A6219007F3A0B7E3E
S11346A01342FCD0184B5B8B5B0707D5164A516845
S11346B0C0239B020B43536014487047124B5A6843
S11346C013490A405A6028229A5C104B1A700E490A
S11346D002220B7E1342FCD00B4B59688022D2027B
S11346E00A435A605968C02292020A435A60282237
S11346F0995C064A51705A8B10210A435A831A0056
S1134700D369002BFCD1D7E700100042AC03002092
S1134710FFFFFBFF10B51A4B18708022194B5A6229
S113472019007F3A0B7E1342FCD0164B5B8B5B0760
S113473012D42823134AD054110001220B7E1342B1
S1134740FCD0104B5B8B5B0710D40E4A5168C0231E
S11347509B020B43536010BD0A4A5168C0239B025D
S11347600B4353604120084B9847F4E7054A5168CE
S1134770C0239B020B4353604220034B9847EAE754
S1134780B0030020001000421D0B000010B5E32010
S1134790164B98470022164B1A820A211A00102041
S11347A09073937BDB06FCD5013989B20029F7D1DC
S11347B0104B9847104B186003781B02407818433D
S11347C00E4B18800E4B98470E4A0F4B0F4CA047C8
S11347D000220F4B0F4CA0470F4A104B104CA04720
S11347E0104B9847104B186010BDC0461547000089
S11347F000300042954600001C04002042080020BE
S1134800315E0000D7A3703D0AF765409D52000059
S1134810E0FFEF40354C0000CDCCCCCCCC6C474015
S11348209D570000C95D0000F403002010B5E52089
S1134830164B98470022164B1A820A211A001020A0
S11348409073937BDB06FCD5013989B20029F7D13B
S1134850104B9847104B186003781B02407818439C
S11348600E4B18800E4B98470E4A0F4B0F4CA04727
S113487000220F4B0F4CA0470F4A104B104CA0477F
S1134880104B9847104B186010BDC04615470000E8
S113489000300042954600001C040020400800201F
S11348A0315E0000D7A3703D0AF765409D520000B9
S11348B0E0FFEF40354C0000CDCCCCCCCC6C474075
S11348C09D570000C95D0000000400200022430839
S11348D08B4274D303098B425FD3030A8B4244D3C4
S11348E0030B8B4228D3030C8B420DD3FF22090206
S11348F012BA030C8B4202D31212090265D0030BC5
S11349008B4219D300E0090AC30B8B4201D3CB03BA
S1134910C01A5241830B8B4201D38B03C01A5241FC
S1134920430B8B4201D34B03C01A5241030B8B42FE
S113493001D30B03C01A5241C30A8B4201D3CB02E9
S1134940C01A5241830A8B4201D38B02C01A5241CE
S1134950430A8B4201D34B02C01A5241030A8B42D1
S113496001D30B02C01A5241CDD2C3098B4201D3E9
S1134970CB01C01A524183098B4201D38B01C01A67
S1134980524143098B4201D34B01C01A52410309DE
S11349908B4201D30B01C01A5241C3088B4201D38D
S11349A0CB00C01A524183088B4201D38B00C01A3A
S11349B0524143088B4201D34B00C01A5241411A61
S11349C000D20146524110467047FFE701B500206E
S11349D000F0F0F802BDC0460029F7D076E7704732
S11349E003460B437FD4002243088B4274D303094C
S11349F08B425FD3030A8B4244D3030B8B4228D3ED
S1134A00030C8B420DD3FF22090212BA030C8B4212
S1134A1002D31212090265D0030B8B4219D300E0B2
S1134A20090AC30B8B4201D3CB03C01A5241830B37
S1134A308B4201D38B03C01A5241430B8B4201D3E7
S1134A404B03C01A5241030B8B4201D30B03C01A10
S1134A505241C30A8B4201D3CB02C01A5241830A8A
S1134A608B4201D38B02C01A5241430A8B4201D3B9
S1134A704B02C01A5241030A8B4201D30B02C01AE3
S1134A805241CDD2C3098B4201D3CB01C01A52414A
S1134A9083098B4201D38B01C01A524143098B42D3
S1134AA001D34B01C01A524103098B4201D30B01BC
S1134AB0C01A5241C3088B4201D3CB00C01A5241E1
S1134AC083088B4201D38B00C01A524143088B42A6
S1134AD001D34B00C01A5241411A00D2014652413F
S1134AE0104670475DE0CA0F00D04942031000D35E
S1134AF04042534000229C4603098B422DD3030AB3
S1134B008B4212D3FC22890112BA030A8B420CD3C2
S1134B10890192118B4208D3890192118B4204D3EB
S1134B2089013AD0921100E08909C3098B4201D36B
S1134B30CB01C01A524183098B4201D38B01C01AA5
S1134B40524143098B4201D34B01C01A524103091C
S1134B508B4201D30B01C01A5241C3088B4201D3CB
S1134B60CB00C01A524183088B4201D38B00C01A78
S1134B705241D9D243088B4201D34B00C01A52414F
S1134B80411A00D20146634652415B10104601D3DC
S1134B904042002B00D54942704763465B1000D366
S1134BA0404201B5002000F005F802BD0029F8D00C
S1134BB016E770477047C0461C2101231B04984226
S1134BC001D3000C10391B0A984201D3000A08399A
S1134BD01B09984201D30009043902A2105C401851
S1134BE07047C046040302020101010100000000F5
S1134BF000000000414208401C2101231B0498428C
S1134C0001D3000C10391B0A984201D3000A083959
S1134C101B09984201D30009043902A2105C401A0E
S1134C207047C0461B1C1D1D1E1E1E1E1F1F1F1F5E
S1134C301F1F1F1FF0B557464546DE464E46E0B5DA
S1134C404C000E0387B0834692461D008046360B07
S1134C50640DCF0F002C4FD06F4B9C4235D0802376
S1134C60420F1B04F600134333439946C30098468E
S1134C706A4B00269C460023644403932B031B0BBE
S1134C809B466B00ED0F50465B0D01955ED0624A6A
S1134C90934253D05A46D1008022400F120402435B
S1134CA00A4393465246D1005C4A94460022634428
S1134CB03800684084460290E41A16430F2E00D947
S1134CC0B4E0574BB6009B599F46030033439946C3
S1134CD06CD100239846023308260393CEE7CB46D3
S1134CE04146039A0197022A65D1019B4A4C9C468E
S1134CF00023002298466BE00300334399464ED0CC
S1134D00002E00D1BCE13000FFF756FF03000B3B3F
S1134D101C2B00DDACE11D22D31A5A460100DA40F7
S1134D2008398E401300334399465B468B409846BE
S1134D3000233C4C0026241A03939FE751465A460D
S1134D40114329D1002293460232B1E75946014367
S1134D501ED05B46002B00D19EE15846FFF72CFF86
S1134D6003000B3B1C2B00DD8FE102005946083A7F
S1134D7091408B461D21CB1A5146D9400B00594610
S1134D800B4351469B469140264B00221B1A8FE74A
S1134D90002301229B468BE75146032288E7002328
S1134DA09846013304260024039367E70323B1469E
S1134DB003930C2662E7032A00D15CE2019B012ADB
S1134DC000D0E4E113409C460023002400229846CE
S1134DD000211203130B0A0D12051A432305124C6A
S1134DE040462240134362465B00D2075B081343EC
S1134DF0190007B03CBC90469946A246AB46F0BDAC
S1134E00002380229C4612039846034CE0E70023CB
S1134E10014C00229846DBE7FF07000001FCFFFF7E
S1134E20246100000DFCFFFFFFFF0F80D94500D96E
S1134E3039E100D134E1002346464D469A46013C0F
S1134E405B460A0E1B021A430B02170C039313044E
S1134E501B0C3900280090460193FFF737FD020030
S1134E60019B83465A43280039009146FFF7B4FD5D
S1134E70350C09040D43A9450DD95B464544013B56
S1134E80A84500D93AE1A94500D837E102235B429D
S1134E909C464544E3444B46EB1A390018000493FE
S1134EA0FFF714FD019B050043433900049899461C
S1134EB0FFF792FD330409041B0C0B43994509D9F0
S1134EC043446A1E984500D91AE1994500D817E170
S1134ED0023D43444A469B1A5A4612042A43039904
S1134EE09346100C0A0C914609045A46090C4E4686
S1134EF00D001204120C4543059151437243704353
S1134F0052190E0CB218954203D980256D02AC4695
S1134F106044150C09041204090C28185218834221
S1134F2000D2CEE000D1C8E01D1A53469E1AB24505
S1134F3092415242AB1A9A46984500D117E1390082
S1134F401800FFF7C3FC019B05004343390050469A
S1134F500493FFF741FD04980B04310C1943884274
S1134F6009D941446B1E884500D907E1884200D81D
S1134F7004E1023D4144049BCB1A18003900049318
S1134F80FFF7A4FC019B8246434339000498019334
S1134F90FFF722FD01980B043104090C19438842E0
S1134FA00DD953464144013B884500D9E8E0884285
S1134FB000D8E5E002235B429C464144E244019B65
S1134FC02D04CE1A51462943059D4F462A000B0451
S1134FD0080C1B0C5A4345437B4378435B19170C5D
S1134FE0FB189D4203D980256D02AC4660441D0C1C
S1134FF012041B04120C28189B18864200D293E05A
S113500000D18EE001231943A04BE318002B00DCF0
S113501099E04A0700D09EE05A46D20106D55A4686
S11350209B4B1A4080239346DB00E318994A934232
S113503068DD0123029A984C1A400023944698464E
S11350400022C5E680224B46120313420AD05B4677
S1135050134206D11A431203120BAC4688468E4CF7
S1135060B6E64B461A431203120BBC468A4CAFE613
S113507003005A46283B9A4000239146984657E637
S11350805846FFF799FD203040E603005246283B7E
S11350909A400021934677E6FFF78EFD20305FE6C5
S11350A0884500D2C7E64B46DE075D0843465B08E9
S11350B01E434346DB079A46C2E60025924500D3C9
S11350C033E7039E5946B446E244B245AD416D42CE
S11350D04544EB180139984507D2984200D97FE03E
S11350E000D1BCE01D1A8B461FE79845FAD1039DF9
S11350F05545F2D943468B461D1A16E79B46CAE628
S11351001500E7E65A46C90852070A435B0590466C
S11351105C0D5A460123029952021940120B8C4627
S113512056E6002B00D16FE746444A1EB04529D904
S11351301100864200D065E7039A934200D061E7EC
S113514062E7012149420120C21A382A21DD029B6B
S113515003409C4638E60F220A40042A00D15BE74C
S11351600A00111D914292415242934454E7474B25
S1135170E318002BE5DD01225242F2E71D00FAE6B6
S11351809A461CE7B04239D86ED011003AE7029330
S11351903AE71F2A3CDC20239B1A0C00584699400E
S11351A098404B1E99415B46D440D340204308436A
S11351B01A00430709D00F230340042B05D0010034
S11351C0081D88429B415B42D21813023AD5012341
S11351D0029A01241A400023944698460022F7E5D7
S11351E0022149428C46039DE344AC46E244AA456D
S11351F0AD416D424544ED182D1A96E68A1E039979
S11352004D008D42894149424144761803958FE708
S11352101F204042C31A5846D8400300202A28D0F1
S113522040205D46821A954029434A1E9141194304
S1135230072300220B4009D00F2300220B40080053
S1135240042BBDD1010053075202120BC9081943A4
S1135250012388460299002419408C46B8E552453A
S1135260BED88B46002560E6039D9D42C6D311003F
S113527062E70025D8E780225B4612031A43019BAC
S11352801203120B9C468846034CA1E5FF03000061
S1135290FFFFFFFEFE070000FF070000F0B55746C2
S11352A04546DE464E46E0B50C0398464E00230BB9
S11352B087B0070092469B46760DCD0F002E6BD02B
S11352C06D4B9E4235D080245B46420F2404DB00A4
S11352D014431C43C3009946684BA3469C460023D1
S11352E000276644029343461C035A00DB0F5046D2
S11352F0240B520D984600D176E05F4B9A426DD054
S11353008023410F1B040B435C49E4008C461C437F
S1135310C300002062444146B6186940721C0191E2
S1135320944607430F2F00D9B0E0554ABF00D25925
S113533097465B460343994600D087E000239B468B
S1135340023308270293CEE742460192022867D02F
S1135350032800D10EE2012800D062E100230024DA
S11353600022994601990140CDB2002112030B0D90
S1135370120B1B051343434A240513401C436400CA
S1135380ED0764082C434846210007B03CBC904616
S11353909946A246AB46F0BD034399464FD05B46BF
S11353A0002B00D189E15846FFF706FC03000B3BB4
S11353B01C2B00DD7AE11D22D31A3A0001005C4661
S11353C0DA4008398C4013008F4023439B46B9468A
S11353D000232D4E0027361A029384E753462343B5
S11353E02AD10024022096E75346234320D0002CE0
S11353F000D157E12000FFF7DFFB03000B3B1C2B20
S113540000DD49E11D21CB1A51460200D940534623
S1135410083A944093400C431B4A121A00207AE73E
S11354200125019B144C1D400023002299469CE752
S11354300024002201206EE7534603206BE700237B
S11354409B4601330427002602934CE7032381463D
S11354500C27029347E78022002300251203994674
S1135460054C82E75C464B4602986FE75C464B4628
S1135470019502986AE7C046FF07000001FCFFFFA0
S113548064610000FFFF0F800DFCFFFF4A464946A0
S1135490170C1A0C1B041B0C08041900000C4143C4
S11354A01500884619007D437943039589462900F0
S11354B0150045434D44029545462D0CAA46029DD0
S11354C05544A94506D98A46802149028946CA44D9
S11354D051460391290C0491414609042D04090CF9
S11354E088462900250C24044144240C05912100FC
S11354F041438846210079438A46684341465044E3
S11355008146080C48446F43824503D980214902EF
S113551089464F44010C8946390049440291414669
S11355200F0404993F0C88460004C0198044414686
S1135530049159460F0C0904090C884659438A46BC
S113554039005143894641464A435146090C8B462A
S11355507B43D2185A44934203D980235B029B466F
S1135560D94451460904090C8A46414661437C43A7
S1135570130C12044B445244A1468A463C00414653
S11355806C434D4351464D440F0C7D19A94503D935
S11355908021490288464444049F0399B846414403
S11355A08B468345804141428846514608042F0476
S11355B0000C3F18584602991018894690429241AF
S11355C04F44BA46524299469346C244D144CB44CE
S11355D08F42BF41C245894199459B4193459241C0
S11355E07F4249422D0C52420F435B4213437F19C1
S11355F0FF185B463C19DB0D059A64021C43430209
S113560013435D1EAB415A46C00D0343520213437C
S1135610E20156D501205A0803401343E20713431D
S113562064085A48604400284DDD5A0709D00F2207
S11356301A40042A05D01A1D9A429B415B42E41881
S11356401300E20104D58020514AC0001440604494
S1135650504A904200DDE3E60125DB0862071A4365
S11356606402019B9146220B4405640D1D407CE6B7
S1135670802259461203114208D0144206D1224313
S11356801203120B45469946434C6EE65B461A4399
S11356901203120B404C68E603005446283B9C401E
S11356A00023B9E6FFF788FA2030A6E60300283B7A
S11356B09F400023BB4699468AE6FFF77DFA2030D7
S11356C074E6B446ADE701252A1A382A06DD019BA3
S11356D000241D4000230022994646E61F2A21DCAF
S11356E020252000AD1A1E00AB40A840D6405D1E08
S11356F0AB4130431843D440430709D00F23034040
S1135700042B05D00300181D98429B415B42E4180A
S1135710230221D50125019B01241D4000230022E1
S1135720994622E61F2521006D42281AC14008002F
S1135730202A1DD05F35AA1A944023435C1EA3413E
S1135740072503431D400022002D09D00F22002409
S11357501A401800042AD6D1030065076402220BFC
S1135760DB082B4301259946019B00241D40FCE5E1
S11357700024E2E780220125120322430199120347
S1135780120B0D409946044CEFE5C046FF030000A0
S1135790FFFFFFFEFE070000FF070000F0B54646CE
S11357A0D6464F460C03C0B5CD0F4E00610A440FD8
S11357B00C43C1005800400D84468A460F0019036B
S11357C0500F490A0143C648760DA846DB0FD200A4
S11357D0844500D1D8E001204340AB4200D1A6E08B
S11357E06046351A002D00DC05E1002810D10B00BD
S11357F0134300D1D7E06B1E002B00D04BE153467E
S11358009F1ABA458041641A4042241A01261EE0B8
S1135810B34B9E4248D080231B041943382D00DD2E
S113582019E11F2D00DD4CE120230F005B1B10004C
S11358309A409F40E840531E9A41E940074317436A
S11358405346DF1B611ABA45A44164420C1B230270
S113585000D4C5E06402650A002D00D1F6E02800FA
S1135860FFF7AAF90300083B1F2B00DDE9E0202223
S11358703C00D21A9D40D4409F4025439E4200DD07
S1135880DBE09E1B731C1F2B00DD0AE12022380085
S1135890D21A290097402C009140D8407A1E974193
S11358A0DC40002601430F437B0709D00F233B4014
S11358B0042B05D03B1DBB42BF417F42E4191F00AE
S11358C0230225D5864B01369E4200D1AFE0854B9D
S11358D001251C4043466207FF086402760517430E
S11358E0240B760D1D4000212403230B0C0D7E4A4E
S11358F024051C431440330523435B00ED075B0878
S11359002B43380019001CBC90469946A246F0BDB2
S1135910012543466207FF081743E4081D40704B06
S11359209E4236D024037605240B760DDBE76346CE
S1135930F31A002B00DC94E06046002835D0684858
S11359408642B1D080273F043943382B00DCFDE088
S11359500A43170000217A1E974157445745804156
S1135960091944420C1923023AD55D4B01369E4273
S113597000D14BE101225B4B1C407B0817401F43C5
S1135980E207174364088FE70800104300D024E7B8
S113599021E723003B4300D1B9E1802212031443E1
S11359A02403240B9FE72E007EE70800104300D158
S11359B0CAE0581E8446002800D0E7E0524452450D
S11359C0804164184042241817000126230207D599
S11359D00226CFE764462C4300D1B3E12C0067468E
S11359E07B0700D062E76307FF081F430125434696
S11359F0E4081D4093E7002D78D1751C6D056D0DED
S1135A00012D00DCF2E05046801A8245BF41651A40
S1135A107F42ED1B8446280200D48CE05046171ABE
S1135A20BA4292410C1B5542651B984614E7012566
S1135A30434600241D40002755E72A4CF61A2C4003
S1135A4032E73D0028388540002717E73800FFF784
S1135A50B3F8203006E70A43170000217A1E974165
S1135A60EEE6002B00D0E5E0731C9C465B055B0D65
S1135A70012B00DC9FE01A4B9C4500D1C5E0524449
S1135A8052458041641840422418E70752081743DE
S1135A906408664608E71248854200D185E01D0087
S1135AA0BCE629001F3EF140202B00D17FE04022BC
S1135AB0D31A9D402F437D1EAF4100240F4300267F
S1135AC08EE72B000F00203BDF40202D71D04023B8
S1135AD05D1BA9400A43511E8A4100211743AFE6CA
S1135AE0FF070000FFFF7FFFFFFF0F80002E3ED067
S1135AF0B34EB44545D0802636046D423443382D28
S1135B0000DDA8E01F2D00DD1FE120262700504600
S1135B10761BB740E84007435046B040461EB041AC
S1135B20EC403843171ABA4292410C1B5242A41A51
S1135B30664698468BE6644667462C4300D08BE65F
S1135B40002500260027EAE61E00ADE61F2B60DCD8
S1135B502027F81A0F00844687401000D8400743D6
S1135B6060468240501E8241D9401743F5E6260024
S1135B705046064305D0ED43002DD3D0904EB44596
S1135B80BDD10C001700664698468DE68C488342CA
S1135B900BD06346D9E6002D00D096E008001043F0
S1135BA000D1E2E00C0017009846854E7CE6002503
S1135BB080E700218EE7230050460343002E00D0E7
S1135BC0A8E0002B00D1DEE00B00134300D16BE60C
S1135BD0524452458041641840422418170023025D
S1135BE000D4FDE6774B66461C405DE62500504632
S1135BF00543002ECFD1002D4FD10C00144300D10A
S1135C00A0E00C00170098464EE6664600240027E4
S1135C1085E61F000800203FF8400700202B00D134
S1135C208EE04020C31A99400A43511E8A41002144
S1135C30174392E6002E14D126005046064362D044
S1135C40DB43002B5CD1871897429241641852427F
S1135C50A418664687E650462043441EA04100240B
S1135C6060E7574EB4454ED0802636045B42344339
S1135C70382B00DD7FE01F2B00DD8BE02026270082
S1135C805046F61AB740D84007435046B040461E27
S1135C90B0410743DC40BF18D6E70D00154300D1DF
S1135CA002E65046801A8245BF41651A7F42ED1BC9
S1135CB08446280200D48DE65046171ABA4292410F
S1135CC00C1B5242A41A9846EEE50D00154300D170
S1135CD06BE750466707C00807438020E4080003C9
S1135CE0044207D0CD08054204D12C009846D708B9
