S0120000537061726B4E6F6465382E7372656353
S1130000282F0020DD2A0000D92A0000D92A000068
S113001000000000000000000000000000000000DC
S1130020000000000000000000000000D92A0000C9
S11300300000000000000000D92A0000D92A0000B6
S1130040D92A0000D92A0000D92A0000D92A0000A0
S1130050B5330000D92A0000D92A0000C94900009C
S1130060D92A0000D92A0000D92A0000D92A000080
S1130070D92A0000D92A0000D92A0000D92A000070
S1130080D92A0000D92A0000D92A0000D92A000060
S1130090D92A0000D92A0000D92A0000D92A000050
S11300A0D92A0000D92A0000D92A0000E53300002B
S11300B00000000010B5064C2378002B07D1054B37
S11300C0002B02D0044800E000BF0123237010BDC0
S11300D0180200200000000034780000084B10B51E
S11300E0002B03D00749084800E000BF0748036815
S11300F0002B00D110BD064B002BFBD09847F9E72D
S1130100000000001C020020347800003478000055
S11301100000000070B5002304E00021224AD154FD
S11301200133DBB23F2BF8D91F4BCD221A701F4A83
S11301301288110A59709A701D4A1288110AD970CE
S11301401A711C4A12785A711B4A1288110A997141
S1130150DA711A4A12781A72194A12785A72194ABA
S113016012789A72184A1278DA72184A12781A7344
S113017000230D2207E0511C1548C45C0A4884542E
S11301800133DBB2CAB20B2BF5D9074D114B1B78E7
S1130190AB54114C2000114B9847402229002000F9
S11301A00F4B984770BDC0462403002098040020DC
S11301B0B6050020E90200201C030020B20500203F
S11301C08804002001030020E80200208D040020A0
S11301D064030020C005002000060300DD2D00009C
S11301E0012E000010B5254C402221002448254B47
S11301F098472378CD2B00D010BD204B5A7812029B
S113020099780A4320490A80DA78120219790A4354
S11302101E490A8059791E4A11709A791202D979B5
S11302200A431C490A801A7A511E8A411A490A70E3
S11302305A7A511E8A4119490A709A7A511E8A4182
S113024017490A70DA7A511E8A4116490A701B7BD3
S11302505A1E9341144A137000230D2207E0511CC7
S11302600648805C114AD0540133DBB2CAB20B2B6E
S1130270F5D9024B9A5C0E4B1A70BDE7240300209B
S1130280000603009D2D000098040020B605002000
S1130290E90200201C030020B2050020880400208D
S11302A001030020E80200208D04002064030020E4
S11302B0C005002010B5204B9847F0221F4B1A8030
S11302C0FA22D2001E4B1A8002221E4B1A701E4ABA
S11302D01E4B1A803F221E4B1A802E3A1D4B1A8049
S11302E019321D4B1A80183A1C4B1A80113A1C4BB8
S11302F01A7000221B4B1A701B4B1A701B4B1A707E
S11303001B4B1A701B4B1A705A70BD21997002391D
S1130310D970023919710239597102399971023946
S1130320D9711A725A729A72DA720632124B1A70B0
S1130330124B984710BDC046692D00009804002058
S1130340B6050020E902002013ADFFFF1C030020C6
S1130350B4050020B0050020D00200208A0400204B
S1130360B20500208804002001030020E8020020D8
S11303708D04002064030020C0050020E501000076
S113038030B585B0144B1C880F2294431C80134B4A
S11303901B78134A12781349097813480078134DCF
S11303A02D780295124D2D880195E408E4B200944D
S11303B0104CA047104B1988104B18786422104B2E
S11303C09847104B1978104B1878104B98471048E1
S11303D0104B984705B030BD98040020B4050020A8
S11303E08A040020D0020020B00500200103002070
S11303F01C030020F13D0000B6050020E9020020A6
S1130400693C000088040020B205002085450000F6
S113041064030020993E000010B500230E4A1360C7
S11304200E4A13600E4A13600E4A136005E09900E9
S113043000200D4A88500133DBB21E2BF7D900236C
S11304400A4A13700A4A13700A4A13600A4A13606C
S11304500A4B984710BDC04678030020940400203E
S113046020030020800300200C04002088030020C7
S11304708C04002084030020740300202D2200003B
S1130480F8B5CE46474680B5B64B9847002800D10C
S1130490A5E0B54B9847002800D194E0B348B44B8D
S11304A09847B44B1968B448B14CA047B34B19787A
S11304B0B348A047B34B1968B348A047B34B196876
S11304C0B348A047B34D2968B348A047B34E316839
S11304D0B348A047B34F3968B348A04731682B6885
S11304E0C818B24EB0470100B148A047B14B1888B4
S11304F02B6858433968B0470100AF48A047AF4B59
S113050098461B6899466427180078432968B047C1
S113051002004946AA48A04743465B68994618002A
S113052078432968B04702004946A648A047434695
S11305309B689946180078432968B04702004946E9
S1130540A148A0474346DB689946180078432968C8
S1130550B047020049469D48A04743461B69994657
S1130560180078432968B047020049469848A047D4
S113057043465B699946180078432968B0470200EE
S113058049469448A04743469B69994618007843D6
S11305902968B047020049468F48A0474346DB69B3
S11305A09846180078432968B047020041468B48B2
S11305B0A0478B4B54221A7004325A70383A9A70FE
S11305C00024032321E0874B9847002803D0864862
S11305D0674B984765E78548654B984761E7844BC7
S11305E0984700280BD17F4B9847002803D08148B7
S11305F05F4B984755E780485D4B984751E77F48E4
S11306005B4B98474DE70134E4B2A1B2694A1288C2
S1130610D20891421ED27A4A126812191178090935
S1130620784D685C6E49C854581C80B216780F2205
S11306303240AA5C0A549A1C92B220208854033394
S11306409BB2372BDFD908000022CA54484B984785
S11306500023D8E76C48464B9847614B52221A70E6
S113066006325A70383A9A700024032301E00134A8
S1130670E4B2A1B24F4A1288D20891421ED2634A10
S113068012681219117809095E4D685C5449C854FE
S1130690581C80B216780F223240AA5C0A549A1C65
S11306A092B22020885403339BB2372BDFD9080041
S11306B00022CA542E4B98470023D8E752482C4BAB
S11306C09847474B53221A7005325A70383A9A7039
S11306D00024032301E00134E4B2A1B2354A1288B4
S11306E0D20891421BD24A4A165D3209454DAA5C92
S11306F03B49CA545A1C92B20F203040285C88549B
S11307009A1C92B22020885403339BB2372BE2D92F
S113071008000022CA54164B98470023DBE73A48E6
S1130720134CA0473B4D29783B48A0473B4E3178BA
S11307303B48A0473B4B19883B48A04731782B786E
S1130740CB1AD90FC91849103848A047384B1B7821
S1130750002B03D10CBC90469946F8BD354B984705
S1130760F8E7C046C5450000D1450000986C00007C
S11307706D34000074030020246D00007A0C002006
S1130780386D0000840300204C6D000078030020C5
S1130790606D000094040020786D000020030020A8
S11307A0946D000080030020B06D00002953000008
S11307B0C46D000098040020D86D00000C040020D3
S11307C0EC6D0000906E00000C6E00002C6E0000BA
S11307D04C6E00006C6E00008C6E0000B06E000069
S11307E0BC06002079450000B06C0000D06C00000D
S11307F0A1400000F06C0000046D0000186D0000C2
S1130800700C0020406C000090710000680C002007
S11308109C04002088030020D06E00008C0400207B
S1130820E46E0000620C0020F86E0000106F0000FF
S1130830E80200208922000010B584B00B4B1B682D
S11308400B4A12680B4909680B48008803900B484F
S1130850007802900A48007801900A4800680090E5
S113086009480A4CA04704B010BDC046200300202C
S11308709404002078030020620C00208C040020E3
S11308808803002080030020286F00006D340000DE
S1130890F0B5DE4657464E464546E0B58DB0804637
S11308A0CE4B1B78002B13D1CD4B1B78002B00D1E2
S11308B082E1CC4B1B689946CB4B1B680193002209
S11308C0CA4B1A8000260C239B46C94B9A468EE0DD
S11308D0C84B984765E15B46042B07D853461B0A6F
S11308E002AA1370130052465A708BE0002E08D1EE
S11308F073004A46D25C02A90A704B445B784B7081
S113090080E073004A46D25C02A90A704B445B78CB
S11309104B7077E052465400A4B281E06400A4B264
S11309208AE06400A4B293E06400A4B29CE0640092
S1130930A4B2A5E06400A4B2AEE06400A4B2B7E03F
S11309406400A4B2C0E06400A4B2C9E06400A4B22C
S1130950D2E06400A4B2DBE06400A4B2E4E064008A
S1130960A4B2EDE06400A4B2F6E06400A4B2FFE037
S11309706400A3B29A4608E195009C480388DA090A
S1130980520004AFD25F2A4392B29B055B0D0380F1
S11309900131C9B20729EFD9630003A9100AC85469
S11309A00133CA540134E4B2012C0BD88F4A1388A2
S11309B0E021C9000B4002A9095D0B43138000210B
S11309C00022E7E703AB19785A7894469878DA78E6
S11309D05D46023DABB29B46B300019CE154591CF9
S11309E065466554991C60540333E2540136052E60
S11309F000DDD2E05B46022B00D96CE70B2302AA90
S1130A001370537002AB1B78524612125A40802165
S1130A10114200D17EE752465200774C5440A4B2B2
S1130A205A00D2B221124A408021114200D175E706
S1130A306400714A5440A4B29A00D2B221124A40CE
S1130A408021114200D16CE764006B4A5440A4B287
S1130A50DA00D2B221124A408021114200D163E768
S1130A606400654A5440A4B21A01D2B221124A4029
S1130A708021114200D15AE764005F4A5440A4B275
S1130A805A01D2B221124A408021114200D151E7C9
S1130A906400594A5440A4B29A01D2B221124A4085
S1130AA08021114200D148E76400534A5440A4B263
S1130AB0DB01DBB22212534080221A4200D13FE70D
S1130AC064004D4B5C40A4B202AB5B7822125A40E6
S1130AD08021114200D136E76400474A5440A4B251
S1130AE05A00D2B221124A408021114200D12DE78E
S1130AF06400414A5440A4B29A00D2B221124A403E
S1130B008021114200D124E764003B4A5440A4B23E
S1130B10DA00D2B221124A408021114200D11BE7EF
S1130B206400354A5440A4B21A01D2B221124A4098
S1130B308021114200D112E764002F4A5440A4B22C
S1130B405A01D2B221124A408021114200D109E750
S1130B506400294A5440A4B29A01D2B221124A40F4
S1130B608021114200D100E76400234A5440A4B21A
S1130B70DB01DBB22212534080221A4200D1F7E695
S1130B8064001D4B5C40A3B29A4620221B491031DD
S1130B9004A81B4B9847002406E741460020194B44
S1130BA09847194A1368013313600DB03CBC904652
S1130BB09946A246AB46F0BD144B1B78002B05D0DA
S1130BC0EFE7094A1268D3540133DBB24345F8D343
S1130BD0414600200B4B9847E3E7C046E80200205B
S1130BE08D04002070030020700C002034020020CB
S1130BF0FFFF0000992600000580FFFF406C000005
S1130C0085560000CD3E000078030020010300203B
S1130C10F0B5DE4657464E464546E0B593B004006F
S1130C20B44B1B780F93002B14D1B34B1B780D934B
S1130C30002B00D1C0E301000020B04B9847B04B1B
S1130C401B680E9310220021AE480430AE4B984727
S1130C50012114E0AD4B98470D900021E9E3A94B25
S1130C605818642202710022027388001818426125
S1130C700800083080001B185A610131C9B20729E5
S1130C80EDD9A04B002254215A540120013158546B
S1130C9001315A5400230B939D4B0C930C230A935C
S1130CA0B3E1079B0133079306230593C5E0D3B251
S1130CB00093944A029BDB0053449B00D3185B6966
S1130CC05B00484618430300C90001988446614408
S1130CD0890051184B610134E4B2072C75D8019492
S1130CE08C4802193023D35C99466300C01838231A
S1130CF0C35C9A46834E5423F35C0293DA00B6181D
S1130D005346F21813799C464822825C5B465A404B
S1130D10571055210F400A40BF18BD10332215400B
S1130D201740ED192F09FFB20F2398461D407D1976
S1130D30EDB26544EDB2070039373F78F6193679DC
S1130D40493000785B46584043100B409C460140B4
S1130D50614488101040114040180109C9B243464B
S1130D6018400818C0B23618F6B2B5420CD8654A15
S1130D705521515CC8001218121915712A1C0098CB
S1130D80854294D9021C92E75E4A5521515CC80001
S1130D90121812191671321C0098864200D9021CCE
S1130DA0D3B20093574A029BDB00DF19BF00D71967
S1130DB07B695B00484618430300C90001988446D8
S1130DC0614489005218536185E74E495622885C74
S1130DD0431CDBB28B54202B35D00699032906D84B
S1130DE05623484AD25CCB0003339A4241D045494A
S1130DF054200B5C0133DC0F1B19012213401B1B15
S1130E000B5401300B5C0133DC0F1B191A40121B0D
S1130E100A54049B013BDBB20493049B002B44D093
S1130E20079B1B7805990B41032213409B468B1E9D
S1130E305BB20593002B00DA33E700239A46FF33B5
S1130E400093544649E70A003533CB5C5B01CB1869
S1130E50DB7D09990B70089B01339BB2089307381B
S1130E605623D054069B013B9BB206934B1C09931B
S1130E70B3E7099C08990DE022485522825C52018F
S1130E8082185269083BDA402270013189B2562235
S1130E908354013456231B4AD35C072BECD80891A6
S1130EA0002108980A9A0C9B3BE000981A00072A34
S1130EB0F6D8144B5421595CC9005B189B18197956
S1130EC0091A19710132D2B2F1E75B009BB237E023
S1130ED05B009BB23FE05B009BB247E05B009BB2D0
S1130EE04FE05B009BB257E05B009BB25FE05B00AE
S1130EF09BB267E0E80200208D040020053F00005B
S1130F00680C002034020020975600005124000091
S1130F10FFFF0000406C00005B009BB2013A92B2FC
S1130F20013181425ADA022AF8D911AC645C1D12EB
S1130F30654080262E42C8D05B00B74D6B409BB203
S1130F406500EDB21E12754080262E42C0D05B00B3
S1130F50B14D6B409BB2A500EDB21E1275408026C8
S1130F602E42B8D05B00AC4D6B409BB2E500EDB2B5
S1130F701E12754080262E42B0D05B00A64D6B40F9
S1130F809BB22501EDB21E12754080262E42A8D0D8
S1130F905B00A14D6B409BB26501EDB21E12754022
S1130FA080262E42A0D05B009B4D6B409BB2A501D6
S1130FB0EDB21E12754080262E4298D05B00964DED
S1130FC06B409BB2E401E4B21D126C4080252542C3
S1130FD0A2D05B00904C63409BB29FE70A920C93B3
S1130FE0012A00D193E10A9B042B0BD9089B002B07
S1130FF008D00B9B5B00894911AA1078C8540133AF
S11310005278CA540B9B01330B930B9B052B00DDC9
S1131010B2E10B9B9B000E99CA5C10A802708C462F
S113102063445A7842709A788270DB78C3700A9B62
S1131030023B9BB2069306230593002308931033C7
S11310400493079011AB0993E7E6069B01330693DB
S113105006230593C6E0D3B20393714A029BDB00D7
S113106053449B00D3185B695B0048461843030054
S1131070C900019884466144890051184B610134C8
S1131080E4B2072C75D80194664802193023D35C66
S113109099466300C0183823C35C9A46604E5423B3
S11310A0F35C0293DA00B6185346F21813799C469F
S11310B04822825C5B465A40571055210F400A4033
S11310C0BF18BD10332215401740ED192F09FFB288
S11310D00F2398461D407D19EDB26544EDB207001B
S11310E039373F78F6193679493000785B465840ED
S11310F043100B409C46014061448810104011404D
S113110040180109C9B2434618400818C0B236183D
S1131110F6B2B5420CD8424A5521515CC8001218A7
S1131120121915712A1C0398854294D9021C92E75E
S11311303B4A5521515CC800121812191671321C11
S11311400398864200D9021CD3B20393344A029B0B
S1131150DB00DF19BF00D7197B695B0048461843E1
S11311600300C90001988446614489005218536100
S113117085E72B495622885C431CDBB28B54202B19
S113118036D00799032906D85623254AD25CCB00CA
S113119003339A423ED0224A5421535C0133DC0F7C
S11311A01B19012003401B1B53540131535C0133B1
S11311B0DC0F1B191840001B5054049B013BDBB28D
S11311C00493049B002B00D1ACE0069B1B7805998B
S11311D00B41032213409B468B1E5BB20593002BED
S11311E000DA32E700239A46FF330393544648E774
S11311F00A003533CB5C5B01CB18DB7D09990B709E
S113120007385623D054079B013B9BB207934B1CD2
S11312100993B6E7099813E00580FFFF9C040020BA
S113122034020020406C0000964955228A5C520129
S11312308A185269083BDA40027056228B540130F6
S11312405623904AD35C072BEED80A9B022B59D91C
S113125011AB1A780C98031253408021194271D0B3
S11312604100894B4B409BB25100C9B21812414016
S1131270802008426AD05B0083494B409BB29100B6
S1131280C9B2181241408020084262D05B007E49F6
S11312904B409BB2D100C9B2181241408020084291
S11312A05AD05B0078494B409BB21101C9B2181265
S11312B041408020084252D05B0073494B409BB2AE
S11312C05101C9B218124140802008424AD05B0043
S11312D06D494B409BB29101C9B218124140802024
S11312E0084242D05B0068494B409BB2D201D2B263
S11312F019124A40802111423AD05B00624A53409D
S11313009BB20C930A9B013B9BB20A936BE60A9B2C
S11313100793062305930A33049310AB069311AB8A
S113132009934EE703981A00072A8ED8554B542187
S1131330595CC9005B189B181979091A1971013293
S1131340D2B2F1E70C9B5B009BB28DE75B009BB2D2
S113135095E75B009BB29DE75B009BB2A5E75B0052
S11313609BB2ADE75B009BB2B5E75B009BB2BDE708
S11313705B009BB20C93C5E70C9B002B01D10D9B2A
S11313800F930F9B002B13D0002305E03F4AD15C41
S11313903F4AD1540133DBB2132BF7D90F9B0D9382
S11313A0002146E03A4AD15C384AD1540133DBB2D9
S11313B0132BF7D900213CE001000020354B98475E
S11313C0002000210D9B0AE0012215E06DB2002DE2
S11313D02BDB8B18DDB20130C0B201232900A042FF
S11313E026D22D4B1B681D5C2C4B1B78002BF2D195
S11313F04540EB07E8D40022AB0701D50132D2B255
S11314006B0701D50132D2B22B0701D50132D2B21A
S1131410EB0601D50132D2B2AB0601D50132D2B20C
S11314206B06D3D50132D2B2D0E70132D2B2D0E7C3
S11314300D930D9B002B1FD0194A136801331360C1
S1131440184A13685B1813601D2900D91E21164A17
S113145089008B5801338B50144B1A78144B1A7033
S1131460144B1A78144B1A700D9813B03CBC904668
S11314709946A246AB46F0BD104A13680133136087
S1131480F2E7C046340200200580FFFF9C040020E0
S113149004030020053F0000680C00200103002025
S11314A094040020800300200C040020760C00200B
S11314B088030020640C00208C04002020030020FA
S11314C010B5044B1B78002B00D110BD024B98477C
S11314D0FBE7C046E80200203D250000024A1368ED
S11314E0013313607047C0468403002010B5074BD6
S11314F01B78002B06D1064B9847064B9847064BA2
S1131500984710BD054B9847F5E7C046E802002010
S1131510792300003D3F000019040000552300001A
S113152010B5054B9847054B1B78002B00D110BD17
S1131530034B9847FBE7C046FD440000E802002047
S11315406D23000010B5084B9847084B9847084B8B
S11315509847084B1B78002B02D1074B984710BDC6
S1131560064B9847F9E7C0465D3B0000B502000012
S113157081030000E8020020ED140000B9230000FC
S113158010B51248F7230370F63B437001338370A0
S11315900F4B9A78C2701A790271DA7942711A7A09
S11315A0827159797F220A40C2719A790272094A7A
S11315B0126812784272002282725B7AC3720273DA
S11315C0427382730F21044B984710BDB00400206E
S11315D09C040020680C0020054F000010B51C4B33
S11315E004221A701B4A1268110C5970110A99705E
S11315F0DA70194A11781971184A12785A71511A05
S1131600CA0F521852109A71154A1268110AD971E8
S11316101A72002309210CE09800124A8458220A05
S11316200B4842544A1C92B28454023189B20133A9
S1131630DBB21E2BF0D90C4B1A68130A044843542E
S11316404B1C9BB2C254023189B2084B984710BD5F
S1131650B004002080030020880300208C040020B4
S1131660780300200C04002020030020054F000014
S113167010B50348052303700121024B984710BDA0
S1131680B0040020054F000070B50322284B1A70E7
S1131690284B1B78002B40D0274B1B78002B42D0C3
S11316A00325AD00254B1B78002B02D001231D43DD
S11316B0EDB2234B1B78002B02D003231D43EDB264
S11316C0204B1B78002B02D020231D43EDB21E4B70
S11316D09847002803D080235B421D43EDB2144C8D
S11316E065700025A570E57025716571174B1B8821
S11316F0DB08A371164B19881648174B984783B219
S11317001B0AE371C0B220726372A072E572257382
S11317100D212000114B984770BD074B1B78002BFF
S113172003D00025BDE70225BBE70125B9E7C04684
S1131730B0040020B205002088040020E802002044
S11317408D04002001030020DD45000098040020E2
S1131750B6050020102700003D540000054F00008E
S113176010B5384B59788B0803221A40012A36D019
S1131770002A2DD0022A38D0032A3DD003230B405F
S1131780022B46D03ED3032B49D02F4A13702D4B46
S11317909A79D2002D490A80D9791B7A19432C48A9
S11317A02C4B98472C4B18802C4B1B78002B46D085
S11317B0A022264B1A80FA22D200274B1A80284BEB
S11317C01B78002B02D00322264B1A70002334E02E
S11317D00022254B1A700132214B1A70CEE70023E8
S11317E0214A13701E4A1370C8E701221E4B1A7057
S11317F000221B4B1A70C1E701231B4A1370184ABD
S11318001370BBE70121194A11700021134A1170AA
S1131810BBE7002215490A7010490A70B5E7012197
S11318200E4A11700021114A1170AEE7104A126875
S1131830D218002111700133DBB21D2BF6D90D4BE8
S1131840984710BD8C030020D20200209804002089
S1131850102700003D540000B60500208D04002030
S113186088040020E9020020B2050020E8020020DC
S1131870700C00208103000010B5254B984701002F
S1131880244C2000244B98472378472B35D011D97A
S1131890722B26D01BD9772B1ED07E2B34D11F4B15
S11318A01B78002B23D11E4B1B78002B22D01D4B01
S11318B0984706E02B2B17D004D8053BDBB2022B4C
S11318C022D810BD2D2B1FD1174B9847F9E7692B50
S11318D01AD1164B9847F4E7154B9847134B984782
S11318E0EFE7144B9847ECE7134B9847E9E7134BA2
S11318F09847E6E7124B9847E3E70022114B1A702A
S11319001148124B9847DCE7084B9847D9E7C04683
S1131910453400008C030020B94E0000E80200208A
S11319208D04002081150000211500008916000097
S11319306117000019040000ED1400007116000086
S1131940DD15000000000020406F00006D34000031
S1131950F0B5DE4657464E464546E0B58FB0D74B08
S11319601B78002B12D00022D54B1A8208E01021DC
S1131970D34B9973D24B9B7BDB06FBD5013292B2DE
S1131980142AF4D1CF4B9847CF4B1860CF4B9847CC
S1131990002801D100F03FFCCD4B1B78002B02D076
S11319A0CC4B9847F2E7CC4B98470A38C3B2742B18
S11319B001D900F02BFC9800C84B1B589F4601220C
S11319C0C34B1A70E2E7C648C64B9847C64B1B7810
S11319D0002B5FD0C54B1988C548C24CA047C54BE6
S11319E01988C548A047C54B1978C548A047C54BB9
S11319F01988C548A047C54B1988C548A047C54B99
S1131A001988C548A047C54B1988C548A047C54B88
S1131A101988C548A047C54B1978C548A047C54B88
S1131A201978C548A047C54B1978C548A047C54B88
S1131A301978C548A047A14B1978C448A047C44B9E
S1131A401978C448A047C4480178427883780B9336
S1131A50C5780679477983799C46C3799846037A91
S1131A609946437A9A46837AC07A089007935346F4
S1131A7006934B46059343460493634603930297A8
S1131A80019600950B9BB548A047B54B1978B5480E
S1131A90A0477BE7B448934B98479BE7B34B9847E1
S1131AA074E7B3488F4CA0470120B24B98478E4B44
S1131AB01870B148A04769E7B04B984766E7B04B48
S1131AC0984781B28B4B19808B48864B9847AD4B16
S1131AD09847AD4B9847AD4B984757E7AC4B984761
S1131AE054E7A74B98479E4B18704FE7A44B984771
S1131AF007230100994389B27C4B19807C48794BB8
S1131B009847A04B9847A04B9847A04B98473DE770
S1131B109C4B98479A4B98472E2502AB9C466544AC
S1131B20288001209B4EB04701009B486D4CA04784
S1131B300020B04701009948A0472888984B98474F
S1131B40020029889748A04720E79748654B9847A3
S1131B508E4B98471AE79548624B9847894B9847AC
S1131B6014E7884B9847594B98470028FBD05A4BA9
S1131B7098478F4A1070302808D031280AD0714B0A
S1131B801B78002B0AD1814B9847FFE600226D4B4E
S1131B901A70F4E701226B4B1A70F0E7854B9847F3
S1131BA0F1E7784B9847494B98470028FBD04A4BBC
S1131BB098477F4A107031281AD00CD9322820D087
S1131BC0332812D17C48474B984703224B4B1A7059
S1131BD06D4B984709E0302807D17848414B984726
S1131BE00022464B1A70684B9847684B9847CDE6DD
S1131BF073483C4B98470122404B1A70624B9847FC
S1131C00F3E77048374B984702223C4B1A705E4BFF
S1131C109847EAE76C48334B98476C4B9847B5E6CE
S1131C20584B9847454C2378012253402370564B18
S1131C309847217866482B4B9847A7E6514B98471D
S1131C40254EB0475A4C2070B04760702E2502AB29
S1131C509C4665442A005F4920005F4B994698479B
S1131C602B881B02274F3B80B0472070B047607021
S1131C702A0058492000C8473B882A8813433B80E0
S1131C80414B9847414B984780E63E4B9847124D4D
S1131C90A847474C2070A84760702E2502AB9C468D
S1131CA065442A004B4920004B4B98472A88174B20
S1131CB01A80354B9847354B984767E68D040020CA
S1131CC000300042094B0000700300203134000052
S1131CD000000020791800005134000068690000F9
S1131CE0506F00006D3400000003002098040020B1
S1131CF0706F0000B6050020886F0000E902002024
S1131D00A06F00001C030020B86F0000B405002081
S1131D10D06F0000B0050020EC6F0000D00200205E
S1131D20087000008A04002024700000B20500201E
S1131D304070000088040020587000000103002057
S1131D406C700000E80200208070000090700000B9
S1131D50D2020020A470000064030020B8700000C8
S1131D60C005002004710000606F0000B92E00005F
S1131D7018710000DD3700002871000039080000E8
S1131D80A93400002115000081030000ED140000B7
S1131D90C52E00001D3A0000307100004C71000097
S1131DA0C93A000068710000847100009471000059
S1131DB0BC060020B9230000CC710000A47100000F
S1131DC0B0710000BC710000D8710000190400005B
S1131DD070700000F07100001D580000D84B984747
S1131DE0D84DA847D84C2070A84760702E2502AB68
S1131DF09C4665442A00D5492000D54B98472A883B
S1131E00D44B1A80D44B9847D44B9847BEE5CC4B5F
S1131E109847CC4DA847CC4C2070A84760702E251D
S1131E2002AB9C4665442A00C8492000C84B984729
S1131E302A88CB4B1A80C84B9847C84B9847A5E5CE
S1131E40BF4B9847BF4DA847BF4C2070A847607050
S1131E502E2502AB9C4665442A00BC492000BC4B9D
S1131E6098472A88BF4B1A80BB4B9847BB4B98476F
S1131E708CE5BD48BD4B9847B14B98470122BC4BFC
S1131E801A70B04B9847B04B1870302807D0012215
S1131E90B84B1A70B04B9847B04B984776E5002280
S1131EA0B44B1A70F6E7B448B04B9847B34B984715
S1131EB06CE5A34B98471821A348B14B98470024DD
S1131EC00FE06000A04BC0182E2502AB9C46654471
S1131ED02A009E499E4B98472A88AA4B1A550134DA
S1131EE0E4B20B2CEDD99C4B98479C4B98474DE59D
S1131EF0A5489E4B9847A54B984747E5A4489B4B5C
S1131F0098478F4B9847A34B9847934B9847934BCD
S1131F1098473BE5A048954B98478A4B98478A4C8D
S1131F2020709E4B98472378312B1AD00CD9322B32
S1131F3020D0332B12D14D20994CA0470B20A04721
S1131F4098488A4B984709E0302B07D14D20944C90
S1131F50A0470820A0479448844B9847934B984740
S1131F6014E54D208E4CA0470920A04790487F4B94
S1131F709847F3E74D208A4CA0470A20A0478D4894
S1131F807A4B9847EAE76E4B98478B48774B9847CC
S1131F900023774A1370774A13706F4B9847874B27
S1131FA098476E4B9847F1E4654B984784486F4BCC
S1131FB0984700226E4B1A7001326E4B1A70664BB2
S1131FC098477E4B9847654B9847DFE45E4B9A7879
S1131FD05A701A70714B98475B4B1B785D2B3ED03F
S1131FE0594B5B785D2B3AD0764B98470028FBD051
S1131FF0544B9847544B18705D28EDD0714B98475B
S11320000028FBD04F4B98474F4B58702E2702AAFD
S1132010944667443A004D4918004D4B9847387828
S11320205F4B9847060085B23B8819090F221A4076
S11320302D090F203040644C9200A2185268890088
S11320406118496802968000201840680190AD002C
S11320506419606800905D48444CA047BCE7534B4A
S1132060984793E45A4B98475A4B186001785A485A
S11320703E4B98478AE4E320584B98470022584B3C
S11320801A8208E01021564B9973554B9B7BDB0653
S1132090FBD5013292B20A2AF4D1524B9847524BE3
S11320A0186001785148314B98476FE4E5204B4B59
S11320B0984700224A4B1A8208E01021484B997332
S11320C0474B9B7BDB06FBD5013292B20A2AF4D143
S11320D0444B9847444B186001784448234B984735
S11320E054E4434B98470022424B1A82012A13D1ED
S11320F00420414B984700223E4B1A82012A15D1F5
S11321003E4B98473E4C20603E4B984723681978D5
S11321103D48164B984739E41021364B9973354B9B
S11321209B7BDB06FBD5013292B2DFE71021314BFA
S11321309973304B9B7BDB06FBD5013292B2DDE712
S11321402115000051340000BC060020F07100008D
S11321501D580000B005002081030000ED140000AC
S1132160D00200208A040020F87100006D340000C1
S1132170B2050020880400200C72000081040000D5
S1132180B94E0000640300201C7200001501000019
S11321902C720000E50100003C720000D92E000002
S11321A0F52E0000647200004C720000992F0000AC
S11321B0547200005C7200006C720000190400008C
S11321C078720000313400000000002084720000A6
S11321D0BD36000018030020A0720000414C00002E
S11321E0002C0042B54B00007C030020B4720000B8
S11321F0853500000030004249360000BD3500003E
S11322009004002095350000C87200000548064B74
S11322109847FFF7BBFB0FB03CBC90469946A246DB
S1132220AB46F0BDDC7200006D34000000230B4AA5
S113223013600B4A13600B4A13600B4A13600B4A7A
S113224013600B4A13600B4A13600B4AD3770B4A93
S1132250D3770B4AD3770B4AD3777047B80500205E
S1132260BC0500208406002014060020C8050020B8
S1132270C4050020D405002060060020DC050020F1
S1132280380600201806002010B582B0244B1B68C5
S1132290244A1268244909682448254CA047254B40
S11322A01B68254A1268254909682548006800907A
S11322B02448A047244B19684B688A68934210D07D
S11322C0C968481E834207D0501E83420AD09342F5
S11322D005D2891A591805E0002A03D0F4E7991A9F
S11322E000E00021194B1A6853689068984214D092
S11322F0D268541EA3420AD0441EA34202D098427C
S113230008D81A1A12480A4B984702B010BD002880
S1132310F2D1F7E7121A9A18F4E70022F2E7C0465E
S1132320D4050020C4050020C80500206073000007
S11323306D340000B805002084060020BC05002090
S11323401406002094730000CC050020D80500205A
S1132350E073000010B5034B98470022024B1A703B
S113236010BDC04609530000FC05002010B5014B08
S1132370984710BD195300000122084B1A7000231E
S1132380074A1370074A1370074A1370074A1370F9
S1132390074A1370074A13707047C046100600209E
S11323A0FD0500208806002080060020FC05002092
S11323B0D00500205806002070B51E4B9847802099
S11323C080011D4B9847051E2BD010201A4B9847AF
S11323D0041E22D0056000234360836080235B01D8
S11323E0C360164B1C6080208001134B9847051E68
S11323F01DD01020104B9847041E14D005600023F4
S11324004360836080235B01C3600D4B1C6000222A
S11324100C4B1A700C4B984770BD28000B4B984717
S1132420DFE70024DDE72800084B9847EDE70024A8
S1132430EBE7C0467D5200005D560000D805002041
S1132440CC0500205D0600207923000071560000B1
S113245010B5040000222B4B1A70002808D12A4A18
S11324601368013313600022284B1A70002010BD3A
S113247004210020264B9847244B1C70254B1B68D5
S11324805A7801231C00144023490C705108194048
S11324902248017012091340214A137003D1214BC1
S11324A0187800281DD1204B1B78002B01D0002C5C
S11324B003D1002B08D1002C06D10121114A11703F
S11324C001225340184A1370184B1B68002B10D07C
S11324D00C4B187800280CD0154A1368013313608C
S11324E0C5E7144A1368013313600022054B1A70C0
S11324F0BDE7114A1368013313600022014B1A70BF
S11325000120B4E758060020B8050020FC0500208F
S1132510053F0000680C002088060020FD0500200F
S11325205E060020790C002080060020CC050020E7
S1132530BC0500201406002084060020F0B5C64621
S113254000B5474B1C78002C02D104BC9046F0BD6A
S113255021000420434B9847434B1B78002BF4D1B4
S1132560424B1B78002BF0D080229200404B1A6023
S1132570404B19684B688A689A4210D0C868451E57
S1132580AB4207D0551EAB420AD09A4205D9801AF5
S1132590181805E0002A03D0F4E7981A00E0002098
S11325A0354DA84202D90025344805709A4210D00E
S11325B0C868451EAB4207D0551EAB420AD09A42AA
S11325C005D9801A181805E0002A03D0F4E7981AF0
S11325D000E000202A4A904202D80120274A1070C5
S11325E0264A1278002A1ED09AB280267601B61A9C
S11325F0B6B2063C6510AAB2964219D308685B00CD
S1132600C018204B196804311F4A22401F4B9847B9
S1132610184B1C682804000C63689C466044E168FD
S11326201B4B98476160802292001A4B1A608CE71A
S113263008685B00C018134B98461B68191D74008A
S11326402200124FB8470B4B1B68186843461B689F
S1132650211D59182A04120C921B5200B847D7E7BF
S1132660FC050020053F00005E06002058060020FF
S113267094440041CC050020380F0000D005002010
S1132680FF070000680C0020FEFF010085560000D3
S11326903554000098440041F0B5D6464F464646AE
S11326A0C0B50400654B1B78002B03D0644A127834
S11326B0002A05D0002B29D1614B1978002905D0B7
S11326C05F4A137801214B40137001215C4B1B7846
S11326D0002B1DD100225B4B1B78002B02D0022360
S11326E01A43D2B2002920D0574B1D686B68AE68DC
S11326F0B34214D0E868451EAB420BD0751EAB4202
S11327000ED0B34209D2801B181809E00021DDE77E
S11327100122E0E7002E03D0F0E7981B00E0002040
S113272084424FD90120494B1870484B1B78002B29
S113273002D010231A43D2B2454BFF201D682870E3
S1132740186842701B680022DA703F4B1B68002B2C
S11327503CD000293AD03F4A1368013313603B4B05
S11327601B78002B50D1802292003B4B1A60364BD1
S11327701F68BB689AB280267601B61AB6B2A21F49
S11327805510A9B28E4241D33149086804303968E2
S11327905B00C918314B1A40314B98472A4B1E68CD
S11327A02804000CB3689C466044F1682D4B98479C
S11327B0B160802292002C4B1A60210000202B4B28
S11327C098470BE00020214B1870AEE7284A1368A5
S11327D00133136021000020244B98471CBC904611
S11327E09946A246F0BD1A4A12687F21D15401339A
S11327F0DBB2A342F7D31F4A1368013313602100ED
S113280000201A4B9847E9E70423F2E7104A1268BC
S11328109146101D5B003A68D11873009A461A005D
S11328200F4B984698475346181D484439682A0464
S1132830120C921B5200C047B0E7C046FD050020B1
S11328401006002080060020D80500205C06002029
S1132850700C0020C805002094440041FEFF0100D4
S1132860855600003554000098440041CD3E0000D8
S1132870C4050020D405002070B505003F4C207825
S113288001303F4B19783F4B9847C9B221704A0039
S11328903D4BD5523D4B1B68002B18D0002916D157
S11328A0394A10885A68D96801398A4232D09968FD
S11328B001398A4233D00021002908D15200196815
S11328C088525A6801325A60D9688A4229D0304BFA
S11328D01B68002B4DD0294A1278002A49D1596827
S11328E09A68914220D0002000281FD00024294952
S11328F00C7028490978002934D0002836D15100B9
S11329001868095A01329A60D86882422FD100228D
S11329109A602CE099680029C9D10121CCE70121F2
S1132920CAE700225A60D2E70120DDE7914210D0C5
S1132930DC68651EA94207D0551EA9420AD09142FF
S113294005D2A41A0C1905E0002A03D0F4E78C1A66
S113295000E00024802109018C42CAD901240D49D8
S11329600C70C6E77F220C4B1A8002E07F210A4BD1
S11329701980094B18880304184370BDC002002055
S1132980C00500200956000000060020D8050020DC
S1132990CC050020D10500205A060020094B1B68F5
S11329A09B0E3F2B09D0084A10688005800D074A0A
S11329B0904204D09B0218437047203BF3E704483D
S11329C0F8E7C0462460800028608000FF03000010
S11329D0FF010000024BDB68DB06FBD57047C046F5
S11329E0000800400F2318401202074B1A4002430C
S11329F0064B9A600902F8225201114008438021D3
S1132A00490208435860704700FFFF00000C004073
S1132A10C222D2000C4B9A600C494A681E239A4386
S1132A201A3B13434B600A4A936908210B43936191
S1132A300122084B1A70074B1B78DB07FBD4064AAC
S1132A40044B5A807047C0460008004000400041D3
S1132A5000040040000C004013400000F8B50600DC
S1132A600D00164B9847164C6E23A38201220521B4
S1132A702800144FB8472D02F0231B011D4080236A
S1132A80DB011D43104B5D800223A3840F4DA84737
S1132A900F4B9847A062A8470E4BE362A847062352
S1132AA0A384A8478623A384012207213000B847C2
S1132AB0054B5B78DB09FBD1F8BDC046112A000049
S1132AC000080040E5290000000C0040D529000062
S1132AD09D290000B9053F1CFEE70000F8B5234A14
S1132AE0234B9A4209D0224B204A03E01168196013
S1132AF0043304321F498B42F8D31F4B02E00022F7
S1132B001A6004331D4A9342F9D31D4AFF211D4B19
S1132B108B439360FD3990235B001B4AD1501B4AC1
S1132B20D3780325AB4302242343D370D3780C27F3
S1132B30BB4308263343D370154B987B3022904314
S1132B40202210439873997BB943314399739A7B3C
S1132B50AA4322439A730F4A516880230B4353605C
S1132B600D4B98470D4B9847FEE7C046347800005C
S1132B70000000201402002018020020240F00206E
S1132B8000ED00E000000000007000410050004132
S1132B90004800410040004115560000093500007E
S1132BA00300064A1268002A04D0044A1068C318B5
S1132BB0136070470249014A1160F6E78C02002055
S1132BC0282F0020F0B5C64600B51B4B1A6A2021F9
S1132BD00A431A62DA6910390A43DA61174B1A8810
S1132BE00225AA431A800F391980154A5A63154AD7
S1132BF09A63154A1A80002404703F269C5540228B
S1132C009F5CAF439F5401279F540778313A904605
S1132C1017409F551F69027891408F431F610B49EC
S1132C205964017842460A409A554D229D54846164
S1132C3004BC9046F0BDC04600040040004800417A
S1132C40D802002090020020020F0000000480003F
S1132C5003880122134303800388062293430380DD
S1132C60038812329343038003880C4A1340038081
S1132C7002888023DB00134303800388084A13403F
S1132C8003800388074A134003800388DB04DB0CBA
S1132C900380054B83600023C3607047FFFCFFFF84
S1132CA0FFF7FFFFFFEFFFFF280C00428369002BB3
S1132CB002D1816104E0DB68DA68002AFBD1D960C3
S1132CC07047000010B5040093B280694380A36983
S1132CD052185A6023781B0106481818A16910225B
S1132CE0054B9847054940228B5C02200343DBB225
S1132CF08B5410BDD80200208556000000480041C6
S1132D0070B5064C2000064B9847064D2800064B2C
S1132D10984729002000054B984770BDA006002065
S1132D20C52B000090060020512C0000AD2C0000A3
S1132D3010B50A0001000248024B984710BDC04676
S1132D40A0060020C52C0000064B5B6ADB07FBD500
S1132D50044B4E215A5C022002435A540021402263
S1132D6099547047004800410A4AD36904210B432F
S1132D70D3612022FF32084B1A83074B1B7DDB07EC
S1132D80FBD5054A5368DB061B0F5B005360936851
S1132D9093687047000400400040004130B50E4B7A
S1132DA01B7DDB07FBD52024FF340B4B1C83400821
S1132DB0002302E002339BB2200093420BD2441C56
S1132DC04000008880B2C854551EAB42F2DA5D1C44
S1132DD0000A4855EEE730BD00400041064B1B7D1C
S1132DE0DB07FBD5044B2022FF321A838008400006
S1132DF0D861024A1A8070470040004102A5FFFFD3
S1132E0070B5124B1B7DDB07FBD5114C0F4B1C809F
S1132E100E4B1B7DDB07FBD52024FF340B4B1C839F
S1132E204008002304E045002C8002339BB20130AB
S1132E30934209D2CD5CACB2561EB342F3DACC183D
S1132E40647824022C43EEE770BDC0460040004184
S1132E5044A5FFFF0122044B1A70044B0F32C0211A
S1132E6049005A501A607047540B002000E100E0FA
S1132E700022054B1A70054B1032C02149005A50EC
S1132E800139FF395A507047540B002000E100E02B
S1132E90024B1A68024B5A607047C046F873000030
S1132EA0000C0040034B1B6808201840431E984147
S1132EB0C0B27047204400410822014B1A60704799
S1132EC09C440041024B5A68024B5A607047C0460A
S1132ED0F8730000000C004010218023034AD150F5
S1132EE080225200024B1A607047C04600E100E0A5
S1132EF094440041064B1B7EDB07FBD5044B9862D0
S1132F00034B1B7E5B07FBD5014B986AC0B270472D
S1132F10000C004210B50C4B1B7EDB07FBD50B4BA2
S1132F2098470B4B9847084B1B7EDB07FBD5064B9A
S1132F301B7E5B07FBD5044B9A6A5A8B04210A4318
S1132F405A839A6A9B6A10BD000C0042312D00001E
S1132F50492D000010B50F4B1B7EDB07FBD500226B
S1132F600C4B9A620BE00B4B1B7E5B07FBD5094BAA
S1132F7000249C629B6A037001300132D2B24B1E62
S1132F809A42F0DB034B1B7E5B07FBD5014B9B6A2C
S1132F90037010BD000C004280225200044B1A60E2
S1132FA0044B1B78002B02D0F03A034B1A60704795
S1132FB098440041540B002000E100E004230B4A34
S1132FC013600B4A136000220A4B1A8208E0102196
S1132FD0084B9973074B9B7BDB06FBD5013292B2FE
S1132FE00A2AF4D1063A044B1A6070478844004117
S1132FF0944400410030004298440041F8B5CE4664
S1133000474680B572B6C84A116A08230B43136257
S1133010C64AC74B5A80C64B5B78DB09FBD1C54A0D
S1133020C54B916819608021890259600121197387
S1133030D168C24A9162196802220A431A60BE4BDF
S1133040DB699B07FBD4BE4B9847BE4D80235B00D6
S11330502B60BD4A1360B4498A69042413002343D6
S11330608B61BA4AB34B188A90821E7D4420165451
S113307080204001D0640026B54F9764AC4A9F6914
S11330809760DF695760022797601F6A57605F6A1D
S1133090AA4B9F620B6A18430862AE4B5380AE4B37
S11330A0A92252011A801E82A02252001A831A8871
S11330B002210A4392B21A80A84880214903016080
S11330C0A74A11608021090501601160802109046B
S11330D02960A44A11602C6014601E82002208E05A
S11330E010219D4B99739C4B9B7BDB06FBD50132D6
S11330F092B29D4B9A42F3D10422934B1A609149A8
S113310080239B000B60974A136080231B010B6094
S1133110136008230B601360854E944A7280824DBD
S1133120A96940220A43AA61914A506801001943DF
S11331305160D1680B43D3608E4801688E4B1940AF
S1133140A023DB010B430360137802273B43137076
S1133150784B9B6A794CA362884B9847884BC6206E
S113316080001A581202120A8021C9050A431A5013
S1133170C12189005A581202120AC02000060243D3
S11331805A50C522920094469A58FF2081468243A1
S11331903F38024360461A505A58484682437F38A3
S11331A002435A5062B64C22A35C01200343A35449
S11331B03623E15C3D3A9143E154E25C3A43D2B2B6
S11331C0E2544D21625C02436254E25C3E390A409F
S11331D0E254E25C20210A43D2B2E2542B6A102268
S11331E013432B62674B7380F032674B5A60664B14
S11331F0DB69002BFBD12222634BDA60624BDB6973
S1133200002BFBD1614A604B1A605F4BDB69002BDA
S1133210FBD15D4A538B10210B439BB253835A4B12
S1133220DB69002BFBD1454B47215A5C0124224327
S11332305A5433201A5C0F2738390A401A541A5C3E
S113324060252A43D2B21A5415301A5C22431A5408
S113325034269A5DBA439A559A5D062084466046A0
S11332600243D2B29A554A201A5C22431A54352298
S11332709E5CBE439E54985C66463043C0B29854EC
S11332804B26985D04439C55985C01409954995C85
S11332902943C9B29954244C226A80235B03134303
S11332A023623B4B3B4A5A603B4A1A62013A5A62D8
S11332B0198A802252000A431A82314A8021090560
S11332C0802011504A381870C0235B00D15011601F
S11332D0324B9847324B9847324B9847226A8023A7
S11332E01B0113432362304A114B5A802F4BA922EE
S11332F052011A8000221A82202119831A8802207E
S1133300024392B21A8015480160294B19601022B9
S113331002601A6080239B000A4A1360114A1360FA
S11333200CBC90469946F8BD0004004015400000CE
S1133330000C0040F8730000000C004200440041FF
S1133340012D0000884400419844004100080040D9
S1133350E10400001C460000003000420844004123
S11333601844004194440041DC050000054000007D
S11333700018004018180040FF8FFFFF712E000056
S113338000E100E016420000001000421600300088
S113339000500042A711000081050000C137000061
S11333A0B14B0000A53500001B460000002C004274
S11333B01444004110B58024A400064B1C60064B45
S11333C09847064B1C60064A116920230B4313617E
S11333D010BDC04698440041FD40000094440041A3
S11333E00018004010B5802212010C4B1A600C4BDF
S11333F09B8A9B07FBD50A4B586B0A4B18600A4BF8
S11334009847074B9B8ADB05FBD5054B18639A8AC3
S11334109B8A80221201054B1A6010BD984400411A
S113342000500042500B00207928000094440041D1
S113343010B5034B9847431E9841C0B210BDC04617
S1133440814E000010B5014B984710BD814E00001D
S113345010B582B06B46DC1D01212000024B984759
S1133460207802B010BDC046B94E00000FB410B5AC
S113347082B004AA02CA0192074C2000074B984765
S11334802000074B984781B22000064B984702B0B2
S113349010BC08BC04B01847BC060020B15800009A
S11334A071580000054F000010B582B06B46D81D5E
S11334B00023037001210E4B98470E4C06E0227046
S11334C0013401216B46D81D094B98476B46DA79C4
S11334D01300303BDBB2092BF1D9002323706A4679
S11334E005490448054B9847009802B010BDC046F2
S11334F0B94E0000BC060020247400001D580000D2
S1133500704770477047704710B505210020124B73
S11335109847124B9847124B5822995C012001435B
S1133520995459215A5C02435A540D313C229954FE
S11335308023DB050B4A13600B4A13600B4A1360AC
S11335400B4B98470B4B98470B4B98470B4B9847A3
S11335500B4B9847FCE7C0465D2A0000FD2F000096
S1133560004400418844004194440041984400418F
S11335703D4600003D4E0000054900004515000091
S11335805119000080221201014B1A607047C04695
S11335909844004180221201014B1A607047C046D2
S11335A09444004180231B01024A1360024A1360C1
S11335B07047C0468844004194440041AB221F4BED
S11335C05A621E4B1B7E9B07FBD51C4B5B8B5B0718
S11335D007D51A4A5168C0239B020B43536018480D
S11335E07047164A536817490B4053600022002A5B
S11335F018DD124B59688022D2020A435A60596876
S1133600C02292020A435A602822995C0C4A5170E3
S11336105A8B10210A4392B25A83084BDB69002B60
S1133620FBD1DCE728230549C95C054B9954034BBE
S11336301B7E9B07FBD50132D9E7C0460010004230
S1133640A0020020FFFFFBFF1A4B1871AA221A4B9D
S11336505A62194B1B7EDB07FBD5174B5B8B5B0751
S113366009D40022002A0DDD134A5168C0239B02AD
S11336700B4353607047104A5168C0239B020B43AD
S11336805360F7E70B4B9B18187928230A49C85451
S1133690094B1B7EDB07FBD5074B5B8B5B0701D418
S11336A00132DFE7044A5168C0239B020B43536095
S11336B0E0E7C046A00200200010004289221F4B10
S11336C05A621E4B1B7E9B07FBD51C4B5B8B5B0717
S11336D006D41A4A53681A490B405360002210E07A
S11336E0164A5168C0239B020B43536023E02823EE
S11336F01249C95C134B9954104B1B7E9B07FBD595
S11337000132012AF3DD0D4B59688022D2020A43AB
S11337105A605968C02292020A435A602822995C6E
S1133720084A91705A8B10210A4392B25A83034B70
S1133730DB69002BFBD103487047C04600100042F0
S1133740FFFFFBFFA80200201B4B187159719A71EF
S113375088221A4B5A62194B1B7EDB07FBD5174B89
S11337605B8B5B0712D40022022A1DDC124B9B18D0
S1133770187928231149C854104B1B7EDB07FBD54D
S11337800E4B5B8B5B0708D40132EDE70B4A5168A3
S1133790C0239B020B4353600CE0084A5168C023CA
S11337A09B020B43536005E0044A5168C0239B020B
S11337B00B4353607047C046A8020020001000422B
S11337C010B51022C4210120034CA047002200217F
S11337D00020A04710BDC04649370000F8B50400DA
S11337E07E4B98477E4B9847002C17D17D4B9847CA
S11337F040207D4DA8470020A8474120A84700202D
S1133800A8473320A8470020A8470500774B9847CE
S1133810092D0CD0002C05D12000F8BD7448754B3F
S11338209847E3E77448734B98470024F4E7002C67
S113383010D1002C12D16B4B984740206A4DA847F9
S11338408020A8474120A8470020A84700226B4BAE
S11338501A8210E06A48674B9847EAE76948654B63
S11338609847E8E71021654B9973644B9B7BDB0613
S1133870FBD5013292B20A2AF4D1634B9847050072
S11338804020594EB0470020B04700225B4B1A82BB
S113389008E01021594B9973584B9B7BDB06FBD5F1
S11338A0013292B20A2AF4D1574B984707004020BC
S11338B04D4EB0470020B0474C4B9847BD4206D30D
S11338C0002CA9D04C484B4B98470024A4E7002C6B
S11338D012D1444B98474420434DA8470020A847A1
S11338E04520A8470020A8475F20A8470020A847F4
S11338F00022424B1A820CE041483E4B9847E8E7CD
S113390010213E4B99733D4B9B7BDB06FBD501326B
S113391092B20A2AF4D11F20334DA8470020A847A9
S11339200500324B9847002C09D1EB070BD4002C2F
S113393000D171E730482F4B984700246CE7334897
S11339402C4B9847F1E7002C0BD1002C0DD1AB0781
S11339500FD4002C00D15FE72748264B984700245A
S11339605AE72748234B9847EFE72948214B9847C4
S1133970EDE7002C0BD1002C0DD16B070FD4002CDC
S113398000D149E71C481B4B9847002444E71C48D6
S1133990184B9847EFE71F48164B9847EDE7002C64
S11339A00BD1002C0DD12B070FD4002C00D133E701
S11339B01148104B984700242EE711480D4B9847A7
S11339C0EFE715480B4B9847EDE7002C01D1012494
S11339D022E70B48074B98471EE7C046712E0000AC
S11339E0BD2F0000D92E0000F52E0000992F0000F5
S11339F0387400006D340000407400000030004250
S1133A00487400004C740000A52E00005874000097
S1133A1064740000707400007C740000F8B5040045
S1133A20254B9847002C15D05F20244CA04720201C
S1133A30A0470E20214CA0470020A0470F23984305
S1133A40C6B21F201D4CA0470020A0470307F8D58D
S1133A50002419E05F20194CA0470020A047E8E7A4
S1133A601021174B9973164B9B7BDB06FBD5013258
S1133A7092B20A2AF4D11F20104FB8470020B84749
S1133A8003060ED40134E4B20F2C0AD825003543C2
S1133A904E200A4FB8472800B8470022084B1A8224
S1133AA0E7E75F20054CA0470420A047054B984753
S1133AB00F202840F8BDC046D92E0000F52E000086
S1133AC000300042992F000070B5FA239B00584340
S1133AD0A021C9011C4B9847C3B2DB43DBB20F22C0
S1133AE01A401A498A5C12011B09CD561543EDB2DE
S1133AF0174B98475F20174CA0470020A0471F2072
S1133B00144CA0470020A0470307F8D55E20114CB1
S1133B10A0472800A0475F20A0478020A04701209D
S1133B200C4CA0470020A0470306F8D51E20094CE2
S1133B30A0470020A04705005F20A0470420A0471D
S1133B40054B9847280070BD2953000028740000D5
S1133B50D92E0000F52E0000992F000010B5364B29
S1133B6098474020354CA0470020A0474120A0475B
S1133B700020A0474C20A0470020A0474D20A0478C
S1133B800820A0475020A0470020A0475120A0476C
S1133B900020A0475220A047BD20A0475320A047A3
S1133BA0BD20A0475420A047BC20A0475520A047D3
S1133BB0BC20A0475620A047BB20A0475720A047C1
S1133BC0BB20A0475820A047BA20A0475920A047AF
S1133BD0BA20A0475A20A0470020A0475B20A04756
S1133BE00020A0474E20A047F620A0475C20A04715
S1133BF01B20A0477120A0470220A0477620A047A1
S1133C008020A0477720A0470520A0470C4B984769
S1133C1000230C4A13700C4A13700C4A13700121D0
S1133C200B4A11700B490C4A11600C490C4A116083
S1133C300C4A137010BDC046D92E0000F52E0000AA
S1133C40992F0000740C00207B0C0020600C0020D5
S1133C506D0C0020580B0020680C0020E00B0020A5
S1133C60700C0020790C002070B50D0016003B4B41
S1133C701870012853D0002857D0022851D00328A7
S1133C8051D0032853D002285AD029003448354B48
S1133C909847354B1880324A7243D20D334B1A8001
S1133CA0334B98472D4B1B78002B51D1314B1C7053
S1133CB04420314CA0472F4B1878A0474720A047F9
S1133CC0294E3078A0474620A0473088000AA047F4
S1133CD04B20A0472020A0476D20A047234E3078DA
S1133CE0A0476C20A0473088000AA0474920A0477D
S1133CF0FF20A0474020A0470020A0474120A04724
S1133D000020A0471D4B984729001D48154B984794
S1133D1080B2002800D101301A4B984770BD0024AE
S1133D20AFE74024ADE7C024ABE70400A9E72900CE
S1133D30802000020B4B984720380B4B1880AAE7D1
S1133D40290080200002074B9847074B1880A2E700
S1133D5038231C43074B1C70AAE7C046DC0B002029
S1133D60008038013D5400007C0C0020D80B00205A
S1133D70D92E0000750C0020F52E0000992F0000AC
S1133D800000710201350000F8B5134B1B78012BBC
S1133D901BD0124B1E88361836B2114B9847472059
S1133DA0104DA847F7173B0EF018FF242040C01A07
S1133DB0C0B2A8474620A847200038408019001206
S1133DC0C0B2A847084B9847F8BD044B1E88074C5F
S1133DD06043361836B2E0E7DC0B00207C0C002090
S1133DE0D92E0000F52E0000992F0000710200006A
S1133DF0F0B585B000900191029203930AAB1F784D
S1133E000BAB1E880CAB1B781E4A17701E4C23701C
S1133E101E4B984773201E4DA8470398A8477C2043
S1133E20A8473800A8477D20A8473800A847742031
S1133E30A847300AA8477520A847F0B2A8476920C8
S1133E40A8470098A8476A20A8470198A8476B206C
S1133E50A8470298A8472378002B0DD170200C4C5A
S1133E60A0470020A0477220094CA0471A20A04771
S1133E70084B984705B0F0BD7020054CA0471020B2
S1133E80A047F0E7780C00206C0C0020D92E00002D
S1133E90F52E0000992F000070B50500084B9847D7
S1133EA0D020084B9847002404E0285D054B984730
S1133EB00134E4B20B2CF8D9034B984770BDC046CB
S1133EC0D92E0000F52E0000992F000070B50500D2
S1133ED00C00074B9847FF20064B9847611BC9B25B
S1133EE005482818054B9847054B984770BDC046B0
S1133EF0D92E0000F52E0000E00B0020152F000045
S1133F00992F000070B505000C00074B9847BF209F
S1133F10064B9847611BC9B205482818054B9847BA
S1133F20054B984770BDC046D92E0000F52E000001
S1133F30580B0020552F0000992F000070B5012266
S1133F40454B1A700022454B1A70454B9847454B18
S1133F5098474420444CA047444B1878A047444B0E
S1133F609847444B1B78002B2FD1434B1B78002BD5
S1133F7013D0012B1BD03B4B98473D4B98473E4BEE
S1133F801B78012B50D03D4B98473A4B1B78002BA4
S1133F905ED101223A4B1A7070BD324B98475F20B4
S1133FA0314CA0472020A047314B9847E3E72D4BE5
S1133FB0984740202C4CA0470020A0474120A04710
S1133FC04020A0472A4B9847D5E7264B98474520E1
S1133FD0254CA0470120A0474020A0475820A047D7
S1133FE04120A0472020A047234B1B78002B0BD057
S1133FF0012B0FD01E4B9847224B1B78002B0FD15F
S11340000122214B1A70B6E75F20174CA0472420E9
S1134010A047EFE75F20144CA0471420A047E9E72E
S11340200022194B1A70A6E7184D2878184B9847A8
S11340300C4B98471F200C4CA0470120A047FF20A1
S1134040A04729781348144B9847094B98479AE797
S1134050124B98479DE7C0466E0C0020DA0B0020F7
S1134060912E0000D92E0000F52E0000750C0020C2
S1134070992F0000DC0B00206D0C0020552E000051
S1134080600C0020740C0020610C0020780C0020CF
S113409091080000E00B0020152F000005350000FA
S11340A0014B18787047C0466D0C002070B50F4D59
S11340B028700F4B984730200E4CA0470020A04793
S11340C004002B78002B09D070200A4DA847082340
S11340D09C43E0B2A847084B984770BD7020054D3B
S11340E0A84708202043C0B2A847F4E76D0C00207D
S11340F0D92E0000F52E0000992F000070B5C24B98
S113410098470120C14DA84704000020A847050096
S1134110BF4B9847E3071DD50122BE4B1A706306B7
S113412028D50122BC4B1A70BC4A137801214B409C
S11341301370BB4B1B78002B58D1BA4B9847B24B2A
S11341409847B94B1B78002B08D0012B0CD0B04BEF
S113415098474BE00022AF4B1A70E0E75F20AB4C6E
S1134160A0472420A047F2E75F20A84CA0471420D2
S1134170A047ECE71823234202D1AB0600D47BE12D
S11341800222A54B1A70A64B1B78002B06D0A64B17
S11341901B78002B36D0012B00D1F3E0A34B1B7806
S11341A0002B07D0A04B1B78002B00D002E101208C
S11341B09F4B98470022994B1A70934B98479A4B00
S11341C01B78002B00D1F9E0012B00D1FCE0994BC6
S11341D01B78032B00D1FDE0002B00D004E18C4BB5
S11341E09847944B1B78032B00D107E1864B9847E3
S11341F00120864CA0470020A047854B98478E4B52
S1134200984770BD8D4B1B78002B5BD0012040423A
S11342108B4B98477C4B984703207C4CA04700204D
S1134220A04704007A4B98472000864B9847050026
S1134230824B1B78002B49D00022834B1A70824B8F
S11342401B78642B0FD9794B1B78002B03D07F4B41
S11342501B78002B07D10122784B1A7000227A4B6D
S11342601A707B4B9847684B98472020674EB0479D
S11342700020B04780B2000284B22120B047002061
S1134280B04780B204436408002D2AD1604B98479C
S1134290002D59D0654B1B78002B03D06B4A127844
S11342A0002A51D1654A1278002A2AD00021634A93
S11342B01170002B4CD10122664B1A700120604B07
S11342C0984745E000205E4B9847A3E7002803D0B9
S11342D000225D4B1A70B2E75B4A13780133137006
S11342E0ADE72220494EB0470020B0475A4B187022
S11342F02820B0470020B047584B1870584B1C80FA
S1134300C4E7544B1B78002B17D1564B9C4209D859
S1134310632C0ED801204042494B984701224D4B53
S11343201A7015E00120464B98470122494B1A7038
S11343300EE00020424B98470AE00022454B1A70D9
S113434000203F4B984703E03C4B1B78002B12D0D6
S1134350364B1B78002B00D120E72B4B98471F20AE
S11343602A4CA0470120A047294B98473E4B187878
S11343703E4B984712E70022364B1A700020304B10
S11343809847E5E700202E4B9847284B1B78002BD5
S11343900DD11D4B98471F201C4CA0470120A0475E
S11343A01B4B9847304B1878304B9847F6E6304B08
S11343B09847F3E600201E4B9847FBE65F20134C1A
S11343C0A0472420A04702E75F20104CA0471420F8
S11343D0A047FCE640200D4CA0475820A0474120B0
S11343E0A0476020A047FAE64020084CA047582088
S11343F0A0474120A0472020A047F0E61D4B984746
S11344000022074B1A70F1E6D92E0000F52E0000A9
S1134410992F0000790C00207A0C0020DA0B002080
S11344206E0C0020912E00006D0C0020740C0020F6
S1134430AD400000DC0B002003350000610C0020BF
S1134440893D0000110C0000770C00207B0C00203B
S1134450DD140000DB0B0020760C0020640C00202F
S1134460620C0020D5020000780C002091080000A6
S1134470C1140000C52E00006B0600D4B6E6174B2D
S11344801B78032B02D0002B00D0AFE60321144A83
S11344901170002B0ED1134B1B78012B00D0A5E615
S11344A0114B98475F20114CA0471020A047104B98
S11344B098479BE60F4B984701220F4B1A700A4B03
S11344C098474020094CA0475820A0474120A047C6
S11344D02020A047064B984788E6C046DC0B002006
S11344E07A0C00206D0C0020D92E0000F52E00005F
S11344F0992F0000912E00006E0C002010B50022B0
S1134500154B1A70154B9847154B9847154B984700
S11345104520154CA0470020A0474420A047002078
S1134520A0474020A0470020A0474120A0470020EA
S1134530A0475F20A0470420A0475F20A047032096
S1134540A0470A4B98470A4B1B78002B00D110BD9B
S11345500020084B9847FAE7600C0020073500005C
S1134560712E0000D92E0000F52E0000992F0000B6
S1134570740C0020AD400000014B18787047C04611
S1134580610C002010B50B4B18700B4B19700022F6
S11345900A4B1A70002805D1002907D10020084BC6
S11345A0984710BD0020064B9847FAE70120044BBA
S11345B09847F6E7740C00207B0C0020610C002067
S11345C0AD400000014B18787047C046740C0020C1
S11345D0014B18787047C0467B0C0020014B1878BB
S11345E07047C046600C002010B50F4B0F4A1A608C
S11345F058680F4C2040C0229205010011435960B5
S11346000C491961596921400A435A615969802248
S113461012060A435A61084B10210A22FF329954A8
S11346200131093A995410BDDC0C002050090020D6
S1134630FFFFFF8F3C0700200050004170B5204A67
S1134640D36920210B43D3611E4A1F4B5A80012298
S11346501E4B1A701D4B9B78DB07FBD402221B4BAD
S11346601A701A4B9B789B07FBD4194B1A68510B91
S11346701F230B401F2B1DD0910C1F2008401F2807
S11346801AD0D10D07220A40072A17D09B010343F1
S1134690120313430D4C23850E4B1A7852010E4D11
S11346A0002128000D4B98476562082323830C4B97
S11346B0984770BD1A3BDFE70238E2E7043AE5E7C2
S11346C00004004006400000000C0040005000417F
S11346D024608000B0750000DC0C002097560000B8
S11346E0E945000080235B421843C0B2014B987235
S11346F07047C0460050004130B543B2002B15DB73
S11347003F231840082A4ED9102A67D9202A67D98E
S1134710402A67D9802A67D9C1339A4266D90133BE
S1134720FF339A4264D8FB3BFF3B3DE03F231840F4
S1134730082A12D9102A2CD9202A2CD9402A2CD95B
S1134740802A2CD9C1339A422BD90133FF339A42A0
S113475001D9072202E0062200E000224401254B91
S11347601B195C691207244D2C4022435A61013104
S1134770224C08304001035D07220A4012017021D7
S11347808B43190011430155A4466044A2230371CD
S113479023E00122E2E70222E0E70322DEE704222B
S11347A0DCE70522DAE700234401124A12195468AF
S11347B01B07114D2C402343536001310F4A08302D
S11347C04001835C07242140A34319438154944648
S11347D06044402343712F3B037130BD0123E3E761
S11347E00223E1E70323DFE70423DDE70523DBE717
S11347F00723D9E7DC0C0020FFFFFF8F00500041A6
S1134800030042B2002A0CDB3F2018400B4A083058
S11348104001831840215971835C39398B43835497
S113482070473F201840054A083040018318802112
S11348301971835C10398B438354F1E700500041B4
S1134840F0B50F4E4301F4186568920412090D4F38
S11348503D402A4362606268920B950365609951FA
S113486008304001084A944660440522C271074A50
S11348709446634401221A70402303710020F0BD62
S1134880DC0C0020FF3F00F00050004109510041C2
S1134890F0B53F2420404501114E76197769DB07B6
S11348A07F007F083B43736177690E4B3B40736124
S11348B073699204920C9B0B9B031A4372613161DE
S11348C008304001084B9C4660440A23C371074BDF
S11348D09C46654402232B707E3343710020F0BD57
S11348E0DC0C0020FF3F00F0005000410951004162
S11348F043010348C01840688004800C7047C046D8
S1134900DC0C00208022044B1A60044A1389012124
S11349108B4313817047C04600E100E00050004122
S11349200D4B59680D4A1140802252030A435A60C4
S11349305A68920B91035960094A1A60094B052180
S11349400822FF32995404390A22FF3299543F3124
S1134950053A99547047C046DC0C0020FF3F00F034
S113496050090020005000410F4B59698022120663
S11349700A435A6159690D4A0A405A615A69920BAD
S11349809203104358610A4A1A610A4B0A21082209
S1134990FF32995408390A22FF3299547E31062293
S11349A0FF3299547047C046DC0C0020FF3F00F0F2
S11349B03C0700200050004130210623FF33014A08
S11349C0D15470470050004170B5294A138C9BB2F2
S11349D01E00928B120710D4DB070CD5244A08233F
S11349E0FF33D45CE4B21321D154E3060DD4E307BE
S11349F012D4A30713D4012419E008221C4B9A8370
S1134A001C4B98471C4B984730E01C4A1C4B03CB6B
S1134A1003C21C4B9847EAE71B4B9847E9E71B4B3B
S1134A209847E8E7E0B21A4B984717E00134194B6E
S1134A301B789C4218DA0123A3403342F6D02300AA
S1134A4008335B010A4A94466344DD79EDB263019D
S1134A50114A944663441D70AB07E3D4EB07E5D5D4
S1134A60E0B20E4B9847E1E70D4B984770BDC04646
S1134A7000500041E9450000B54C00004809002001
S1134A805009002021500000615100007D510000B8
S1134A90A94F0000B0750000085100412D4F0000DF
S1134AA02D4D000030B589B000241CE0A100091987
S1134AB0CD170722100028404018C0106D0F4B1965
S1134AC013405B1B0C4A825C1A410C49415C082070
S1134AD0C31A99400B0013431F221340084AD25CA7
S1134AE001AB1A550134192CE0DD01A800238376AB
S1134AF0044B984709B030BD0CA080000DA0800085
S1134B0088740000C151000010B5214B9847214B17
S1134B1018600278204B9A704278DA70E3201F4BB9
S1134B20984700221E4B1A8208E010211C4B9973EF
S1134B301B4B9B7BDB06FBD5013292B2142AF4D1CA
S1134B40184B9847184B18600278134B1A70427828
S1134B505A70E520114B98470022114B1A8208E045
S1134B6010210F4B99730E4B9B7BDB06FBD5013257
S1134B7092B2142AF4D10B4B98470C4B186002786C
S1134B80054B1A7142785A71C3229A71180010BDEC
S1134B90BD360000900C0020800C0020414C000029
S1134BA0002C0042B54B00008C0C0020880C002027
S1134BB07047000081221F4B5A621E4B1B7E9B07CD
S1134BC0FBD51C4B5B8B5B0707D51A4A5168C02386
S1134BD09B020B43536018487047164A53681749A1
S1134BE00B4053600022002A18DD124B59688022C2
S1134BF0D2020A435A605968C02292020A435A6098
S1134C002822995C0C4A51705A8B10210A4392B2A3
S1134C105A83084BDB69002BFBD1DCE728230549C9
S1134C20C95C054B9954034B1B7E9B07FBD5013292
S1134C30D9E7C04600100042B0020020FFFFFBFF8E
S1134C401A4B187180221A4B5A62194B1B7EDB07D0
S1134C50FBD5174B5B8B5B0709D40022002A0DDDC3
S1134C60134A5168C0239B020B4353607047104A98
S1134C705168C0239B020B435360F7E70B4B9B180F
S1134C80187928230A49C854094B1B7EDB07FBD536
S1134C90074B5B8B5B0701D40132DFE7044A5168A1
S1134CA0C0239B020B435360E0E7C046B0020020E0
S1134CB0001000427047000010B5144BDC885B788C
S1134CC02E2B02D0124B984710BD104B9B88042BFF
S1134CD004D0052B10D00E4B9847F5E7282C00D9AB
S1134CE0282422000B490C480C4B9847E0B20C4B8B
S1134CF098470C4B9847E7E78E2C00D98E24220066
S1134D00044928310448054B9847EFE74809002037
S1134D10B9490000AC7400003C070020855600002F
S1134D20694900002149000070477047704700003E
S1134D3010B5002803D0012808D0002005E0012088
S1134D400A4CA0478120A047012010BD4022032126
S1134D500120074CA047402203218120A047402284
S1134D6004490120044B98470120EEE70148000064
S1134D70F9460000940C00204148000008434142D9
S1134D804841C0B27047000010B5140002280CD08E
S1134D90032811D0012801D0002010BD204B383346
S1134DA01360002935D11130F7E71D4B4C331360E4
S1134DB0002930D12020F0E703291CD008D801298C
S1134DC00FD013D8164B6C33136023681878E4E7BC
S1134DD0052919D013D3EE291FD1114B7033136059
S1134DE0F3E71048104B98472060EEE70F480E4B4E
S1134DF098472060E9E70E4B98472060E5E70D48A7
S1134E00094B98472060E0E70B48074B9847206020
S1134E10DBE70020C1E70020BFE70020BDE7C04674
S1134E202C750000B4750000C1510000CC75000061
S1134E30A54A0000E07500000076000070B58020EF
S1134E40C0000C4B9847051E12D01020094B984700
S1134E50041E09D005600023436083608023DB00C7
S1134E60C360054B1C6070BD2800044B9847F8E7ED
S1134E700024F6E75D560000D80C002071560000AF
S1134E800C4B19684B688A68934211D0C868411E5C
S1134E908B4207D0511E8B4202D0934205D3981AFD
S1134EA080B27047002AF5D1FAE7801A1818F7E79C
S1134EB00020F5E7D80C002070B500230CE0012693
S1134EC014E01668345D2C70946801349460D568DD
S1134ED0AC4210D001339BB28B420FD2084A126805
S1134EE0C51894685668A642E9D00026002EE8D07A
S1134EF07F222A70EEE700249460EBE770BDC04681
S1134F00D80C002010B50A000121064B19700123AA
S1134F1001008120044CA047024B1B78002BFBD1DD
S1134F2010BDC046D40C00209148000070B50500A7
S1134F30194B98470400012D00D070BD4022174939
S1134F400120174B9847002208E09968002910D1E6
S1134F50012113E0012111E00132D2B29442ECD9D3
S1134F60104B1B680D498D5C5868D968013988421B
S1134F70EBD0996801398842ECD000210029EBD1AB
S1134F8019680D54596801315960D8688142E3D1D8
S1134F9000215960E0E7C046F1480000940C00206D
S1134FA041480000D80C0020012804D10023024A03
S1134FB01370024A13707047B6020020D40C00200C
S1134FC070B5114B1C88402C00D9402426000F4D8D
S1134FD00F4B1968220028000E4B9847002322002B
S1134FE0290080200C4DA847002C09D0064A1388BC
S1134FF01C1B1480064A13689C466644166070BDE8
S1135000064B9847F2E7C046420900203C070020BF
S11350104409002085560000914800002149000001
S113502010B582B03F4B1B7860221A4276D13D4BBB
S11350305B780B2B6FD89B003B4AD3589F463B4B66
S113504000221A705A700220394B9847394B9847FE
S113505066E00020364B9847364B984760E00020C6
S1135060334B9847334B98475AE02E4B5988080ADC
S1135070C9B20023019301AA2F4B984700281AD0E4
S11350800199002917D0274AD288904200D80200FB
S1135090264B994206D0294B1A80294B1960294B7B
S11350A098473DE00021254B198001231F498020AA
S11350B0254CA04734E0254B984731E0244B1A781F
S11350C01A4B1A7001201A4B98471A4B984727E03D
S11350D0144B98781F4B9847002809D00020144B94
S11350E09847104B9A781A4B1A70124B984717E04E
S11350F0164B984714E00B4B59889888164B9847E1
S1135100002805D000200A4B98470A4B984707E02F
S11351100E4B984704E00D4B984701E00F4B98471E
S113512002B010BD480900201C7600003C07002096
S11351306949000021490000894D0000420900200E
S113514044090020C14F000091480000B949000003
S11351501C0F0020314D00007D4D0000B94C0000B3
S113516010B5044B1B7860221A4200D110BD024BCB
S11351709847FBE7480900202B4D000010B50C4B65
S11351801B7860221A420FD1094B5B78052B04D09F
S1135190062B0BD1074B984708E0054B5B887F2013
S11351A01840054B984701E0044B984710BDC04692
S11351B048090020C14F0000E5460000294D0000C9
S11351C070B505000B4B984780B2FF2800D9FF202B
S11351D0094A431C5B00137003235370002305E04A
S11351E0E95C5C00044A1219518001338342F7DB05
S11351F0014870BD715800003C0700204000C3B254
S11352000A0A0120104018431A4B187059703422AE
S1135210194B5A62184B1B7EDB07FBD5164B5B8B75
S11352205B0711D40022012A1CDC124B985C282352
S11352301149C854104B1B7EDB07FBD50E4B5B8B0F
S11352405B0708D40132EEE70B4A5168C0239B0286
S11352500B4353600CE0084A5168C0239B020B4384
S1135260536005E0044A5168C0239B020B4353601A
S11352707047C046BC0200200010004270B50022F6
S11352801F4B1A8208E010211D4B99731C4B9B7B0A
S1135290DB06FBD5013292B2642AF4D100210F203F
S11352A0184CA0471825FF3529000020A0472900E5
S11352B00120A047D93529000220A0472900032056
S11352C0A04714210420A04706210520A04702215D
S11352D00620A04742210720A04700210820A0471C
S11352E00022074B1A8208E01021054B9973044BE6
S11352F09B7BDB06FBD5013292B20A2AF4D170BD46
S113530000300042FD51000010B501210920014B7D
S1135310984710BDFD51000010B500210920014B34
S1135320984710BDFD510000002243088B4274D3FE
S113533003098B425FD3030A8B4244D3030B8B4292
S113534028D3030C8B420DD3FF22090212BA030C9B
S11353508B4202D31212090265D0030B8B4219D37C
S113536000E0090AC30B8B4201D3CB03C01A52419C
S1135370830B8B4201D38B03C01A5241430B8B42E4
S113538001D34B03C01A5241030B8B4201D30B03CD
S1135390C01A5241C30A8B4201D3CB02C01A5241F4
S11353A0830A8B4201D38B02C01A5241430A8B42B7
S11353B001D34B02C01A5241030A8B4201D30B02A0
S11353C0C01A5241CDD2C3098B4201D3CB01C01ABA
S11353D0524183098B4201D38B01C01A52414309C4
S11353E08B4201D34B01C01A524103098B4201D3B2
S11353F00B01C01A5241C3088B4201D3CB00C01A1F
S1135400524183088B4201D38B00C01A5241430896
S11354108B4201D34B00C01A5241411A00D20146BB
S1135420524110467047FFE701B5002000F0F0F844
S113543002BDC0460029F7D076E7704703460B4308
S11354407FD4002243088B4274D303098B425FD379
S1135450030A8B4244D3030B8B4228D3030C8B42A5
S11354600DD3FF22090212BA030C8B4202D312128B
S1135470090265D0030B8B4219D300E0090AC30B60
S11354808B4201D3CB03C01A5241830B8B4201D30D
S11354908B03C01A5241430B8B4201D34B03C01AF6
S11354A05241030B8B4201D30B03C01A5241C30A6E
S11354B08B4201D3CB02C01A5241830A8B4201D3DF
S11354C08B02C01A5241430A8B4201D34B02C01AC9
S11354D05241030A8B4201D30B02C01A5241CDD26E
S11354E0C3098B4201D3CB01C01A524183098B42B9
S11354F001D38B01C01A524143098B4201D34B01A2
S1135500C01A524103098B4201D30B01C01A524104
S1135510C3088B4201D3CB00C01A524183088B428B
S113552001D38B00C01A524143088B4201D34B0074
S1135530C01A5241411A00D20146524110467047E6
S11355405DE0CA0F00D04942031000D340425340EB
S113555000229C4603098B422DD3030A8B4212D3AB
S1135560FC22890112BA030A8B420CD389019211DD
S11355708B4208D3890192118B4204D389013AD01A
S1135580921100E08909C3098B4201D3CB01C01AEF
S1135590524183098B4201D38B01C01A5241430902
S11355A08B4201D34B01C01A524103098B4201D3F0
S11355B00B01C01A5241C3088B4201D3CB00C01A5D
S11355C0524183088B4201D38B00C01A5241D9D275
S11355D043088B4201D34B00C01A5241411A00D2F6
S11355E00146634652415B10104601D34042002BF2
S11355F000D54942704763465B1000D3404201B571
S1135600002000F005F802BD0029F8D016E7704725
S11356107047C04670B500260C4D0D4C641BA41099
S1135620A64209D1002602F0F5F80A4D0A4C641B83
S1135630A410A64205D170BDB300EB5898470136BB
S1135640EEE7B300EB5898470136F2E72078000004
S113565020780000207800002478000010B5034B67
S11356600100186800F06AF810BDC046440000202C
S113567010B5034B0100186800F016F810BDC046C1
S113568044000020002310B59A4200D110BDCC5C28
S1135690C4540133F8E703008218934200D17047E1
S11356A019700133F9E7000070B50500002910D026
S11356B00C1F2368002B00DAE418280000F004F91A
S11356C01D4A1368002B05D163601460280000F0A4
S11356D0FCF870BDA34209D9216860188342F3D154
S11356E018685B6841182160EEE713005A68002AC5
S11356F001D0A242F9D919685818A0420BD12068E8
S11357000918581819608242E0D11068526841188B
S113571019605A60DAE7A04202D90C232B60D5E75E
S113572021686018824203D11068526841182160D0
S113573062605C60CAE7C046C4020020032370B5FF
S1135740CD1C9D43083506000C2D1ED20C25A94204
S11357501DD8300000F0B8F8254A1468210000294B
S113576019D1244C2368002B03D1300000F044F8F5
S113577020602900300000F03FF8431C2CD10C239A
S11357803000336000F0A1F803E0002DDFDA0C23D1
S11357903360002070BD0B685B1B1AD40B2B03D93C
S11357A00B60CC18256003E08C420ED16368136053
S11357B0300000F08AF8200007220B30231D9043AC
S11357C0C31AE7D05A42E250E4E74B6863600C0026
S11357D0EEE70C004968C2E70323C41C9C43A042C3
S11357E0E0D0211A300000F007F8431CDAD1C6E7F4
S11357F0C4020020C8020020002370B5064C050036
S113580008002360FDF7CCF9431C03D12368002B67
S113581000D02B6070BDC046200F00200EB4812341
S113582070B59DB002AC21AD9B0040CDA381029028
S1135830069000F01DF80B4B60606362002360610A
S113584009486363A364013BE38132002B00210018
S11358500068019500F0FCF91DB070BC08BC03B0F1
S11358601847C0466D5800004400002000207047CF
S11358700023C25C0133002AFBD1581E704700008C
S113588030B59BB00091049108496D460291059191
S1135890012182244942E981A4006946AC8100F0D7
S11358A077F80023009A13701BB030BDFFFFFF7F11
S11358B010B513000A00010002480068FFF7E0FF7A
S11358C010BDC0464400002070477047F0B58E6894
S11358D085B007000C00039201939E4239D89023AF
S11358E08A89DB001A4234D00325096923685B1ACC
S11358F00293636902985D43EB0F5D19019B6D1080
S113590001331B18AB4200D91D00530532D52900C1
S11359103800FFF713FF061E09D10C233B60402318
S11359200120A28940421343A38105B0F0BD029A2D
S11359302169FFF7A7FEA389144A1A408023134361
S1135940A381029B2661F61826606561019EED1A0B
S1135950A560019BB34200D21E0032000399206867
S113596000F0B5FFA36800209B1BA36023689E1969
S11359702660DAE72A00380000F0BBFF061EE0D1FB
S113598021693800FFF790FEC7E7C0467FFBFFFFA1
S1135990F0B59FB0029005938B890F0016001B068B
S11359A011D50B69002B0ED14021FFF7C7FE3860DB
S11359B03861002805D10C23029A013813601FB006
S11359C0F0BD40237B61002306AD6B6120336B7611
S11359D01033AB7634002378002B47D1A31B0493F8
S11359E00DD0A31B320039000298FFF76FFF431C50
S11359F000D1B5E06A69049B944663446B612378E3
S1135A00002B00D1ACE00122002352426A6002A9BB
S1135A105432521801342B60EB60AB601370AB65E9
S1135A20584E05222178300000F046FF621C002801
S1135A3020D12968CB0604D5532302AE20309B190C
S1135A4018700B0704D553232B2002AE9B19187032
S1135A5023782A2B16D000200A21099B2278303A79
S1135A60092A55D9002815D0099313E0252BB5D060
S1135A700134B0E70123801B8340296814000B43E1
S1135A802B60CDE7059B181D1B680590002B39DBA7
S1135A900993140023782E2B0BD16378621C2A2BD4
S1135AA03ED1059B02341A1D1B680592002B34DB82
S1135AB00793354E21780322300000F0FDFE0028C4
S1135AC006D04023801B83402A68013413432B6093
S1135AD0217806222D48661C297600F0EDFE002868
S1135AE046D02B4B002B2FD12968059B0722C905D3
S1135AF028D59B189343083305936B69039A9B1825
S1135B006B6167E75B42EB6002230B432B60C0E7EA
S1135B104B4301349B180120A0E701235B42C7E7F4
S1135B20002314000A201A006B60217830390929F7
S1135B3003D9002BBDD00792BBE74243013452186E
S1135B400123F2E70733D5E705AB00933A00114B85
S1135B502900029800E000BF0390039B0133CCD1DD
S1135B60BB890B985B0600D429E70120404226E755
S1135B7005AB00933A00074B2900029800F05CFA49
S1135B80EAE7C0464C7600005276000056760000E4
S1135B9000000000CD58000070B514004B1C03D168
S1135BA001256D42280070BD938920229343626BC6
S1135BB0A381CEB2CDB26368002A10D0A26B934207
S1135BC007DA2368013B23601E7063680133636056
S1135BD0E8E7210000F00EFE0028F2D0E0E721699A
S1135BE02268002907D0914205D2511E08788542C7
S1135BF001D12160EAE72364230044336363032370
S1135C00A36323004633E2631E7023600123DEE7AF
S1135C1010B50C00496B00290ED02300443399427F
S1135C2001D0FFF741FD0020236C60636360834271
S1135C3002D0E36B236010BD23690120236000239D
S1135C40A289636020331343A3814042F3E7000039
S1135C50F0B5BD4C8625A54403930023489349938E
S1135C6005AB4A93BE236D0000900C0002A8B7490F
S1135C705B004019C027C15002AB5B191500B44941
S1135C807F00D9512B78002B00D15BE100F0F4FDAB
S1135C9008222B78C01801934378134041D1019A0C
S1135CA06E1C252A00D0A8E0479345936B782A2BD5
S1135CB002D11A3B4593AE1C35000A2229780B0009
S1135CC0303B092B48D9A34E0322300000F0F4FDE9
S1135CD0002807D00123801B8340459A01351343D4
S1135CE0029245932B786E1C672B58D8652B00D3F2
