S01300005553426C6F6F706261636B2E73726563DC
S1130000302B002059020000550200005502000068
S113001000000000000000000000000000000000DC
S11300200000000000000000000000005502000075
S1130030000000000000000055020000550200000E
S11300405502000055020000550200005502000050
S1130050550200005502000055020000B5070000DB
S11300605502000055020000550200005502000030
S11300705502000055020000550200005502000020
S11300805502000055020000550200005502000010
S113009055020000000000000000000055020000AE
S11300A055020000550200005502000055020000F0
S11300B00000000010B5064C2378002B07D1054B37
S11300C0002B02D0044800E000BF0123237010BDC0
S11300D0640000200000000058120000084B10B516
S11300E0002B03D00749084800E000BF0748036815
S11300F0002B00D110BD064B002BFBD09847F9E72D
S1130100000000006800002058120000581200008F
S113011000000000094B1B689B0E3F2B09D0084AC6
S113012010688005800D074A904204D09B02184352
S11301307047203BF3E70448F8E7C046246080009A
S113014028608000FF030000FF010000024AD3681A
S1130150DB06FCD57047C0460008004010B50F23ED
S113016003401202074802401A43074CA2600902E6
S1130170F820400101408020400208431843606099
S113018010BDC04600FFFF00000C0040C222D20098
S11301900C4B9A600C4A53681E218B431A390B434B
S11301A053600A4A936904310B4393610122084B5B
S11301B01A7019000B781342FCD1064A044B5A807A
S11301C07047C04600080040004000410004004061
S11301D0000C004013400000F8B506000D00164B5B
S11301E09847164C6E23A382012205212800144F40
S11301F0B8472D02F0231B011D408023DB011D4362
S1130200104B5D800223A3840F4DA8470F4B9847E2
S1130210A062A8470E4BE362A8470623A384A8471D
S11302208623A384012207213000B847054A537866
S1130230DB09FCD1F8BDC0468D0100000008004078
S11302405D010000000C00404D010000150100009C
S1130250B9053F1CFEE70000F8B52A4A2A4B9A422A
S113026011D01A00294B9A420DD2294A03339B1A02
S11302709B0801339B000022234822498C58845058
S113028004329A42FAD1234A234B9A420AD2D343E4
S113029021495B1803218B4304339B18002102C2BC
S11302A09342FCD11D4AFF211D4B8B439360FD39C2
S11302B090235B001B4AD1501B4AD3780325AB43E0
S11302C002242343D370D3780C27BB43082633433B
S11302D0D370164B987B302290432022104398739E
S11302E0997BB943314399739A7BAA4322439A7306
S11302F00F4A536880210B4353600E4B98470E4BB3
S11303009847FEE758120000000000206400002017
S11303100400002064000020300B002000ED00E009
S113032000000000007000410050004100480041FE
S113033000400041590E0000910300000300064AEA
S11303401268002A04D0044A1068C3181360704766
S11303500249014A1160F6E780000020302B00209A
S113036070B5074B9847041E00D170BD054D0100C0
S11303702800054B984721002800044B9847F4E7D0
S1130380F90A00009C020020310B0000790B0000E8
S113039010B5022100200C4B98470C4B5822995C55
S11303A001200143995459215A5C02435A540D3196
S11303B03C229954064B9847064B9847064B98475E
S11303C0064CA047FDE7C046D901000000440041A7
S11303D031040000B50A0000F106000061030000CA
S11303E00E4B0F4A1A605A680E480240C021890514
S11303F00A435A600C4A1A615A690240114359610E
S11304005969802212060A435A61084B10210A22B4
S1130410FF3299540131093A99547047E808002091
S1130420A4060020FFFFFF8F94000020005000412D
S113043070B51F4AD36920210B43D3611D4A1E4B5B
S11304405A8001221D4B1A701A009378DB07FCD4E2
S113045002221A4B1A701A0093789B07FCD4184B8B
S11304601B689A03D20E1F2A1BD05902C90E1F29DA
S113047019D09B015B0F072B17D092010A431B0372
S113048013430E4C23850F4B1A7852010E4D002155
S113049028000E4B98476562082323830C4B98472A
S11304A070BD1A3AE1E70239E3E7043BE5E7C046E9
S11304B00004004006400000000C004000500041D1
S11304C0246080009C110000E8080020DB0E00007E
S11304D0E103000080231843014B98727047C04623
S11304E00050004170B543B2002B3CDB3F23184061
S11304F00023082A16D90133102A13D90133202ADC
S113050010D90133402A0DD90133802A0AD9802415
S113051064000133A24205D9FC33FF3393429B416B
S11305205B42063342012C4CA418626807252B4019
S11305301B072A4E3240134363604A1C284E0300B3
S113054008335B01995D07242240A943114399555F
S11305504001B446604440220623FF33C2542F3A7C
S1130560013BC25470BD3F2318400025082A15D909
S11305700135102A12D90135202A0FD90135402A14
S11305800CD90135802A09D9C13301359A4205D9DC
S11305900133FF33934292415542063543010E4CD9
S11305A0E418636907222A4012070C4D2B401343B9
S11305B0636101310A4C08304001035D07220A409F
S11305C0120170218B43190011430155A446604464
S11305D0A2230371C6E7C046E8080020FFFFFF8F8F
S11305E000500041030042B2002A0CDB3F201840B7
S11305F00B4A08304001831840215971835C393912
S11306008B43835470473F201840054A083040010B
S1130610831880211971835C10398B438354F1E76B
S11306200050004170B5104E400135186B689204BB
S113063014090E4A1A4022436A606B689B0B9B03A1
S11306406B6081510A4BC31805210822FF3299546B
S1130650084A94466044012202703B310432FF325E
S11306609954002070BDC046E8080020FF3F00F008
S11306700050004109510041F0B53F2420404001A1
S1130680124E36187469DF0763005B083B437361DD
S113069073690F4C2340736173699204940C9A0B31
S11306A092032243726131610A4BC3180A21082262
S11306B0FF329954084A944660440222027076310B
S11306C00622FF3299540020F0BDC046E8080020FD
S11306D0FF3F00F00050004109510041430103482D
S11306E0C01840688004800C7047C046E8080020A9
S11306F08022044B1A60044A138901218B4313811D
S11307007047C04600E100E0005000410D4B5A68BC
S11307100D491140802252030A435A605A68920BD1
S113072092035A60094A1A60094B05210822FF32D4
S1130730995404390A22FF3299543F31053A9954A5
S11307407047C046E8080020FF3F00F0A4060020E0
S1130750005000410F4B5969802212060A435A6126
S11307605A690D490A405A615A69920B920310431F
S113077058610A4A1A610A4B0A210822FF32995425
S113078008390A22FF3299547E310622FF329954E5
S11307907047C046E8080020FF3F00F094000020A6
S11307A00050004130210623FF33014AD1547047E1
S11307B000500041F0B5C64600B52A4B1F8CBFB2AD
S11307C09B8B1B0716D4FB070CD5264A0823FF3343
S11307D0D45CE4B21321D154E30613D4E30718D450
S11307E0A30719D4204B1B789846012B35DD01242F
S11307F001261BE008221B4B9A831C4B98471C4B79
S113080098472CE01B4A1C4B03CB03C21B4B984755
S1130810E4E71B4B9847E3E71A4B9847E2E7E0B25B
S1130820194B984713E00134444516DA3300A340CA
S11308301F42F8D06301154A94466344DD79EDB252
S11308406301134A944663441D70AB07E7D42E42F8
S1130850E9D0E0B20F4B9847E5E70F4B984704BC4B
S11308609046F0BD005000419C110000E1030000DF
S1130870290900009C060020A4060020710C000039
S1130880B90D0000D50D0000010C0000005100411D
S1130890085100418D0B0000A9090000F0B5DE46A7
S11308A057464E464546E0B589B00021072001ACC5
S11308B0194B9846194B9C460827194E1F239B46F3
S11308C08B005B18DA1705001540A94699444D467C
S11308D0ED10A946520F9B1803409B1A2A00654647
S11308E0525DFD1AAA404D46AD5D1D412B001343D8
S11308F05A4613404246D35C0B5501311A29DFD1C5
S113090001A800238376074B984709B03CBC904666
S11309109946A246AB46F0BD741000000DA08000BD
S11309200CA08000190E00007047000010B5164B93
S11309305B782E2B02D0154B984710BD124BDA88EA
S11309409B88042B04D0052B12D0104B9847F4E756
S1130950141C282A00D92824A4B222000C490D48CA
S11309600D4B9847E0B20D4B98470D4B9847E4E781
S1130970141C8E2A00D98E24A4B2220004492831E2
S11309800448054B9847EDE79C060020A5070000A6
S11309909810000094000020C90E000055070000C4
S11309A00D070000704770477047000010B500281D
S11309B003D0012808D0002005E001200A4CA047FC
S11309C08120A047012010BD402203210120074CB3
S11309D0A047402203218120A0474022044901204E
S11309E0044B98470120EEE7E5050000E50400000C
S11309F0A408002025060000084341424841C0B233
S1130A007047000010B5140002280ED0032813D03C
S1130A10012801D0002007E01F4B38331360113048
S1130A204B424B415B42184010BD1B4B4C3313608F
S1130A30484248414001F7E703291CD008D801295E
S1130A400FD013D8144B6C33136023681878EBE77A
S1130A50052919D013D3EE291BD10F4B7033136022
S1130A60F3E70E480E4B98472060EEE70D480C4B19
S1130A7098472060E9E70C4B98472060E5E70B486E
S1130A80074B98472060E0E70948054B98472060EA
S1130A90DBE70020C8E7C04618110000A0110000E1
S1130AA0190E0000B81100009D080000CC110000D0
S1130AB0EC11000070B58020C0000C4B9847051E57
S1130AC012D01020094B9847041E09D0056000235A
S1130AD0436083608023DB00C360054B1C6070BDF2
S1130AE02800044B9847F8E70024F6E7A10E00001D
S1130AF0E4080020B50E00000C4B19684B688A68A6
S1130B00934211D0C868411E8B4207D0511E8B42BC
S1130B1002D0934205D3981A80B27047002AF5D1C7
S1130B20FAE71818801AF7E70020F5E7E408002030
S1130B30F0B500291DD00200013989B201314018F5
S1130B400C4C00267F250BE01F68795C11709968B6
S1130B5001319960DF68B94209D00132824208D07C
S1130B60236899685F688F42EED11570F5E79E603F
S1130B70F3E7F0BDE408002010B50A0001230100EA
S1130B808120014CA04710BD79060000F8B505008E
S1130B90174B98470400012D00D0F8BD4022154999
S1130BA00120154B9847002CF7D00022134D114E0D
S1130BB000239C4606E09968002909D10132D2B28B
S1130BC09442EAD92B685868D96801398842F2D02E
S1130BD0996801398842F1D0B15C1F683954596869
S1130BE001315960D8688142E8D161465960E5E72E
S1130BF0DD060000A408002025060000E40800200B
S1130C00012802D10022014B1A7070478400002091
S1130C1070B5114B1B881C1C402B00D94024A4B276
S1130C200E4D0F4B1968220028000E4B98470023E5
S1130C302200290080200C4DA847002C09D0064A28
S1130C4013881B1B1380064B1A68944664441C606B
S1130C5070BD064B9847F2E79602002094000020EE
S1130C6098020020C90E0000790600000D0700005C
S1130C7010B582B0414B1B7860221A427AD13F4BA7
S1130C805A780B2A73D893003D4AD3589F463D4B5C
S1130C9000221A705A7002203B4B98473B4B9847EE
S1130CA06AE00020384B9847384B984764E00020AE
S1130CB0354B9847354B98475EE0304B58880023B6
S1130CC00193C1B2000A01AA314B984700281ED0F3
S1130CD0019900291BD0294BDB881C1C9BB282B2D2
S1130CE0934200D9041CA2B2264B994206D0294B48
S1130CF01C80294B1960294B98473DE00021254B66
S1130D00198001231F498020254CA04734E0254B3E
S1130D10984731E0244B1A781A4B1A7001201A4B69
S1130D2098471A4B984727E0144B98781F4B9847DD
S1130D30002809D00020144B9847104B9A781A4B7E
S1130D401A70124B984717E0164B984714E00B4B58
S1130D5059889888164B9847002805D000200A4BDC
S1130D6098470A4B984707E00E4B984704E00D4B11
S1130D70984701E00F4B984702B010BD9C06002035
S1130D800812000094000020550700000D07000021
S1130D90050A00009602002098020020110C0000B1
S1130DA079060000A5070000280B0020AD0900000B
S1130DB0F90900002D09000010B5044B1B786022CE
S1130DC01A4200D110BD024B9847FBE79C06002055
S1130DD0A709000010B50C4B1B7860221A420FD1F2
S1130DE0094B5B78052B04D0062B0BD1074B984796
S1130DF008E0054B5B887F201840054B984701E0CD
S1130E00044B984710BDC0469C060020110C0000FE
S1130E10D5040000A509000010B504000C4B984748
S1130E2083B2181CFF2B00D9FF2080B2094A431C4F
S1130E305B00137003235370002806DD0023E15C7C
S1130E405180013302328342F9DB024810BDC046AF
S1130E50611000009400002070B500260C4D0D4C6C
S1130E60641BA410A64209D1002600F0E5F90A4D3E
S1130E700A4C641BA410A64205D170BDB300EB5804
S1130E8098470136EEE7B300EB5898470136F2E78E
S1130E9044120000441200004412000048120000F2
S1130EA010B5034B0100186800F06AF810BDC04685
S1130EB00000002010B5034B0100186800F016F87C
S1130EC010BDC04600000020002310B59A4200D196
S1130ED010BDCC5CC4540133F8E70300821893427C
S1130EE000D1704719700133F9E7000070B50500AF
S1130EF0002910D00C1F2368002B00DAE418280006
S1130F0000F0B5F81D4A1368002B05D16360146026
S1130F10280000F0ADF870BDA34209D9216860181B
S1130F208342F3D118685B6841182160EEE713002F
S1130F305A68002A01D0A242F9D919685818A04267
S1130F400BD120680918581819608242E0D1106842
S1130F505268411819605A60DAE7A04202D90C239A
S1130F602B60D5E721686018824203D1106852686B
S1130F704118216062605C60CAE7C0468C000020B2
S1130F80032370B5CD1C9D43083506000C2D1ED2DD
S1130F900C25A9421DD8300000F069F8254A1468D0
S1130FA02100002919D1244C2368002B03D13000DF
S1130FB000F044F820602900300000F03FF8431CA2
S1130FC02CD10C233000336000F052F803E0002DE4
S1130FD0DFDA0C233360002070BD0B685B1B1AD46E
S1130FE00B2B03D90B60CC18256003E08C420ED187
S1130FF063681360300000F03BF8200007220B30D8
S1131000231D9043C31AE7D05A42E250E4E74B68E9
S113101063600C00EEE70C004968C2E70323C41CBC
S11310209C43A042E0D0211A300000F007F8431C92
S1131030DAD1C6E78C00002090000020002370B5B0
S1131040064C050008002360FFF778F9431C03D120
S11310502368002B00D02B6070BDC0462C0B0020F1
S11310600023C25C0133002AFBD1581E704770472D
S11310707047000030313233343536373839414225
S113108043444647484A4B4C4D4E50515253545694
S11310905758595A000000002800000000010400BD
S11310A00100000000000000000157696E55534222
S11310B0000000000000000000000000000000002C
S11310C08E00000000010500010084000000010002
S11310D00000280044006500760069006300650094
S11310E049006E00740065007200660061006300D0
S11310F06500470055004900440000004E00000010
S11311007B0033006300330033006200620066003A
S113111064002D0037003100660039002D003400D2
S11311203800310035002D003800620038006600B8
S11311302D0037006300640031006500660039004B
S1131140320038006200330064007D0000000000BB
S11311501201000200000040EB03402000010102E4
S11311600301000009022000010104803209040087
S1131170000200000005070501034000C8070581BF
S1131180034000C80403090412034D005300460041
S113119054003100300030002E0000000800000030
S11311A041544D454C205B537061726B20666972EB
S11311B06D776172655D000057696E555342207406
S11311C0657374206465766963650000436F6E66B9
S11311D0696775726174696F6E20737472696E6782
S11311E02064657363726970746F7200496E74650C
S11311F0726661636520737472696E6720646573D7
S113120063726970746F72008E0C0000A20C00008F
S11312106E0D0000A20C00006E0D0000AE0C00006C
S1131220BA0C00006E0D0000140D0000280D000023
S11312306E0D00004E0D0000F8B5C046F8BC08BCA9
S11312409E467047DD000000F8B5C046F8BC08BCF7
S10B12509E467047B500000042
S1131258040000200000000000000000000000005E
S11312680000000000000000000000000000000072
S11312780000000000000000000000000000000062
S11312880000000000000000000000000000000052
S11312980000000000000000000000000000000042
S11312A80000000000000000000000000000000032
S10712B8000000002E
S9030000FC
